:100000000C9434000C9451000C9451000C94510049
:100010000C9451000C9451000C9451000C9451001C
:100020000C9451000C9451000C9451000C9453000A
:100030000C9451000C9451000C9451000C945100FC
:100040000C9495000C9451000C9451000C945100A8
:100050000C9451000C9451000C9451000C945100DC
:100060000C9451000C94510011241FBECFEFD4E02A
:10007000DEBFCDBF11E0A0E0B1E0ECE1F3E002C0F3
:1000800005900D92A030B107D9F711E0A0E0B1E0E2
:1000900001C01D92A530B107E1F70E9480000C94C9
:1000A0008C010C9400001F920F920FB60F92112436
:1000B0008F9380910001882321F01092000115B8E0
:1000C00005C081E0809300018FEF85B98F910F907B
:1000D0000FBE0F901F9018958FEF84B9109280007B
:1000E0008CE08093810089E09DE390938900809368
:1000F000880082E080936F0078940895000008954E
:100100000E9428018FEF84B9109280008CE08093C8
:10011000810089E09DE3909389008093880082E0CC
:1001200080936F0078940000FECF1F920F920FB65D
:100130000F9211248F939F93AF93BF9380910101EE
:1001400090910201A0910301B09104010196A11DBB
:10015000B11D8093010190930201A0930301B0931C
:100160000401BF91AF919F918F910F900FBE0F909F
:100170001F90189560910101709102018091030117
:100180009091040127E0660F771F881F991F2A9519
:10019000D1F72DE730E040E050E00E946A01CA014B
:1001A000B9010895AF92BF92CF92DF92EF92FF9282
:1001B0000F931F935B016C0160910101709102012B
:1001C000809103019091040147E0660F771F881F1B
:1001D000991F4A95D1F72DE730E040E050E00E94AA
:1001E0006A0179018A016091010170910201809197
:1001F00003019091040137E0660F771F881F991F54
:100200003A95D1F72DE730E040E050E00E946A01D6
:100210002E193F09400B510B2A153B054C055D0576
:1002200010F31F910F91FF90EF90DF90CF90BF9050
:10023000AF900895019759F0FC01EE0FFF1FEE0FEC
:10024000FF1F32978FB7F8943197F1F78FBF08955A
:100250007894109201011092020110920301109201
:10026000040184B5826084BD84B5816084BD85B598
:10027000826085BD85B5816085BDEEE6F0E0808158
:1002800081608083E1E8F0E080818260808380810A
:1002900081608083E0E8F0E0808181608083E1EB31
:1002A000F0E0808184608083E0EBF0E08081816019
:1002B0008083EAE7F0E080818460808380818260CF
:1002C00080838081816080838081806880831092B8
:1002D000C1000895A1E21A2EAA1BBB1BFD010DC08F
:1002E000AA1FBB1FEE1FFF1FA217B307E407F507E6
:1002F00020F0A21BB30BE40BF50B661F771F881FC2
:10030000991F1A9469F760957095809590959B0157
:0C031000AC01BD01CF010895F894FFCFAF
:00000001FF
