:100000000C945B000C9483000C9483000C9483008C
:100010000C9483000C9483000C9483000C94830054
:100020000C9483000C9483000C9483000C94830044
:100030000C9483000C9483000C9483000C94830034
:100040000C9444010C9483000C94A6040C9483003B
:100050000C9483000C9483000C9483000C94830014
:100060000C9483000C948300000024272A000025B0
:10007000282B000023262904040404040404040299
:100080000202020202030303030303010204081035
:100090002040800102040810200102040810200002
:1000A0000000070002010000030406000000000039
:1000B00000000000450311241FBECFEFD4E0DEBFD7
:1000C000CDBF11E0A0E0B1E0E4ECFDE002C005909E
:1000D0000D92A630B107D9F711E0A6E0B1E001C05A
:1000E0001D92AF3AB107E1F710E0C6EBD0E004C0D3
:1000F0002297FE010E948606C43BD107C9F70E94E1
:100100003D010C94E0060C94000020910D0130E0BC
:10011000220F331F80910C01280F311D220F331F36
:1001200080910B01280F311D220F331F80910A018E
:10013000280F311D220F331F80910901280F311D17
:10014000220F331F80910801280F311D220F331F0A
:1001500080910701280F311D220F331F8091060166
:10016000280F311DC90108951F93CF93DF93CEE06F
:10017000D1E011E00E94100668E070E00E942006C5
:10018000AA2797FDA095BA2F80932201909323016F
:10019000A0932401B09325018A5F9E4FFC0120812A
:1001A000212720830E94850085B988818BB92296FA
:1001B000F1E0C232DF07F1F6DF91CF911F91089590
:1001C0008FEF84B98AB940E855E260E070E086E2DA
:1001D00091E00E94270480E00E941C020E94150604
:1001E0001092060110920701109208011092090165
:1001F00010920A0110920B0110920C0110920D0145
:100200008FE390E090930F0180930E0186E090E0E1
:1002100090931101809310018BE590E0909313016E
:10022000809312018FE490E0909315018093140164
:1002300086E690E090931701809316018DE690E09A
:1002400090931901809318018DE790E090931B0122
:1002500080931A0187E090E090931D0180931C0128
:100260008FE790E090931F0180931E0187E690E056
:10027000909321018093200108950E94D7010E944C
:10028000E0000E94B400FDCF1F920F920FB60F92B4
:1002900011248F939F93AF93BF9380912B019091E3
:1002A0002C01A0912D01B0912E010196A11DB11D2F
:1002B00080932B0190932C01A0932D01B0932E01DC
:1002C000BF91AF919F918F910F900FBE0F901F9094
:1002D000189560912B0170912C0180912D019091C6
:1002E0002E0127E0660F771F881F991F2A95D1F7E7
:1002F0002DE730E040E050E00E943306CA01B9012A
:100300000895AF92BF92CF92DF92EF92FF920F9338
:100310001F935B016C0160912B0170912C01809106
:100320002D0190912E0147E0660F771F881F991FBE
:100330004A95D1F72DE730E040E050E00E943306C7
:1003400079018A0160912B0170912C0180912D011E
:1003500090912E0137E0660F771F881F991F3A95FD
:10036000D1F72DE730E040E050E00E9433062E192F
:100370003F09400B510B2A153B054C055D0510F359
:100380001F910F91FF90EF90DF90CF90BF90AF90B3
:100390000895019759F0FC01EE0FFF1FEE0FFF1FAC
:1003A00032978FB7F8943197F1F78FBF089578940B
:1003B00010922B0110922C0110922D0110922E01FF
:1003C00084B5826084BD84B5816084BD85B582605A
:1003D00085BD85B5816085BDEEE6F0E080818160F8
:1003E0008083E1E8F0E080818260808380818160A9
:1003F0008083E0E8F0E0808181608083E1EBF0E0E1
:10040000808184608083E0EBF0E080818160808384
:10041000EAE7F0E08081846080838081826080836D
:100420008081816080838081806880831092C10098
:1004300008958093000108958F7090910001929526
:10044000990F990F907C982B90937C0080917A0063
:10045000806480937A0080917A0086FDFCCF2091A1
:10046000780040917900942F80E030E0282B392BE0
:10047000C90108951F93CF93DF93182FEB0161E01B
:100480000E948E02E12FF0E0E156FF4F849183300D
:1004900051F480918000806880938000D09389001F
:1004A000C093880037C0843051F48091800080620E
:1004B00080938000D0938B00C0938A002BC0813042
:1004C00029F484B5806884BDC7BD24C0823029F476
:1004D00084B5806284BDC8BD1DC0863041F4809162
:1004E000B00080688093B000C093B30013C0873021
:1004F00041F48091B00080628093B000C093B4005A
:1005000009C0C038D10514F460E001C061E0812F5A
:100510000E94AC02DF91CF911F910895282F30E007
:10052000C90185579F4FFC01949129583F4FF9010C
:100530008491882381F0E82FF0E0E859FF4FE4919F
:10054000F0E0662329F480819095892380830895C3
:100550008081892B80830895482F50E0CA018156FD
:100560009F4FFC012491CA0185579F4FFC01949134
:1005700049585F4FFA0134913323C1F1222331F1FD
:10058000233021F4809180008F7705C0243031F42E
:10059000809180008F7D8093800018C0213019F4F5
:1005A00084B58F7704C0223021F484B58F7D84BD5B
:1005B0000DC0263021F48091B0008F7705C0273020
:1005C00029F48091B0008F7D8093B000E32FF0E09C
:1005D000E359FF4FE491F0E0662329F48081909580
:1005E0008923808308958081892B80830895482FF3
:1005F00050E0CA0181569F4FFC012491CA018557E2
:100600009F4FFC01949149585F4FFA013491332375
:1006100019F420E030E035C0222331F1233021F4F9
:10062000809180008F7705C0243031F48091800064
:100630008F7D8093800018C0213019F484B58F77A6
:1006400004C0223021F484B58F7D84BD0DC02630D6
:1006500021F48091B0008F7705C0273029F4809174
:10066000B0008F7D8093B000E32FF0E0EE58FF4F95
:10067000E491F0E0808120E030E0892311F021E076
:1006800030E0C9010895089508950895CB01BA0195
:1006900030E040E050E00E9401050895CB01BA012E
:1006A0002AE030E040E050E00E940105089580E03B
:1006B00090E02AE030E040E050E00E94010508951B
:1006C000862F0E94E4040895862F0E94E404089572
:1006D0008DE00E94E4048AE00E94E40408950F93F0
:1006E0001F938C01CB01BA012AE030E040E050E0DA
:1006F0000E940105C8010E9468031F910F9108958F
:100700000F931F938C0180E090E02AE030E040E0FE
:1007100050E00E940105C8010E9468031F910F91DB
:1007200008950F931F938C01862F0E94E404C80143
:100730000E9468031F910F9108950F931F938C01DE
:10074000862F0E94E404C8010E9468031F910F9144
:100750000895EF92FF920F931F937A018B0177FF19
:100760000BC08DE20E94E40410950095F094E09493
:10077000E11CF11C011D111D2AE030E040E050E0B9
:10078000C801B7010E9401051F910F91FF90EF90E2
:1007900008950F931F938C010E94A903C8010E9422
:1007A00068031F910F910895AB01662757FD60956F
:1007B000762F0E94A90308950F931F938C01AB011C
:1007C000662757FD6095762F0E94A903C8010E94F5
:1007D00068031F910F910895FA01DB01211531057E
:1007E00021F4842F0E94E40408952A30310519F47D
:1007F0000E94A903089530E040E050E0BF01CD0120
:100800000E94010508950F931F938C010E94EC0331
:10081000C8010E9468031F910F910895CB010E94A7
:10082000F40408950F931F938C01CB010E94F404EC
:10083000C8010E9468031F910F9108950E949D04B2
:1008400008950E947E0408950E946D040895CB01CE
:10085000BA010E942C040895EF92FF920F931F9308
:100860007B018C0122E030E040E050E00E94550620
:10087000205C3D4B404F5F4FCA01B901A801970171
:100880000E945506C901DA010197A109B109292F72
:100890003A2F4B2F552747FD5A950196A11DB11DA3
:1008A0002093C50081508093C400E1ECF0E080818A
:1008B000806180838081886080838081806880837C
:1008C0001F910F91FF90EF900895982F8091C00095
:1008D00085FFFCCF9093C6000895809127019091E9
:1008E000280180589F4F2091290130912A01821BB5
:1008F000930B60E870E00E94200608954091290162
:1009000050912A0180912701909128018417950721
:1009100019F42FEF3FEF0FC0FA01E15DFE4F208188
:10092000CA01019660E870E00E94200690932A01B7
:100930008093290130E0C9010895809129019091A7
:100940002A01909328018093270108951F920F9206
:100950000FB60F9211242F933F934F935F936F9392
:100960007F938F939F93AF93BF93EF93FF934091A8
:10097000C600E0912701F0912801CF01019660E8BF
:1009800070E00E9420069C018091290190912A012B
:100990002817390739F0E15DFE4F40833093280175
:1009A00020932701FF91EF91BF91AF919F918F917C
:1009B0007F916F915F914F913F912F910F900FBE5B
:1009C0000F901F9018950895982F8091C00085FF73
:1009D000FCCF9093C60008958091C00085FFFCCFA6
:1009E0008AE08093C6000895FC0107C08091C00092
:1009F00085FFFCCF31969093C60090819923B1F783
:100A000008952F923F924F925F926F927F928F92B2
:100A10009F92AF92BF92CF92DF92EF92FF920F938D
:100A20001F93DF93CF93CDB7DEB7A0970FB6F8949F
:100A3000DEBF0FBECDBF6B017C0129013A016115FC
:100A400071058105910541F48091C00085FFFCCFBF
:100A500080E38093C60049C08824992454011E0174
:100A60000894211C311C8101080D191DC701B60114
:100A7000A30192010E943306F80160830894811C4F
:100A8000911CA11CB11CC701B601A30192010E94D7
:100A90003306C901DA016C017D01C114D104E104FE
:100AA000F10409F79101280D391DBE016F5F7F4FD9
:100AB000D501C4010197A109B109AC01481959092F
:100AC00011C0FA01E20FF31FE081EA3010F4E05D9B
:100AD00001C0E95C8091C00085FFFCCFE093C600B7
:100AE000215030406217730761F7A0960FB6F89453
:100AF000DEBF0FBECDBFCF91DF911F910F91FF9051
:100B0000EF90DF90CF90BF90AF909F908F907F90AD
:100B10006F905F904F903F902F900895EF92FF92CB
:100B20000F931F937B018C0197FF0FC08091C00032
:100B300085FFFCCF8DE28093C60010950095F09460
:100B4000E094E11CF11C011D111D2AE030E040E0A1
:100B500050E0C801B7010E9401051F910F91FF905D
:100B6000EF90089520E130E040E050E00E94010560
:100B7000089528E030E040E050E00E94010508952B
:100B800022E030E040E050E00E9401050895A0E03E
:100B9000B0E0EDECF5E00C94B106EC01A880B98072
:100BA000CA80DB80A114B104C104D10441F484E201
:100BB000A82E89EDB82E8BE5C82E87E0D82EC60169
:100BC000B5012DE133EF41E050E00E9455060E944F
:100BD0008A067B018C01C601B5012DE133EF41E0AE
:100BE00050E00E945506CA01B9010E948A066E0DA6
:100BF0007F1D801F911F97FF04C06150704080408F
:100C00009048688379838A839B839B013F77C901DE
:100C1000CDB7DEB7EAE00C94CD060E94C705089573
:100C200081E091E00E94C7050895A0E0B0E08093C4
:100C3000010190930201A0930301B0930401089570
:100C400097FB092E07260AD077FD04D049D006D09D
:100C500000201AF4709561957F4F0895F6F79095EE
:100C600081959F4F0895A1E21A2EAA1BBB1BFD017F
:100C70000DC0AA1FBB1FEE1FFF1FA217B307E4077B
:100C8000F50720F0A21BB30BE40BF50B661F771FD3
:100C9000881F991F1A9469F76095709580959095B3
:100CA0009B01AC01BD01CF01089597FB092E0526DC
:100CB0000ED057FD04D0D7DF0AD0001C38F4509571
:100CC0004095309521953F4F4F4F5F4F0895F6F770
:100CD00090958095709561957F4F8F4F9F4F0895A8
:100CE000AA1BBB1B51E107C0AA1FBB1FA617B70752
:100CF00010F0A61BB70B881F991F5A95A9F780956E
:100D00009095BC01CD010895EE0FFF1F0590F49161
:100D1000E02D0994629FD001739FF001829FE00D46
:100D2000F11D649FE00DF11D929FF00D839FF00D6A
:100D3000749FF00D659FF00D9927729FB00DE11D16
:100D4000F91F639FB00DE11DF91FBD01CF011124F3
:100D500008952F923F924F925F926F927F928F925F
:100D60009F92AF92BF92CF92DF92EF92FF920F933A
:100D70001F93CF93DF93CDB7DEB7CA1BDB0B0FB644
:100D8000F894DEBF0FBECDBF09942A883988488801
:100D90005F846E847D848C849B84AA84B984C88497
:100DA000DF80EE80FD800C811B81AA81B981CE0F8E
:100DB000D11D0FB6F894DEBF0FBECDBFED01089573
:040DC000F894FFCFD5
:060DC40001010000000027
:00000001FF
