:1000000062C0000087C0000085C0000083C00000FF
:1000100081C000007FC000007DC000007BC00000E8
:1000200079C000000C94721075C0000073C000000D
:1000300071C000000C946C086DC000006BC0000023
:1000400069C0000067C0000065C0000063C0000018
:1000500061C000005FC000005DC000005BC0000028
:1000600059C0000057C00000D205D805DB05DE05E9
:10007000E105E405E705EA05ED05F005F305F605FC
:1000800020506F6C6F6C750033F720526F626F7485
:10009000004D617A6500736F6C766572003E673360
:1000A000323E3E633332004C313620636465677202
:1000B00065673400000000000000001F1F1F1F1FA5
:1000C0001F1F3F0B400B11241FBECFEFD4E0DEBF3C
:1000D000CDBF11E0A0E0B1E0EAEEF3E202C005908E
:1000E0000D92A03BB107D9F711E0A0EBB1E001C040
:1000F0001D92AA3FB107E1F710E0C4ECD0E004C0C4
:100100002297FE010E94E511C23CD107C9F7B4D085
:100110000C94E91175CFAAE0B0E0E1E9F0E00C94AD
:10012000B61180ED97E00E94750BC8D080E890E092
:100130000E947D0A80E090E061E070E00E94D909B1
:1001400088E890E00E947D0A8DE990E0B6D788EEBD
:1001500093E00E94B1100E94EA0981E990E00E94B8
:100160007D0A80E090E061E070E00E94D90986E9B4
:1001700090E00E947D0A88EE93E01DC00E943D0B36
:100180007C010E94EA090027F7FC0095102FC801A6
:10019000B7010E946D0A80E091E00E948C0A80E025
:1001A00090E061E070E00E94D90983E091E00E9454
:1001B0008C0A84E690E00E94B11080E1DBD78823AE
:1001C000E9F280E10E94060988EE93E00E94B110F6
:1001D0000CEE1FEF0832110528F088E290E068ED80
:1001E0007FEF04C088ED9FEF68E270E0D7D381E035
:1001F0000E944A0B84E190E00E94B1100F5F1F4FF4
:100200000C33110539F780E090E060E070E0C6D370
:100210006E010894C11CD11C19C0C60161E00E9486
:10022000430B7C010E94EA0900E010E0C801B7011D
:100230000E946D0A80E090E061E070E00E94D909C0
:10024000C6011DD084E690E00E94B11080E192D7F3
:10025000882319F380E1DAD70E94EA098BE091E064
:100260000E948C0A87EA90E028D79AD38823E9F77E
:100270002A96E8E00C94D2114EDFC8D0FFCF0F933E
:100280001F93CF93DF938C01C0E0D0E0F801EC0F17
:10029000FD1F8081918165E670E00E944811FB019D
:1002A000E15FFE4F80810E94900A2296CA30D105FC
:1002B00069F7DF91CF911F910F9108950F931F93CD
:1002C00004EB10E0C80160E00E94B60AC801019684
:1002D00061E00E94B60AC801029662E00E94B60A76
:1002E000C801039663E00E94B60AC801049664E060
:1002F0000E94B60AC801059665E00E94B60AC801C8
:10030000069666E00E94B60A0E94EA091F910F91C4
:100310000895882311F08CE40895662311F083E595
:100320000895442311F482E4089582E50895CF935B
:10033000DF933091B001333008F44CC0C32FD0E0CC
:10034000FE01E35DFE4F8081823409F043C0FE016F
:10035000E25DFE4F80E090E0AE01455D5E4F2081A2
:100360002C3441F0223519F0223449F406C0865A63
:100370009F4F05C0825F9E4F02C08C549F4F3197A4
:10038000E417F50761F768E671E00E945C118A35B1
:10039000910589F08B3591051CF4892B41F017C02C
:1003A000843B910561F08E50914089F40CC0C45D8E
:1003B000DE4F83E50BC0C45DDE4F82E507C0C45D40
:1003C000DE4F82E403C0C45DDE4F8CE4888332508C
:1003D0003093B001DF91CF910895E091B001F0E04A
:1003E000E15DFE4F1082F6D78FE291E00E948C0A09
:1003F0008091B001893048F080E090E061E070E0E9
:10040000D8D787E391E00C948C0A0895AAE0B0E075
:10041000ECE0F2E00C94B6116E010894C11CD11C02
:10042000B5D082E390E062E370E0B8D282E390E07E
:100430000E94B110C60161E00E94430B09811A813C
:10044000E984FA8488E290E068E270E0A7D288EC60
:1004500090E00E94B110C60161E00E94430B4B8105
:100460005C81493C510558F48D819E81893C910500
:1004700030F420E08F819885893C910508F021E0D7
:100480004955524050F08D819E818955924028F007
:100490008F81988589559240F8F40536110510F042
:1004A0001CE40BC0222311F013E507C085E6E81613
:1004B000F10410F412E401C012E5812FE4D0809120
:1004C000B001E82FF0E0E15DFE4F10838F5F809375
:1004D000B0012DDF82DFA4CF80E090E060E070E02B
:1004E0005DD289E191E0F6D520C00E94041120ED93
:1004F00037E040E050E00E946F11685E734080403A
:10050000904070F467D78FE191E00E948C0A80E000
:1005100090E061E070E04DD787E291E0FDD701C047
:100520005CDF8EE190E00E94B11080E123D6882349
:10053000E1F280E11FD68823E1F788EE93E00E9484
:10054000B11000E010E01AC021D082E390E062E335
:1005500070E024D282E390E00E94B11088E290E043
:1005600068E270E01BD288EC90E00E94B110F801C4
:10057000E15DFE4F808187D00F5F1F4F8091B001FA
:1005800090E00817190704F301D0A6CFAAE0B0E065
:10059000ECECF2E00C94AC1166247724AA24BB2482
:1005A00065011E010894211C311C6CE3462E512C60
:1005B000C10161E00E94430B50E3852E58EF952E58
:1005C000880E991EC401AA2797FDA095BA2FA80EE0
:1005D000B91ECA1EDB1EC601B50120E137E240E0AC
:1005E00050E00E94911179018A019401261937097E
:1005F000C901880F991F820F931F62E070E00E946B
:100600005C119B012E0D3F1DC40164E170E00E944E
:100610005C11260F371F2D33310574F48FEF243C06
:1006200038071CF424EC3FEF02C037FF07C0C901B4
:10063000CC966CE370E007C02CE330E0B201621BA3
:10064000730B8CE390E0AAD18B819C818436910559
:1006500050F48D819E818436910528F48F81988590
:100660008436910560F089819A81893C910538F43E
:10067000340189859A85893C910508F499CF2A9699
:10068000E2E10C94C8118C3429F0823541F08234B7
:10069000C1F40EC080EB9FEF60E570E004C080E520
:1006A00090E060EB7FEF7AD188EC90E00C94B11091
:1006B00080E590E060EB7FEF71D180E991E00C94F0
:1006C000B1100895CF93DF93BC018230910510F4EF
:1006D00062E070E0A091F801B091F901ED01E0E075
:1006E000F0E040E050E021C08881998186179707AB
:1006F00069F48A819B81309719F09383828304C0C7
:100700009093F9018093F801FE0133C068177907CF
:1007100038F44115510519F08417950708F4AC0118
:10072000FE018A819B819C01E9012097E9F6411530
:100730005105A1F1CA01861B970B049708F4BA0171
:10074000E0E0F0E029C08D919C9111978417950706
:10075000F1F46417750779F4ED018A819B81309774
:1007600019F09383828304C09093F9018093F80178
:10077000FD0132964FC0CA01861B970BFD01E80FA1
:10078000F91F6193719302978D939C9343C0FD0170
:10079000828193819C01D9011097A9F68091F6017D
:1007A0009091F701892B41F48091AC019091AD01BA
:1007B0009093F7018093F6014091AE015091AF0103
:1007C0004115510541F44DB75EB78091AA01909152
:1007D000AB01481B590B2091F6013091F70124170A
:1007E0003507B0F4CA01821B930B8617970780F078
:1007F000AB014E5F5F4F8417950750F0420F531FB8
:100800005093F7014093F601F9016193719302C08F
:10081000E0E0F0E0CF01DF91CF910895CF93DF9337
:10082000009709F44EC0EC0122971B821A82A09116
:10083000F801B091F901109701F140E050E0AC17D8
:10084000BD0700F1BB83AA83FE0121913191E20F24
:10085000F31FAE17BF0771F48D919C911197280F6C
:10086000391F2E5F3F4F39832883FD018281938199
:100870009B838A834115510569F4D093F901C09394
:10088000F8011FC0FD0182819381AD01009711F035
:10089000DC01D5CFFA01D383C28321913191E20FDC
:1008A000F31FCE17DF0769F488819981280F391F5C
:1008B0002E5F3F4FFA01318320838A819B8193838E
:1008C0008283DF91CF9108958091B1018823F1F463
:1008D00081E08093B10183EF8093B0008091B000FC
:1008E00084BD82E08093B1008091B10085BD1092FB
:1008F000B4008091B4008093B3008091B30088BDB0
:1009000088B587BD8AB188668AB9239A0895CF933E
:10091000DF93EC01D9DFD7FD02C020E004C0D09501
:10092000C195DF4F21E0CE01CF3FD10519F014F082
:100930008FEF90E0222319F018BC87BD02C088BD5C
:1009400017BCDF91CF910895CF93DF93EC01BCDF0B
:10095000D7FD02C020E004C0D095C195DF4F21E053
:10096000CE01CF3FD10519F014F08FEF90E0222394
:1009700029F01092B4008093B30004C08093B400B7
:100980001092B300DF91CF9108950F931F938B01C5
:10099000BEDFC801D9DF1F910F910895F6CF0895EA
:1009A00080919301882339F020E08091B3019091E8
:1009B000B401892B09F021E0822F0895A0E0B0E076
:1009C000E4EEF4E00C94B411FC015B01C42E8091C0
:1009D000B2018823C1F481E08093B20110926F00CC
:1009E000229883E28093800089E1809381001092B5
:1009F000820080E29EE490938900809388001092A8
:100A00008B0010928A0010929301F7FD03C0DD2441
:100A1000D39403C0FF779AE0D92E80918100082FEC
:100A200010E0087F10702D2D30E080E991E0AC01DE
:100A3000249FC001259F900D349F900D11248E1787
:100A40009F0798F4EF0157E2E131F50710F0C0E19C
:100A5000D7E29E0140E050E060E07DE281E391E07A
:100A60000E946F11790101601DC088E2D89E802D1F
:100A70001124C82FD0E0CE17DF0708F4EF019E0144
:100A800040E050E08AE0D81629F460E478E78DE78A
:100A900091E004C060EA75E286E290E00E946F1186
:100AA000790102604AE0D41639F4CE0105966AE075
:100AB00070E00E944811EB0153E0C83ED50711F4E5
:100AC000B5010FC0BE0180E090E0950140E050E02C
:100AD0000E941D1128EE33E040E050E00E94911189
:100AE000B901CC2011F4229806C0229A8FE08C150F
:100AF00010F48FE0C82E10926F0000938100F092E6
:100B00008900E0928800209188003091890080E17E
:100B100090E08C19910902C0369527958A95E2F7E5
:100B200030938B0020938A007093BA016093B901CF
:100B300086B38FEF86BB81E080936F007894CDB74A
:100B4000DEB7EAE00C94D011CF93DF93EB018F3F37
:100B500011F0442329F488EE93E0BE0140E067C021
:100B6000813110F420E005C0282F2051203608F0F4
:100B70002FE5822F6CE00E943C11382F682F70E027
:100B800084EF9FEF689FF001699FF00D789FF00D53
:100B90001124E20FF11DEC30F10538F4EC5CFF4F4D
:100BA0000C94E3118CE991E023C080E090E020C038
:100BB00085EB91E01DC08FEC91E01AC08AEE91E0C8
:100BC00017C087E092E014C086E292E011C087E48B
:100BD00092E00EC089E692E00BC08EE892E008C079
:100BE00085EB92E005C08EED92E002C08AE093E0D2
:100BF000373071F002C0880F991F6A95E2F73230E2
:100C000020F005966AE070E00BC0805090480BC061
:100C100026E0880F991F2A95E1F7029665E070E0BB
:100C20000E944811CB01403108F04FE0BE01C6DE02
:100C3000DF91CF9108953091B801E091B301F09127
:100C4000B401332311F0249101C02081822F8154FB
:100C50008A3108F4205E203221F43196CF010197C9
:100C600081F7F093B401E093B301822F0895CF93FD
:100C7000DF93E1DF282FC0E0D0E01CC0CE0143E0CD
:100C8000880F991F4A95E1F7CC0FDD1FC80FD91FB8
:100C9000822F992787FD9095C80FD91FE0978091E3
:100CA000B3019091B40101969093B4018093B30184
:100CB000C2DF282F822F80538A3000F3CE01DF91CC
:100CC000CF910895A0E0B0E0E8E6F6E00C94B21110
:100CD00080909401B090B601BB2021F06091B701E3
:100CE000662399F4A090B7010091990110919A019F
:100CF000E0909501F0909601C0919701D0919801F4
:100D0000C0909B01D0909C0103C18FEF70E040E048
:100D10001BDF1092B701C0C114E0812EBB2404EF89
:100D200011E0B4E0EB2EF12CC0EDD7E0A4E09A2E58
:100D3000FFE0CF2ED12C7FDF282F8091B30190913F
:100D4000B40101969093B4018093B301263609F45F
:100D500098C02736CCF42236A1F1233674F42E3312
:100D600061F12F3334F42132B9F22C3309F006C18A
:100D700026C0213609F002C11CC1243609F451C035
:100D800025360CF066C035C02F3609F4BFC02037B9
:100D900054F42C3609F4A5C02D3609F4A5C0273625
:100DA00009F0ECC086C0243709F4CEC0263709F418
:100DB000E2C0223709F0E2C0ADC08394BCCF8A9470
:100DC000BACFA092B701B092B60110939A010093E6
:100DD0009901F0929601E0929501D0939801C09309
:100DE000970190929401D0929C01C0929B012BE0BC
:100DF000F7C0A092B701B092B60110939A01009388
:100E00009901F0929601E0929501D0939801C093D8
:100E1000970190929401D0929C01C0929B0120E096
:100E2000DFC0A092B701B092B60110939A0100936F
:100E30009901F0929601E0929501D0939801C093A8
:100E4000970190929401D0929C01C0929B0122E064
:100E5000C7C0A092B701B092B60110939A01009357
:100E60009901F0929601E0929501D0939801C09378
:100E7000970190929401D0929C01C0929B0124E032
:100E8000AFC0A092B701B092B60110939A0100933F
:100E90009901F0929601E0929501D0939801C09348
:100EA000970190929401D0929C01C0929B0125E001
:100EB00097C0A092B701B092B60110939A01009327
:100EC0009901F0929601E0929501D0939801C09318
:100ED000970190929401D0929C01C0929B0127E0CF
:100EE0007FC0C5DE7C0141C0A6DE8C3611F4BB2478
:100EF00003C0AA24BB24B3948091B3019091B401A0
:100F000001969093B4018093B30115CFB0DE882E83
:100F1000982C11CFA092B701B092B60110939A010C
:100F200000939901F0929601E0929501D093980177
:100F3000C093970190929401D0929C01C0929B0122
:100F400020E0FF24F3944DC092DEBC0180EC9DE5CF
:100F50000E944811CB01EB01E3E0CC0FDD1FEA95C5
:100F6000E1F7880F991FC80FD91FCE01B7010E9462
:100F700048118B01E0CE7BDE6C01DDCEA092B70183
:100F8000B092B60110939A0100939901F0929601E4
:100F9000E0929501D0939801C093970190929401AB
:100FA000D0929C01C0929B011092B4011092B301A7
:100FB00073C0A092B701B092B60110939A0100934A
:100FC0009901F0929601E0929501D0939801C09317
:100FD000970190929401D0929C01C0929B0129E0CC
:100FE000FF248CE0889EC0011124E22EE80E0AC086
:100FF0008091B3019091B40101969093B4018093D4
:10100000B301E39418DE8B3299F3833289F30BC07A
:101010008091B3019091B40101969093B4018093B3
:10102000B301EA9408DE8D3299F3C0919901D09111
:101030009A018153883050F40091970110919801E2
:1010400016DEBC01C8010E944811EB018E010BC0E5
:101050008091B3019091B40101969093B401809373
:10106000B301C00FD11F16950795E5DD8E3281F3D0
:101070008091B601882339F0CE01969587958093AB
:10108000B701C81BD109FF2011F0EE24EA948E2D80
:10109000BE0140919B0158DDCDB7DEB7ECE00C946A
:1010A000CE1110926F009093B4018093B30181E050
:1010B0008093B8011092B70105CEF3CF0895109236
:1010C0006F009093B4018093B3011092B801109215
:1010D000B701F8CDF4CF08951F920F920FB60F927B
:1010E00011242F933F934F935F936F937F938F932D
:1010F0009F93AF93BF93EF93FF938091B90190912A
:10110000BA0101979093BA018093B901019609F54C
:1011100080918100887F81608093810080E29EE4DD
:10112000909389008093880010928B0010928A001F
:10113000229881E08093930110926F008091B30117
:101140009091B401892B29F08091B501882309F48D
:10115000B9DDFF91EF91BF91AF919F918F917F91F9
:101160006F915F914F913F912F910F900FBE0F9014
:101170001F901895282F8091BB01882391F481E05E
:101180008093BB0184B18D7C84B985B1826385B9BC
:1011900081E090E06F9364E06A95F1F76F910197B9
:1011A000C9F783B18095822308951F93CF93DF936E
:1011B000182F8091BB01882391F481E08093BB01BB
:1011C00084B18D7C84B985B1826385B981E090E07A
:1011D0006F9364E06A95F1F76F910197C9F7C12F9A
:1011E000D0E083B190E08C239D23892BD1F38AE05A
:1011F00090E0C6D783B190E08C239D23892B89F39F
:1012000083B18123DF91CF911F910895CECF0895AF
:101210004AB157985A98289A21E030E05C9AC9015F
:101220006F9364E06A95F1F76F910197C9F789B1FF
:101230005C98F9016F9364E06A95F1F76F913197CB
:10124000C9F75C9AF9016F9364E06A95F1F76F91C1
:101250003197C9F75C9887FDE1CF4AB9089565B128
:1012600090E0AC0141705070440F551F9C012670F6
:10127000307053E0220F331F5A95E1F7422B6D7CFB
:10128000462B45B92BB18870907034E0880F991FB8
:101290003A95E1F72F77282B2BB95C9A81E090E003
:1012A000FC016F9364E06A95F1F76F913197C9F78C
:1012B0005C986F9364E06A95F1F76F910197C9F7B5
:1012C00008958AB184618AB9209A84E190E058D760
:1012D00080E350D086E090E053D780E34BD082E0AB
:1012E00090E04ED780E346D082E090E049D780E29C
:1012F00041D082E090E044D788E23CD088E03AD008
:1013000081E038D086E036D08CE034C08091BE01D8
:10131000882321F481E08093BE01D3CF0895CF923A
:10132000DF92EF92FF920F931F93082F162FEEDF9D
:101330006FDFC4B0D5B0EAB0FBB05A9828988BB133
:10134000110F110F812B8BB984B1826384B9579A25
:10135000802F82958F7083DF802F8F7080DFFBB8A6
:10136000EAB8D5B8C4B81F910F91FF90EF90DF9005
:10137000CF90089560E0D3CFA2E0B0E0E1ECF9E0D7
:10138000F9C790E8998390EC9A83082F883008F089
:1013900007E0162F611111E0FE01E10FF11D8181BF
:1013A000800FE8DF0093BD011093BC012296E4E0BA
:1013B000FDC7E2CF089581E0DDDFEDE9F1E080E2F5
:1013C000819391E0E53AF907D9F71092BD011092A7
:1013D000BC010895F0CF08954F925F926F927F9273
:1013E0008F929F92AF92BF92CF92DF92EF92FF9235
:1013F0000F93DF93CF93CDB7DEB72A970FB6F8944C
:10140000DEBF0FBECDBF4B015C010AE02E01089488
:10141000411C511CC501B4012AE030E040E050E01D
:101420005ED769017A0101503201600E711CC7015B
:10143000B6012AE030E040E050E0FFD6861A970A75
:10144000A80AB90A882D805DF3018083C114D104F4
:10145000E104F10459F046015701DCCFF701E00F38
:10146000F11D808161E05BDF0F5F04C07E010894A5
:10147000E11CF11C0A3090F32A960FB6F894DEBFF7
:101480000FBECDBFCF91DF910F91FF90EF90DF9016
:10149000CF90BF90AF909F908F907F906F905F9014
:1014A0004F900895EF92FF920F931F937B018C0151
:1014B00097FF0BC010950095F094E094E11CF11C8F
:1014C000011D111D8DE261E02ADFC801B70184DF33
:1014D0001F910F91FF90EF900895E4CF0895CF935F
:1014E000DF93EC0103C061E01ADF2196FE018491D5
:1014F0008823C9F7DF91CF910895F1CF0895CF9355
:10150000DF93EC0103C0219661E009DF8881882325
:10151000D1F7DF91CF910895F2CF089561E0FFCE2A
:10152000FDCF0895EF92FF920F931F93CF93DF9318
:101530007C01062F10E0E3E0000F111FEA95E1F7B0
:10154000C0E0D0E09E01200F822F806413DFF701FE
:10155000EC0FFD1FE4918E2F61E0E1DE2196C83093
:10156000D10581F7CDB7DEB7E6E01EC7DBCF089522
:10157000382F883010F528B181E090E0032E02C0AA
:10158000880F991F0A94E2F78095282328B927B17C
:10159000822387B987E880937A0080917C00807FDE
:1015A00080937C0080917C003F70832B80937C0033
:1015B00080917A00806480937A000895A0E0B0E082
:1015C000E3EEFAE0D3C6EB01C7B0D8B0D1DF9E019D
:1015D000EE24FF24870180917A00806480937A0052
:1015E00080917A0086FDFCCF80917C0085FF2CC025
:1015F0008091790090E0A0E0B0E0E80EF91E0A1FAB
:101600001B1F2150304039F7D8B8C7B8CE01969586
:101610008795C034D10538F48E0D9F1D6C2F70E076
:1016200037D69B010CC0A0E0B0E0E80EF91E0A1FFF
:101630001B1F9E0140E050E0C801B70150D6C90110
:10164000CDB7DEB7E8E0AEC6809178009091790022
:10165000D2CF86E06AE070E0B1DFA0E0B0E0BC018C
:10166000CD012CE43DE140E050E0E7D52FEF33E041
:1016700040E050E056D6C9010895EBCF0895089593
:101680008FEB91E004C49C01462F8FEB91E0B901F0
:1016900020E072C3682F8FEB91E004C50F93DF93B6
:1016A000CF9300D000D00F92CDB7DEB79C01DE0102
:1016B0001196E5EAF1E085E001900D928150E1F7A5
:1016C0008FEB91E0BE016F5F7F4F45E003E176D085
:1016D0008FEB91E05ED09AD50F900F900F900F9006
:1016E0000F90CF91DF910F910895D8CF0895FC010D
:1016F000118210821382128215821482178216823E
:10170000693018F088E0808701C06087208B4830FE
:1017100078F481E090E002C0880F991F4A95E2F7C3
:1017200081878BE290E0938782878AE290E029C0EC
:101730004E3098F4242F30E02850304081E090E083
:1017400002C0880F991F2A95E2F7818785E290E011
:101750009387828784E290E014C04431A8F4242F58
:1017600030E02E50304081E090E002C0880F991F99
:101770002A95E2F7818788E290E09387828787E263
:1017800090E09587848708951586148613861286BF
:101790000895CF93DF93EC01EC85FD85309759F0E8
:1017A00080819985892B8083EA85FB859081898555
:1017B000809589238083DF91CF910895A0E0B0E0E8
:1017C000E3EEFBE0D3C5EC016B017901642F402F00
:1017D00020E08DDF19A61AA61BA6FF86EE8630E054
:1017E00041E050E096E2E92EF12C03E210E069E2DC
:1017F00070E052C0A32FB0E0F601EA0FFB1F80811A
:101800008830B0F4FA0102C0EE0FFF1F8A95E2F7AC
:10181000CF01FE01EA0FFB1F818B2BA5282B2BA7E5
:10182000AA0FBB1FAC0FBD1FFD01728F618F33C0AC
:101830008E30C0F490E00897FA0102C0EE0FFF1F4F
:101840008A95E2F7CF01FE01EA0FFB1F818B29A5E4
:10185000282B29A7AA0FBB1FAC0FBD1FFD01128F9C
:10186000018F19C08431B8F490E00E97FA0102C0DC
:10187000EE0FFF1F8A95E2F7CF01FE01EA0FFB1F73
:10188000818B2AA5282B2AA7AA0FBB1FAC0FBD1F2F
:10189000FD01F28EE18E3F5F8885381708F4AACFEC
:1018A000CDB7DEB7E8E07EC5A0E0B0E0E9E5FCE05A
:1018B00059C5EC015B0149A5AAA58BA490E009C01C
:1018C000E92FF0E0EE0FFF1FEA0DFB1D11821082E1
:1018D0009F5F88859817A0F384B139A5832B84B9BD
:1018E00087B12AA5822B87B98AB19BA5892B8AB992
:1018F00085B1832B85B988B1822B88B98BB1892BAF
:101900008BB9EAE0F0E06F9364E06A95F1F76F91CC
:101910003197C9F784B13095832384B987B1209575
:10192000822387B98AB1909589238AB985B13823F2
:1019300035B988B1282328B98BB198239BB99090E9
:10194000B000C090B1008091B00083608093B0007F
:1019500082E08093B100D090B20060E070E03AC0C5
:101960005091B2005D19650F711DE3B0E41609F0E6
:101970004FC0F6B0FA1609F04BC089B1881509F0CE
:1019800047C025C0A42FB0E09D01220F331F850161
:10199000020F131FF80180819181892BA1F42C0F74
:1019A0003D1FF901818D928DFC01208130E0AC0F4B
:1019B000BD1FFD01818990E028233923232B19F4D1
:1019C000F801718360834F5F88854817D8F2D50E80
:1019D0004E2DAF2D8E859F856817790708F290925E
:1019E000B000C092B10020E00FC0E22FF0E0EE0F97
:1019F000FF1FEA0DFB1D80819181892B21F48E85CB
:101A00009F85918380832F5F8885281770F305C099
:101A1000E3B0F6B089B040E0D7CFCDB7DEB7ECE0A9
:101A2000BDC4A0E0B0E0E6E1FDE0A0C4EC018B01A4
:101A3000D0907C00E0907A00C7B0F8B080917A0036
:101A400086FDFCCF90E009C0E92FF0E0EE0FFF1F0C
:101A5000E00FF11F118210829F5F88859817A0F315
:101A600097B18A8D8095982397B998B1892388B9C1
:101A700087E880937A0050E024C0FE01E40FF11D56
:101A8000818980937C0080917A00806480937A00C1
:101A900080917A0086FDFCCFE42FF0E0EE0FFF1F6F
:101AA000E00FF11F209178003091790080819181C1
:101AB000820F931F918380834F5F88854817E8F2D8
:101AC0005F5F898D581710F040E016C040E0F5CFF9
:101AD000E42FF0E0EE0FFF1FE00FF11F698D862F5E
:101AE00090E09595879520813181820F931F70E05A
:101AF000CFD3718360834F5F8885481748F3D092B6
:101B00007C00E0927A00F8B8C7B8CDB7DEB7E8E05D
:101B100049C4A0E1B0E0EEE8FDE027C48C017B0100
:101B2000D42E842F8150823078F4F801A485B585B5
:101B3000109751F08C919185892B8C93A285B38558
:101B40008C919185892B8C93F80180898823E1F40D
:101B5000C02EB12EC801B701A7DEF801A485B58556
:101B6000109759F08C919185892B8C93A285B38520
:101B70009C918185809589238C93F2E0DF1609F092
:101B800040C08C2D9B2D17C0C801B7014ADFF8015A
:101B9000A485B585109759F08C919185892B8C93EC
:101BA000A285B3859C918185809589238C93F2E0F1
:101BB000DF1639F5C801BE016F5F7F4F75DE40E06B
:101BC000BE016F5F7F4F19C0842F90E0880F991F6F
:101BD000D701A80FB91F860F971FF80126853785F3
:101BE000FC0180819181281B390B8D919C9111976B
:101BF000820F931F8D939C934F5FF8018085481748
:101C000018F36096E9E0CDC3A0E0B0E0E9E0FEE0C3
:101C1000AAC3EC01162F072F942E22E0421711F0D1
:101C2000442351F48C819D81892B09F4A1C08E81BC
:101C30009F81892B09F49CC0892D8150823050F4FA
:101C400088819981892B09F493C08A819B81892B92
:101C500009F48EC0CE01612F702F492D5ADF812FDC
:101C6000902F9C015901CC24DD2400E010E07AC0C3
:101C700081E0981669F4EA81FB81E00FF11F208171
:101C80003181E881F981E00FF11F408151813DC030
:101C9000AC81BD81992059F4EE81FF81E00FF11FE5
:101CA00020813181A00FB11F4D915C912EC0A00FFA
:101CB000B11F8D919C91E881F981E00FF11F208186
:101CC0003181EE85FF858217930710F4AF0105C0BF
:101CD000A9014E0F5F1F481B590BEE81FF81E00FDA
:101CE000F11F60817181EA81FB81E00FF11F80812A
:101CF0009181EE85FF856817790710F49F0105C073
:101D00009C012E0F3F1F261B370B7901E41AF50AA1
:101D1000F1F0F5016081718180E090E09A0140E08E
:101D200050E0621B730B840B950B28EE33E040E010
:101D300050E083D2970140E050E0F3D2C901F3E0D4
:101D4000293E3F0714F088EE93E097FF02C080E041
:101D500090E0F501819391935F010894C11CD11C1F
:101D60000E5F1F4F888590E0C816D9060CF480CF0F
:101D7000CDB7DEB7EBE013C3A4E0B0E0E1ECFEE0EA
:101D8000EBC28C01F62EE72E2A833EDFF801F085A8
:101D9000F9832F2D3E2DC9018C015524442466243E
:101DA000772443011C821B82AA24BB246501F8EE20
:101DB0002F2EF3E03F2E31C0D801ED90FC90BA8178
:101DC000BB2321F0F101EE19FF097F01F9ECEF16B9
:101DD000F10414F04424439423E3E216F10494F054
:101DE000B701882777FD8095982FA601950125D208
:101DF000660E771E881E991E8B819C818E0D9F1DFD
:101E00009C838B83539488EE93E0A0E0B0E0A80E0F
:101E1000B91ECA1EDB1E0E5F1F4F9981591660F254
:101E2000442021F5692F70E084EF91E0DC016A9F86
:101E3000C0016B9F900D7A9F900D1124845F91409B
:101E40002091EB013091EC01281739071CF440E098
:101E500050E019C088EE93E0689FA001699F500D83
:101E6000789F500D1124485E53400DC0EB81FC81DA
:101E70009F0140E050E0C401B30131D2A901309389
:101E8000EC012093EB01CA012496E2E181C2CF93D9
:101E9000DF93EC018A819B81009711F00E940E0470
:101EA0008E819F81009711F00E940E048881998194
:101EB000009711F00E940E048C819D81009711F013
:101EC0000E940E04DF91CF910895A3E3B0E0EAE60B
:101ED000FFE042C27C015B016A0129ABDA018D910E
:101EE0009C91892B11F5F701808590E0880F991F4F
:101EF0000E946203D6018D939C93009709F4CFC092
:101F000020E030E00CC0C901880F991FD601ED9187
:101F1000FC91E80FF91F118210822F5F3F4FF701EC
:101F2000808590E02817390774F3D5018D919C9135
:101F3000892B89F000E010E03E010894611C711CBF
:101F400091E2292E312C2C0E3D1E81E1482E512C80
:101F50004C0E5D1E27C0F701808590E0880F991F09
:101F60000E946203D5018D939C93009709F497C05A
:101F700020E030E010C0C901880F991FF5014081B1
:101F80005181480F591FF70186859785DA018D9396
:101F90009C932F5F3F4FF701808590E0281739070A
:101FA00054F3C8CFC701B30149A9B3DDF701808558
:101FB000882E9924A101F3015BAA4AAA60E070E08F
:101FC0002CC00115110549F0AAA9BBA92D913C917E
:101FD000808191812817390748F480819181AAA9CD
:101FE000BBA98D939C930115110541F0DA012D9148
:101FF0003C91808191818217930728F4808191819F
:10200000DA018D939C936F5F7F4F4E5F5F4F3296E7
:102010008AA99BA902969BAB8AAB681579058CF2BD
:102020000F5F1F4F0A30110509F0BCCF40E050E0B0
:1020300020E030E08E010F5D1F4FBE016F5E7F4FCD
:1020400028C0F801E20FF31F80809180F601A08183
:10205000B181A20FB31F8D919C911197881599059D
:1020600010F48D929C92FB01E20FF31F808091800F
:10207000F501A081B181A20FB31F8D919C911197A1
:102080008816990610F48D929C924F5F5F4F2E5FD9
:102090003F4FF701808590E04817590794F2E39687
:1020A000E2E176C11F93CF93DF93EC01162F862FC9
:1020B0008150823038F4AE014E5F5F4FCE01BE01D9
:1020C00021E003DF123011F0112341F4AE014A5F29
:1020D0005F4FCE012496BE0120E0F7DEDF91CF9165
:1020E0001F9108951F920F920FB60F9211242F93F4
:1020F0003F934F938F939F93AF93BF932091F3019F
:102100003091F401C90180509C4F9093F401809369
:10211000F30180519742C8F08091EF019091F00156
:10212000A091F101B091F2010196A11DB11D809322
:10213000EF019093F001A093F101B093F2012051CF
:1021400033423093F4012093F301BF91AF919F91FB
:102150008F914F913F912F910F900FBE0F901F9035
:10216000189528EE33E009C0F9016F9364E06A9591
:10217000F1F76F913197C9F701970097A9F7089583
:1021800028EE33E009C0F9016F9364E06A95F1F736
:102190006F913197C9F701970097A9F70895A0E7C4
:1021A000B0E08C918E7F8C93E0EBF0E080818360D7
:1021B0008083E1EBF0E08081807F8083808182609A
:1021C0008083B89A8C9181608C93789408958091E3
:1021D000F501882321F481E08093F501E0CF089593
:1021E000F6DFE0E7F0E080818E7F80832091EF01D1
:1021F0003091F0014091F1015091F20180818160B4
:102200008083B901CA010895EBCF0895E0DFE0E7CC
:10221000F0E080818E7F80831092EF011092F001B8
:102220001092F1011092F2011092F4011092F30158
:10223000B89A8081816080830895629FD001739FE6
:10224000F001829FE00DF11D649FE00DF11D929F52
:10225000F00D839FF00D749FF00D659FF00D992791
:10226000729FB00DE11DF91F639FB00DE11DF91FB5
:10227000BD01CF0111240895991B79E004C0991F75
:10228000961708F0961B881F7A95C9F780950895D0
:10229000AA1BBB1B51E107C0AA1FBB1FA617B7078C
:1022A00010F0A61BB70B881F991F5A95A9F78095A8
:1022B0009095BC01CD01089597FB092E07260AD001
:1022C00077FD04D0E5DF06D000201AF47095619503
:1022D0007F4F0895F6F7909581959F4F0895A1E25D
:1022E0001A2EAA1BBB1BFD010DC0AA1FBB1FEE1F90
:1022F000FF1FA217B307E407F50720F0A21BB30BDB
:10230000E40BF50B661F771F881F991F1A9469F756
:1023100060957095809590959B01AC01BD01CF01B2
:10232000089597FB092E05260ED057FD04D0D7DF60
:102330000AD0001C38F450954095309521953F4FB8
:102340004F4F5F4F0895F6F7909580957095619582
:102350007F4F8F4F9F4F08952F923F924F925F92E2
:102360006F927F928F929F92AF92BF92CF92DF92A5
:10237000EF92FF920F931F93CF93DF93CDB7DEB70A
:10238000CA1BDB0B0FB6F894DEBF0FBECDBF09949E
:102390002A88398848885F846E847D848C849B84F5
:1023A000AA84B984C884DF80EE80FD800C811B8103
:1023B000AA81B981CE0FD11D0FB6F894DEBF0FBE32
:1023C000CDBFED010895EE0FFF1F0590F491E02DB4
:1023D000099410E0C4ECD0E003C0FE01F6DF2296C1
:0A23E000C63CD107D1F7F894FFCFF7
:1023EA006D56005072657373204200476F210020BA
:1023FA000000010203040506FF3E3E61333200532A
:10240A006F6C766564210050726573732042000018
:10241A0000000000000000000000000000000000B2
:10242A0000000000000000000000000000000000A2
:10243A000000000000000000000000000000000092
:10244A000000000000000000000000000000000082
:10245A000000000000000000000000000000000072
:10246A000000000000000000000000000000000062
:10247A0000000001040400D007F4010F002020200E
:10248A0020202020200E0F1011122000FA01000037
:00000001FF
