:1000000041C0000066C0000064C0000062C0000083
:1000100060C000005EC000005CC000005AC000006C
:1000200058C000000C94F50F54C0000052C00000EE
:1000300050C000000C9460084CC000004AC0000092
:1000400048C0000046C000000C9457110C94B51134
:1000500040C000003EC000003CC000003AC00000AC
:1000600038C0000036C00000D405DA05DD05E00523
:10007000E305E605E905EC05EF05F205F505F805EC
:100080006D0A6E0A11241FBECFEFD4E0DEBFCDBFD4
:1000900011E0A0E0B1E0E4E9F5E202C005900D92C4
:1000A000AC34B107D9F712E0ACE4B1E001C01D9265
:1000B000A937B107E1F710E0C2E8D0E004C0229709
:1000C000FE010E94BA12C038D107C9F76FD20C9452
:1000D000BE1296CF809154018150809354018F3F7E
:1000E00019F483E6809354010895881F8827881F98
:1000F00008958095881F8827881F08950C94B60955
:100100001F93182F87FD02C080E01DC080E091E0A2
:10011000D5D70E94B60984E091E00E94D80980E01A
:1001200090E061E070E00E94A509812F0E94C9095A
:10013000809154018150809354018F3F19F483E6DC
:100140008093540181E01F91089580E090E060E089
:1001500070E034D410924D0110924C0108950E9429
:1001600091108CE390E064EC7FEF28D403C081E031
:100170000E947E0A0E9478106A3F710581059105F0
:10018000B0F384EC9FEF6CE370E018D403C081E01F
:100190000E947E0A0E9478106E5E724080409040FD
:1001A000B0F38CE390E064EC7FEF08D403C081E00F
:1001B0000E947E0A0E947810685E734080409040E2
:1001C000B0F380E090E060E070E0F8D38DE091E083
:1001D00061E00C94B3118FE091E066E00E94B311EE
:1001E00080E090E060E070E0E9D310924D01109261
:1001F0004C010895A2E0B0E0E0E0F1E00C9491122F
:100200000E946B0A9A838983CE01019662E00E9464
:10021000B3112296E2E00C94AD12A2E0B0E0E3E16B
:10022000F1E00C9491120E94550A9A838983CE01C1
:10023000019662E00E94B3112296E2E00C94AD12A6
:10024000ACE0B0E0E6E2F1E00C94911280914C0158
:1002500090914D01892B39F0809152019091530179
:100260008053984F05C0CE01039661E00E94710A49
:100270009A838983CE01019662E00E94B3112C9685
:10028000E2E00C94AD120F931F9380914C0190917A
:100290004D01892B09F464C080914F01882321F01E
:1002A00080915101882329F480E090E060E070E0C3
:1002B00056C080E00E94C7108BE692E061E00E9489
:1002C000710A8C0181E00E94C710005D1740809187
:1002D0005201909153019801281B390BC9011093C9
:1002E00053010093520120914E0130E040914F01A3
:1002F000BC01629FC001639F900D729F900D1124FD
:10030000642F70E00E943112FB01029FC001039F25
:10031000900D129F900D1124642F70E00E943112F5
:1003200080912D01282F30E0E60FF71F2E173F0791
:100330000CF4F90188279927821B930BBF01E8175A
:10034000F9070CF4BC0177FF05C0CB01820F931FA6
:10035000B90105C0C901861B970BBC01C9012ED389
:100360001F910F910895882361F080914C01909125
:100370004D01892B59F48BE692E061E00E94780AE6
:1003800005C08BE692E061E00E94820A8BE692E073
:100390006AE00C94B31181E0E6CF80E0E4CF0AC0BC
:1003A0000E945511FDD60E949F109091540189170B
:1003B00009F469DF0E949F1090915401891781F31D
:1003C000E92FF0E0ED55FE4FE081892F8F5F80939C
:1003D0005401843610F0109254018E2F0895CF925C
:1003E000DF92FF920F931F93DF93CF9300D000D043
:1003F0000F92CDB7DEB78E010F5F1F4F86E0C82E7C
:10040000D12CCC0EDD1ECBDFF82E7ADE882301F551
:10041000F801F1928F01EC15FD05A9F789818F375D
:1004200011F48FEF01C0880F80932D018A81809392
:100430004E018B8180934F018C81809350018D817F
:100440008093510181E090E090934D0180934C01A5
:100450000F900F900F900F900F90CF91DF911F9101
:100460000F91FF90DF90CF9008950F931F9397DF28
:10047000082F46DE882351F492DF182F41DE8823AF
:1004800029F4802F90E0612F70E05FD71F910F91CA
:100490000895FF920F931F9382DFF82E31DE882399
:1004A00089F410E00DC07BDF082F2ADE882351F489
:1004B0000E94C710802F80D781E00E94C7101F5F65
:1004C0001F1588F31F910F91FF9008950F931F93AD
:1004D000CF93DF9364DF082F13DE8823B1F4C7E0E6
:1004E000D2E010E008C0153681F059DF899308DEAC
:1004F000882359F41F5F1017B0F3E12FF0E0E95F94
:10050000FD4F108287E092E0D9D5DF91CF911F9106
:100510000F9108951F9343DF182FF2DD882351F4C4
:100520001F3719F481E09FEF04C08EEF1802C0015D
:10053000112439D21F9108951F9331DF182FE0DD68
:10054000882351F41F3719F481E09FEF04C08EEF28
:100550001802C001112404D21F9108951F931FDFB8
:10056000182FCEDD882361F41F3719F48FEF90E048
:1005700006C0812F992787FD9095880F991F13D268
:100580001F9108951F930BDF182FBADD882361F4A4
:100590001F3719F48FEF90E006C0812F992787FD50
:1005A0009095880F991FDCD11F9108951F9380EDBE
:1005B00097E0D5D781E0F2D5D9D686E191E0F8D69B
:1005C00060E072EC81E090E00E94F31081E00E9414
:1005D000C71083EA91E064E60E949310E0DE182FD2
:1005E000873B09F458C0883B14F5813B09F445C0AA
:1005F000823B7CF48638E9F1873824F4813809F0AD
:100600005EC035C0873809F43EC0803B09F057C052
:1006100032C0843BB1F1853B24F4833B09F04FC0E9
:100620002EC0853BA1F1863B09F049C032C08C3B0E
:1006300009F43BC08D3B54F4893B89F1893B6CF153
:100640008A3B79F18B3B09F03AC02DC0853C09F417
:1006500032C0863C34F4813C51F1823C09F02FC019
:1006600028C0863C51F1882309F4B8CF28C0B3DDF7
:10067000B5CF93DEB3CFD1DDB1CFBCDDAFCF26DFB9
:10068000ADCF81E03BD781E090E085DEA7CF69D791
:10069000A5CFD6DDA3CF6AD6A1CFFBDE9FCFE5DE07
:1006A0009DCF5DDD9BCF9BDE99CF4FDD97CF6ADF7E
:1006B00095CF42DF93CF52DF91CF2CDF8FCF56D62D
:1006C0008CE191E075D680E090E061E070E03DD68D
:1006D000812F5FD684E291E0F1D480CFCF93DF9376
:1006E000BC018230910510F462E070E0A0917702C5
:1006F000B0917802ED01E0E0F0E040E050E021C090
:10070000888199818617970769F48A819B81309740
:1007100019F09383828304C09093780280937702C8
:10072000FE0133C06817790738F44115510519F0F7
:100730008417950708F4AC01FE018A819B819C0116
:10074000E9012097E9F641155105A1F1CA01861B7F
:10075000970B049708F4BA01E0E0F0E029C08D910E
:100760009C91119784179507F1F46417750779F434
:10077000ED018A819B81309719F09383828304C0B5
:100780009093780280937702FD0132964FC0CA01A0
:10079000861B970BFD01E80FF91F61937193029778
:1007A0008D939C9343C0FD01828193819C01D9016B
:1007B0001097A9F68091750290917602892B41F4E9
:1007C0008091470190914801909376028093750241
:1007D0004091490150914A014115510541F44DB7ED
:1007E0005EB78091450190914601481B590B2091BD
:1007F00075023091760224173507B0F4CA01821BC6
:10080000930B8617970780F0AB014E5F5F4F8417FD
:10081000950750F0420F531F509376024093750294
:10082000F9016193719302C0E0E0F0E0CF01DF9144
:10083000CF910895CF93DF93009709F44EC0EC0158
:1008400022971B821A82A0917702B09178021097AA
:1008500001F140E050E0AC17BD0700F1BB83AA8373
:10086000FE0121913191E20FF31FAE17BF0771F422
:100870008D919C911197280F391F2E5F3F4F39831F
:100880002883FD01828193819B838A8341155105D1
:1008900069F4D0937802C09377021FC0FD01828172
:1008A0009381AD01009711F0DC01D5CFFA01D3831C
:1008B000C28321913191E20FF31FCE17DF0769F454
:1008C00088819981280F391F2E5F3F4FFA013183AC
:1008D00020838A819B8193838283DF91CF910895C6
:1008E000809155018823F1F481E08093550183EFD5
:1008F0008093B0008091B00084BD82E08093B1000D
:100900008091B10085BD1092B4008091B4008093B5
:10091000B3008091B30088BD88B587BD8AB1886671
:100920008AB9239A0895CF93DF93EC01D9DFD7FDDD
:1009300002C020E004C0D095C195DF4F21E0CE0178
:10094000CF3FD10519F014F08FEF90E0222319F07A
:1009500018BC87BD02C088BD17BCDF91CF91089538
:10096000E2CF0895CF93DF93EC01BADFD7FD02C049
:1009700020E004C0D095C195DF4F21E0CE01CF3FEC
:10098000D10519F014F08FEF90E0222329F0109296
:10099000B4008093B30004C08093B4001092B300FD
:1009A000DF91CF910895DECF08950F931F938B01B0
:1009B000BADFC801D7DF1F910F910895F6CF0895D0
:1009C000A0E0B0E0E6EEF4E00C948912FC015B01DB
:1009D000C42E809156018823C1F481E08093560192
:1009E00010926F00229883E28093800089E18093C7
:1009F00081001092820080E29EE4909389008093AF
:100A0000880010928B0010928A0010922E01F7FD40
:100A100003C0DD24D39403C0FF779AE0D92E8091E0
:100A20008100082F10E0087F10702D2D30E080E944
:100A300091E0AC01249FC001259F900D349F900D43
:100A400011248E179F0798F4EF0157E2E131F50763
:100A500010F0C0E1D7E29E0140E050E060E07DE2AE
:100A600081E391E00E944412790101601DC088E297
:100A7000D89E802D1124C82FD0E0CE17DF0708F4B0
:100A8000EF019E0140E050E08AE0D81629F460E4CE
:100A900078E78DE791E004C060EA75E286E290E0D5
:100AA0000E944412790102604AE0D41639F4CE0162
:100AB00005966AE070E00E941D12EB0153E0C83E0B
:100AC000D50711F4B5010FC0BE0180E090E095019B
:100AD00040E050E00E94F21128EE33E040E050E0A8
:100AE0000E946612B901CC2011F4229806C0229A05
:100AF0008FE08C1510F48FE0C82E10926F000093D9
:100B00008100F0928900E092880020918800309165
:100B1000890080E190E08C19910902C036952795F3
:100B20008A95E2F730938B0020938A0070935E01E0
:100B300060935D0186B38FEF86BB81E080936F0089
:100B40007894CDB7DEB7EAE00C94A512CF93DF938B
:100B5000EB018F3F11F0442329F488EE93E0BE01AE
:100B600040E067C0813110F420E005C0282F2051FB
:100B7000203608F02FE5822F6CE00E941112382FEA
:100B8000682F70E084EF9FEF689FF001699FF00D80
:100B9000789FF00D1124E20FF11DEC30F10538F4CF
:100BA000EC5CFF4F0C94B8128CE991E023C080E01C
:100BB00090E020C085EB91E01DC08FEC91E01AC061
:100BC0008AEE91E017C087E092E014C086E292E0DE
:100BD00011C087E492E00EC089E692E00BC08EE877
:100BE00092E008C085EB92E005C08EED92E002C075
:100BF0008AE093E0373071F002C0880F991F6A9540
:100C0000E2F7323020F005966AE070E00BC08050C9
:100C100090480BC026E0880F991F2A95E1F70296AD
:100C200065E070E00E941D12CB01403108F04FE0FA
:100C3000BE01C6DEDF91CF91089530915C01E09155
:100C40005701F0915801332311F0249101C0208104
:100C5000822F81548A3108F4205E203221F43196AB
:100C6000CF01019781F7F0935801E0935701822F4C
:100C70000895CF93DF93E1DF282FC0E0D0E01CC0C0
:100C8000CE0143E0880F991F4A95E1F7CC0FDD1F95
:100C9000C80FD91F822F992787FD9095C80FD91F9C
:100CA000E0978091570190915801019690935801D7
:100CB00080935701C2DF282F822F80538A3000F3A0
:100CC000CE01DF91CF910895A0E0B0E0EAE6F6E032
:100CD0000C94871280902F01B0905A01BB2021F014
:100CE00060915B01662399F4A0905B01009134014F
:100CF00010913501E0903001F0903101C091320146
:100D0000D0913301C0903601D090370103C18FEFED
:100D100070E040E01BDF10925B01C0C114E0812E47
:100D2000BB2404EF11E0B4E0EB2EF12CC0EDD7E0D2
:100D3000A4E09A2EFFE0CF2ED12C7FDF282F8091C8
:100D40005701909158010196909358018093570153
:100D5000263609F498C02736CCF42236A1F1233682
:100D600074F42E3361F12F3334F42132B9F22C3381
:100D700009F006C126C0213609F002C11CC1243683
:100D800009F451C025360CF066C035C02F3609F481
:100D9000BFC0203754F42C3609F4A5C02D3609F411
:100DA000A5C0273609F0ECC086C0243709F4CEC0B0
:100DB000263709F4E2C0223709F0E2C0ADC08394BF
:100DC000BCCF8A94BACFA0925B01B0925A01109323
:100DD000350100933401F0923101E0923001D0935B
:100DE0003301C093320190922F01D0923701C0920B
:100DF00036012BE0F7C0A0925B01B0925A0110932C
:100E0000350100933401F0923101E0923001D0932A
:100E10003301C093320190922F01D0923701C092DA
:100E2000360120E0DFC0A0925B01B0925A0110931E
:100E3000350100933401F0923101E0923001D093FA
:100E40003301C093320190922F01D0923701C092AA
:100E5000360122E0C7C0A0925B01B0925A01109304
:100E6000350100933401F0923101E0923001D093CA
:100E70003301C093320190922F01D0923701C0927A
:100E8000360124E0AFC0A0925B01B0925A011093EA
:100E9000350100933401F0923101E0923001D0939A
:100EA0003301C093320190922F01D0923701C0924A
:100EB000360125E097C0A0925B01B0925A011093D1
:100EC000350100933401F0923101E0923001D0936A
:100ED0003301C093320190922F01D0923701C0921A
:100EE000360127E07FC0C5DE7C0141C0A6DE8C361E
:100EF00011F4BB2403C0AA24BB24B39480915701EE
:100F0000909158010196909358018093570115CF05
:100F1000B0DE882E982C11CFA0925B01B0925A01BE
:100F20001093350100933401F0923101E0923001C9
:100F3000D0933301C093320190922F01D0923701A8
:100F4000C092360120E0FF24F3944DC092DEBC0134
:100F500080EC9DE50E941D12CB01EB01E3E0CC0F7C
:100F6000DD1FEA95E1F7880F991FC80FD91FCE0141
:100F7000B7010E941D128B01E0CE7BDE6C01DDCE3D
:100F8000A0925B01B0925A01109335010093340195
:100F9000F0923101E0923001D0933301C0933201DD
:100FA00090922F01D0923701C092360110925801D1
:100FB0001092570173C0A0925B01B0925A01109336
:100FC000350100933401F0923101E0923001D09369
:100FD0003301C093320190922F01D0923701C09219
:100FE000360129E0FF248CE0889EC0011124E22E06
:100FF000E80E0AC080915701909158010196909394
:10100000580180935701E39418DE8B3299F38332B1
:1010100089F30BC0809157019091580101969093EC
:10102000580180935701EA9408DE8D3299F3C091FC
:101030003401D09135018153883050F40091320150
:101040001091330116DEBC01C8010E941D12EB0194
:101050008E010BC080915701909158010196909399
:10106000580180935701C00FD11F16950795E5DDF4
:101070008E3281F380915A01882339F0CE01969502
:10108000879580935B01C81BD109FF2011F0EE24E6
:10109000EA948E2DBE014091360158DDCDB7DEB702
:1010A000ECE00C94A31210926F009093580180937F
:1010B000570110925C0110925B0106CEF4CF0895A7
:1010C0001F920F920FB60F9211242F933F934F93BD
:1010D0005F936F937F938F939F93AF93BF93EF93A0
:1010E000FF9380915D0190915E01019790935E0165
:1010F00080935D01019609F580918100887F816070
:101100008093810080E29EE4909389008093880020
:1011100010928B0010928A00229881E080932E0119
:1011200010926F008091570190915801892B29F0FE
:1011300080915901882309F4C7DDFF91EF91BF9198
:10114000AF919F918F917F916F915F914F913F915F
:101150002F910F900FBE0F901F90189510926F0057
:1011600080912E01882339F0809157019091580188
:10117000892B09F0A9DD81E080936F0020E0809148
:10118000570190915801892B09F021E0822F089591
:1011900080935901882309F4E1CF0895F9CF089588
:1011A000DDCF08954AB157985A98289A21E030E047
:1011B0005C9AC9016F9364E06A95F1F76F910197AA
:1011C000C9F789B15C98F9016F9364E06A95F1F70A
:1011D0006F913197C9F75C9AF9016F9364E06A9552
:1011E000F1F76F913197C9F75C9887FDE1CF4AB964
:1011F000089565B190E0AC0141705070440F551FE7
:101200009C012670307053E0220F331F5A95E1F78E
:10121000422B6D7C462B45B92BB18870907034E021
:10122000880F991F3A95E1F72F77282B2BB95C9AF5
:1012300081E090E0FC016F9364E06A95F1F76F91B3
:101240003197C9F75C986F9364E06A95F1F76F91F5
:101250000197C9F708958AB184618AB9209A84E117
:1012600090E002D780E350D086E090E0FDD680E3A6
:101270004BD082E090E0F8D680E346D082E090E068
:10128000F3D680E241D082E090E0EED688E23CD016
:1012900088E03AD081E038D086E036D08CE034C0A7
:1012A00080916101882321F481E080936101D3CF93
:1012B0000895CF92DF92EF92FF920F931F93082F22
:1012C000162FEEDF6FDFC4B0D5B0EAB0FBB05A988E
:1012D00028988BB1110F110F812B8BB984B18263C8
:1012E00084B9579A802F82958F7083DF802F8F70FB
:1012F00080DFFBB8EAB8D5B8C4B81F910F91FF9052
:10130000EF90DF90CF90089560E0D3CFA2E0B0E0FF
:10131000ECE8F9E00C948F1290E8998390EC9A83B2
:10132000082F883008F007E0162F611111E0FE0148
:10133000E10FF11D8181800FE7DF009360011093C1
:101340005F012296E4E00C94AB12E0CF089581E0B7
:10135000DBDFE8E3F1E080E2819391E0E034F9073C
:10136000D9F71092600110925F010895F0CF0895AF
:101370008A3010F4805D01C0895C61E09ACF1F93D0
:10138000182F82958F70F4DF812F8F70F1DF1F91FE
:101390000895F5CF0895CF93DF93EC0103C0219614
:1013A00061E087DF88818823D1F7DF91CF910895AD
:1013B000F2CF089561E07DCFFDCF0895382F8830BA
:1013C00010F528B181E090E0032E02C0880F991F2C
:1013D0000A94E2F78095282328B927B1822387B998
:1013E00087E880937A0080917C00807F80937C00E6
:1013F00080917C003F70832B80937C0080917A00E9
:10140000806480937A000895A0E0B0E0EAE0FAE01A
:101410000C948B12EB01C7B0D8B0D0DF9E01EE2444
:10142000FF24870180917A00806480937A00809104
:101430007A0086FDFCCF80917C0085FF2DC08091D5
:10144000790090E0A0E0B0E0E80EF91E0A1F1B1F33
:101450002150304039F7D8B8C7B8CE019695879556
:10146000C034D10538F48E0D9F1D6C2F70E0E5D788
:101470009B010CC0A0E0B0E0E80EF91E0A1F1B1F84
:101480009E0140E050E0C801B701FED7C901CDB7C9
:10149000DEB7E8E00C94A712809178009091790073
:1014A000D1CF87E064E170E0AFCFFBCF089586E055
:1014B0006AE070E0A9DFA0E0B0E0BC01CD012CE45F
:1014C0003DE140E050E08ED72FEF33E040E050E0C8
:1014D000FDD7C9010895EBCF0895089582E691E004
:1014E00059C49C01462F82E691E0B90120E0C7C3B0
:1014F0009C01462F82E691E0B90109C3682F82E67C
:1015000091E053C59C01462F82E691E0B90184C267
:101510000F93DF93CF9300D000D00F92CDB7DEB7FB
:101520009C01DE011196E0E4F1E085E001900D926E
:101530008150E1F782E691E0BE016F5F7F4F45E0A9
:1015400003E1BFD082E691E061D0D4D50F900F9037
:101550000F900F900F90CF91DF910F910895D8CFFA
:10156000089582E691E067C0FC0111821082138227
:1015700012821582148217821682693018F088E070
:10158000808701C06087208B483078F481E090E04C
:1015900002C0880F991F4A95E2F781878BE290E09D
:1015A000938782878AE290E029C04E3098F4242FF6
:1015B00030E02850304081E090E002C0880F991F51
:1015C0002A95E2F7818785E290E09387828784E21B
:1015D00090E014C04431A8F4242F30E02E50304065
:1015E00081E090E002C0880F991F2A95E2F7818779
:1015F00088E290E09387828787E290E095878487EE
:10160000089515861486138612860895CF93DF9366
:10161000EC01EC85FD85309759F080819985892B07
:101620008083EA85FB8590818985809589238083E5
:10163000DF91CF910895CF93DF93DC0120E03AC092
:10164000ED91FC911197309759F0822F90E0880F1F
:10165000991FE80FF91FED018E859F859183808387
:10166000ED01EC81FD81309751F0822F90E0880FE1
:10167000991FE80FF91F8E859F8591838083ED0167
:10168000EA81FB81309741F0822F90E0880F991F0B
:10169000E80FF91F11821082ED01EE81FF81309772
:1016A00041F0822F90E0880F991FE80FF91F1182F7
:1016B00010822F5FFD018085281710F2DF91CF91F6
:1016C0000895A0E0B0E0E6E6FBE025C7EC016B0181
:1016D0007901642F402F20E047DF19A61AA61BA628
:1016E000FF86EE8630E041E050E096E2E92EF12CF4
:1016F00003E210E069E270E052C0A32FB0E0F6010F
:10170000EA0FFB1F80818830B0F4FA0102C0EE0FAF
:10171000FF1F8A95E2F7CF01FE01EA0FFB1F818BC5
:101720002BA5282B2BA7AA0FBB1FAC0FBD1FFD019C
:10173000728F618F33C08E30C0F490E00897FA0149
:1017400002C0EE0FFF1F8A95E2F7CF01FE01EA0FFC
:10175000FB1F818B29A5282B29A7AA0FBB1FAC0F24
:10176000BD1FFD01128F018F19C08431B8F490E0C4
:101770000E97FA0102C0EE0FFF1F8A95E2F7CF0124
:10178000FE01EA0FFB1F818B2AA5282B2AA7AA0F8F
:10179000BB1FAC0FBD1FFD01F28EE18E3F5F888540
:1017A000381708F4AACFCDB7DEB7E8E0D0C6A0E07E
:1017B000B0E0ECEDFBE0ABC6EC015B0149A5AAA5EE
:1017C0008BA490E009C0E92FF0E0EE0FFF1FEA0DB7
:1017D000FB1D118210829F5F88859817A0F384B14A
:1017E00039A5832B84B987B12AA5822B87B98AB101
:1017F0009BA5892B8AB985B1832B85B988B1822BAA
:1018000088B98BB1892B8BB9EAE0F0E06F9364E083
:101810006A95F1F76F913197C9F784B130958323B9
:1018200084B987B12095822387B98AB1909589239D
:101830008AB985B1382335B988B1282328B98BB145
:1018400098239BB99090B000C090B1008091B000F7
:1018500083608093B00082E08093B100D090B200AA
:1018600060E070E03AC05091B2005D19650F711DE3
:10187000E3B0E41609F04FC0F6B0FA1609F04BC019
:1018800089B1881509F047C025C0A42FB0E09D019B
:10189000220F331F8501020F131FF80180819181F0
:1018A000892BA1F42C0F3D1FF901818D928DFC0134
:1018B000208130E0AC0FBD1FFD01818990E028231D
:1018C0003923232B19F4F801718360834F5F8885D6
:1018D0004817D8F2D50E4E2DAF2D8E859F856817EF
:1018E000790708F29092B000C092B10020E00FC0DA
:1018F000E22FF0E0EE0FFF1FEA0DFB1D80819181CA
:10190000892B21F48E859F85918380832F5F888525
:10191000281770F305C0E3B0F6B089B040E0D7CF28
:10192000CDB7DEB7ECE00FC6A0E0B0E0E9E9FCE03F
:10193000F2C5EC018B01D0907C00E0907A00C7B03A
:10194000F8B080917A0086FDFCCF90E009C0E92FC5
:10195000F0E0EE0FFF1FE00FF11F118210829F5F7A
:1019600088859817A0F397B18A8D8095982397B9A9
:1019700098B1892388B987E880937A0050E024C021
:10198000FE01E40FF11D818980937C0080917A0033
:10199000806480937A0080917A0086FDFCCFE42FEA
:1019A000F0E0EE0FFF1FE00FF11F20917800309163
:1019B000790080819181820F931F918380834F5F93
:1019C00088854817E8F25F5F898D581710F040E06E
:1019D00016C040E0F5CFE42FF0E0EE0FFF1FE00F60
:1019E000F11F698D862F90E0959587952081318133
:1019F000820F931F70E021D5718360834F5F8885CC
:101A0000481748F3D0927C00E0927A00F8B8C7B843
:101A1000CDB7DEB7E8E09BC5A0E1B0E0E1E1FDE0D5
:101A200079C58C017B01D42E842F8150823078F4CB
:101A3000F801A485B585109751F08C919185892B7B
:101A40008C93A285B3858C919185892B8C93F80119
:101A500080898823E1F4C02EB12EC801B701A7DE2A
:101A6000F801A485B585109759F08C919185892B43
:101A70008C93A285B3859C918185809589238C93D5
:101A8000F2E0DF1609F040C08C2D9B2D17C0C80175
:101A9000B7014ADFF801A485B585109759F08C91FC
:101AA0009185892B8C93A285B3859C9181858095A6
:101AB00089238C93F2E0DF1639F5C801BE016F5F10
:101AC0007F4F75DE40E0BE016F5F7F4F19C0842FEE
:101AD00090E0880F991FD701A80FB91F860F971F95
:101AE000F80126853785FC0180819181281B390BFF
:101AF0008D919C911197820F931F8D939C934F5FB3
:101B0000F8018085481718F36096E9E01FC5A0E04A
:101B1000B0E0ECE8FDE0FCC4EC01162F072F942E9A
:101B200022E0421711F0442351F48C819D81892BCE
:101B300009F4A1C08E819F81892B09F49CC0892D55
:101B40008150823050F488819981892B09F493C0A7
:101B50008A819B81892B09F48EC0CE01612F702F61
:101B6000492D5ADF812F902F9C015901CC24DD246F
:101B700000E010E07AC081E0981669F4EA81FB8108
:101B8000E00FF11F20813181E881F981E00FF11F21
:101B9000408151813DC0AC81BD81992059F4EE81D5
:101BA000FF81E00FF11F20813181A00FB11F4D9106
:101BB0005C912EC0A00FB11F8D919C91E881F9819D
:101BC000E00FF11F20813181EE85FF858217930799
:101BD00010F4AF0105C0A9014E0F5F1F481B590B40
:101BE000EE81FF81E00FF11F60817181EA81FB814D
:101BF000E00FF11F80819181EE85FF8568177907DD
:101C000010F49F0105C09C012E0F3F1F261B370BB0
:101C10007901E41AF50AF1F0F5016081718180E043
:101C200090E09A0140E050E0621B730B840B950B2F
:101C300028EE33E040E050E0D5D3970140E050E09B
:101C400045D4C901F3E0293E3F0714F088EE93E044
:101C500097FF02C080E090E0F501819391935F01CE
:101C60000894C11CD11C0E5F1F4F888590E0C816D8
:101C7000D9060CF480CFCDB7DEB7EBE065C4A4E0A5
:101C8000B0E0E4E4FEE03DC48C01F62EE72E2A83AA
:101C90003EDFF801F085F9832F2D3E2DC9018C011F
:101CA000552444246624772443011C821B82AA24E1
:101CB000BB246501F8EE2F2EF3E03F2E31C0D80192
:101CC000ED90FC90BA81BB2321F0F101EE19FF09E0
:101CD0007F01F9ECEF16F10414F04424439423E35C
:101CE000E216F10494F0B701882777FD8095982FCC
:101CF000A601950177D3660E771E881E991E8B81EB
:101D00009C818E0D9F1D9C838B83539488EE93E062
:101D1000A0E0B0E0A80EB91ECA1EDB1E0E5F1F4F6A
:101D20009981591660F2442021F5692F70E084EF03
:101D300091E0DC016A9FC0016B9F900D7A9F900D2E
:101D40001124845F914020918E0130918F012817DA
:101D500039071CF440E050E019C088EE93E0689F1A
:101D6000A001699F500D789F500D1124485E53408B
:101D70000DC0EB81FC819F0140E050E0C401B30144
:101D800083D3A90130938F0120938E01CA01249639
:101D9000E2E1D3C3CF93DF93EC018A819B8100976B
:101DA00011F00E941A048E819F81009711F00E9409
:101DB0001A0488819981009711F00E941A048C817D
:101DC0009D81009711F00E941A04DF91CF91089530
:101DD000A3E3B0E0EDEEFEE094C37C015B016A0199
:101DE00029ABDA018D919C91892B11F5F701808542
:101DF00090E0880F991F0E946E03D6018D939C93EB
:101E0000009709F4CFC020E030E00CC0C901880F72
:101E1000991FD601ED91FC91E80FF91F11821082F4
:101E20002F5F3F4FF701808590E02817390774F343
:101E3000D5018D919C91892B89F000E010E03E0145
:101E40000894611C711C91E2292E312C2C0E3D1E30
:101E500081E1482E512C4C0E5D1E27C0F701808574
:101E600090E0880F991F0E946E03D5018D939C937B
:101E7000009709F497C020E030E010C0C901880F36
:101E8000991FF50140815181480F591FF70186853F
:101E90009785DA018D939C932F5F3F4FF7018085E3
:101EA00090E02817390754F3C8CFC701B30149A9F7
:101EB000B3DDF7018085882E9924A101F3015BAA87
:101EC0004AAA60E070E02CC00115110549F0AAA9EA
:101ED000BBA92D913C91808191812817390748F445
:101EE00080819181AAA9BBA98D939C9301151105AD
:101EF00041F0DA012D913C91808191818217930705
:101F000028F480819181DA018D939C936F5F7F4FDC
:101F10004E5F5F4F32968AA99BA902969BAB8AAB14
:101F2000681579058CF20F5F1F4F0A30110509F013
:101F3000BCCF40E050E020E030E08E010F5D1F4F4D
:101F4000BE016F5E7F4F28C0F801E20FF31F808053
:101F50009180F601A081B181A20FB31F8D919C9158
:101F600011978815990510F48D929C92FB01E20F50
:101F7000F31F80809180F501A081B181A20FB31F72
:101F80008D919C9111978816990610F48D929C92D0
:101F90004F5F5F4F2E5F3F4FF701808590E04817FE
:101FA000590794F2E396E2E1C8C21F93CF93DF93FF
:101FB000EC01162F862F8150823038F4AE014E5F2F
:101FC0005F4FCE01BE0121E003DF123011F011237B
:101FD00041F4AE014A5F5F4FCE012496BE0120E07E
:101FE000F7DEDF91CF911F9108951F920F920FB6E8
:101FF0000F9211242F933F934F938F939F93AF93FF
:10200000BF932091960130919701C90180509C4F58
:10201000909397018093960180519742C8F08091E8
:10202000920190919301A0919401B0919501019634
:10203000A11DB11D8093920190939301A0939401EF
:10204000B09395012051334230939701209396012C
:10205000BF91AF919F918F914F913F912F910F9091
:102060000FBE0F901F90189528EE33E009C0F901BC
:102070006F9364E06A95F1F76F913197C9F7019713
:102080000097A9F70895A0E7B0E08C918E7F8C931C
:10209000E0EBF0E0808183608083E1EBF0E0808121
:1020A000807F8083808182608083B89A8C918160F8
:1020B0008C937894089580919801882321F481E08D
:1020C00080939801E0CF0895F6DFE0E7F0E08081AB
:1020D0008E7F8083209192013091930140919401F1
:1020E00050919501808181608083B901CA01089572
:1020F000EBCF0895E0DFE0E7F0E080818E7F808322
:1021000010929201109293011092940110929501F5
:102110001092970110929601B89A80818160808315
:102120000895E8CF08959093A1018093A0011092A3
:102130009A0160939C0181E080939D0108958091B4
:102140009A01089588E18093C1002091A201222381
:1021500029F48091C10080688093C10080919E0124
:1021600090919F01892B79F09091990180919B0129
:10217000981748F4222339F48091C100806280933B
:10218000C100789408958091C1008F7DF8CF80932D
:10219000A201D8CFEF92FF920F931F937B018C0186
:1021A000D1DF60EA75E286E290E06E197F09800B6C
:1021B000910B33E0660F771F881F991F3A95D1F76F
:1021C00024E0EE0CFF1C001F111F2A95D1F7A80177
:1021D00097015AD13093C5002093C4001F910F91ED
:1021E000FF90EF900895D6CF0895F894E0919E0166
:1021F000F0919F01309739F18091990190919B0165
:10220000891708F58091C00085FF1DC08091990154
:10221000891760F480919901E80FF11D8081809306
:10222000C600809199018F5F8093990180919901F7
:102230008917B8F58091A201882399F58091C10092
:1022400080628093C100E091A001F091A1013097DC
:1022500031F180919A0190919C01891700F580914C
:10226000C00087FF1CC02091C60080919A01891789
:1022700050F480919A01E80FF11D208380919A011A
:102280008F5F80939A0190919A0180919C01981799
:1022900031F480919D01882311F010929A01789475
:1022A00008958091C1008F7DCCCF9FCF08951F925C
:1022B0000F920FB60F9211242F938F939F93EF934A
:1022C000FF932091C600E091A001F091A101309709
:1022D00081F090919A0180919C01981750F480911F
:1022E0009A01E80FF11D208380919A018F5F8093FE
:1022F0009A0190919A0180919C01981731F48091F4
:102300009D01882311F010929A01FF91EF919F9106
:102310008F912F910F900FBE0F901F901895909353
:102320009F0180939E011092990160939B01892BDC
:10233000A1F080919901861780F48091A2018823F1
:1023400061F48091C10080620BC04FDF90919901D0
:1023500080919B019817C9F708958091C1008F7DE6
:102360008093C100F3CFDBCF08951F920F920FB679
:102370000F9211248F939F93EF93FF93E0919E010F
:10238000F0919F013097D9F08091990190919B0134
:10239000891718F580919901E80FF11D80818093CC
:1023A000C600809199018F5F8093990116C080913A
:1023B000A201882321F48091C100806203C0809132
:1023C000C1008F7D8093C100FF91EF919F918F910C
:1023D0000F900FBE0F901F9018958091990189174B
:1023E00070F7E5CF629FD001739FF001829FE00DEF
:1023F000F11D649FE00DF11D929FF00D839FF00D84
:10240000749FF00D659FF00D9927729FB00DE11D2F
:10241000F91F639FB00DE11DF91FBD01CF0111240C
:102420000895991B79E004C0991F961708F0961B30
:10243000881F7A95C9F780950895AA1BBB1B51E1A7
:1024400007C0AA1FBB1FA617B70710F0A61BB70B24
:10245000881F991F5A95A9F780959095BC01CD01C9
:10246000089597FB092E07260AD077FD04D0E5DFF3
:1024700006D000201AF4709561957F4F0895F6F705
:10248000909581959F4F0895A1E21A2EAA1BBB1B20
:10249000FD010DC0AA1FBB1FEE1FFF1FA217B30730
:1024A000E407F50720F0A21BB30BE40BF50B661F46
:1024B000771F881F991F1A9469F76095709580950A
:1024C00090959B01AC01BD01CF01089597FB092EAA
:1024D00005260ED057FD04D0D7DF0AD0001C38F4F3
:1024E00050954095309521953F4F4F4F5F4F089540
:1024F000F6F790958095709561957F4F8F4F9F4F20
:1025000008952F923F924F925F926F927F928F9297
:102510009F92AF92BF92CF92DF92EF92FF920F9372
:102520001F93CF93DF93CDB7DEB7CA1BDB0B0FB67C
:10253000F894DEBF0FBECDBF09942A883988488839
:102540005F846E847D848C849B84AA84B984C884CF
:10255000DF80EE80FD800C811B81AA81B981CE0FC6
:10256000D11D0FB6F894DEBF0FBECDBFED010895AB
:10257000EE0FFF1F0590F491E02D099410E0C2E8E2
:10258000D0E003C0FE01F6DF2296C438D107D1F7B0
:04259000F894FFCFED
:102594006F336300426164206461746100630033DB
:1025A4007069312E3000536C61766500426164209D
:1025B400636D64006F376C313663726300FF01042E
:1025C4000400D007F4010F00202020202020202028
:0C25D4000E0F1011122000790200000010
:00000001FF
