:100000001FC1000038C1000036C1000034C100002B
:1000100032C1000030C100002EC100002CC1000020
:100020002AC10000C9C6000026C1000024C100008A
:1000300022C1000010C500001EC100001CC100004C
:100040001AC1000018C1000016C1000014C1000050
:1000500012C1000010C100000EC100000CC1000060
:100060000AC1000008C1000095029B029E02A10285
:10007000A402A702AA02AD02B002B302B602B902FC
:1000800021204F35204C3136206167616661656102
:10009000206461632B61646165612066613C61611C
:1000A0003C62616323612064616323616461656113
:1000B00020664F36206463643C622D643C61643C7E
:1000C0006720643C662B643C67643C61643C622D41
:1000D00020643C64643C65643C662B643C6720643B
:1000E0003C662B643C67643C61644C38204D532073
:1000F0003C622D643C622D64204D4C652D3C67654F
:100100002D3C67204D53633C61633C61204D4C2086
:10011000643C66643C66204F35204D5320622D6759
:10012000622D674D4C203E6323653E632365204D61
:10013000532061666166204D4C206763236763230B
:10014000204D532066646664204D4C20653C622D32
:10015000653C622D4F36204C3136726167616661B5
:100160006561206461632361646165612066613C4F
:1001700061613C6261632361206461632361646146
:1001800065612066616561646163613C622D6163E4
:100190006164673C622D67206567646763673C62E2
:1001A0002D67203C61673C622D6763663C61662079
:1001B000646663663C622D663C61663C67663C61D2
:1001C000663C622D653C6765206323653C622D6556
:1001D0003C61653C6765203C66653C67653C6164E5
:1001E0003C66644F3520653E65653E65663E6466E7
:1001F0003E6420622D3E6323622D3E6323613E6494
:10020000663E6420653E65653E65663E64663E64A6
:10021000653E643E63233E64623E643E6323622027
:100220003E6323616761656766652066204F3620FF
:1002300064632364666463233C62206323340000A8
:1002400011241FBECFEFD4E0DEBFCDBF11E0A0E090
:10025000B1E0EAECFFE002C005900D92A836B107CC
:10026000D9F711E0A8E6B1E001C01D92AC37B107A3
:10027000E1F73AD0A8C6C4CE1F9382E3A8D4182FC2
:100280008AD5103271F480E890E0D6D380E091E016
:1002900091D580E090E061E070E06CD587E091E07E
:1002A00020C0103171F480E191E0D3D386E291E077
:1002B00081D580E090E061E070E05CD58EE291E075
:1002C00010C0123079F41DD0882321F028D085E3A6
:1002D00091E007C085E468EC70E04FE06ED18DE3FB
:1002E00091E068D51F91089585E491E063D580E0A1
:1002F00090E061E070E03ED58DE491E05BD5BCDF3D
:10030000FECF80915601882339F020E08091690169
:1003100090916A01892B09F021E0822F08951092B3
:100320006F00E1E8F0E08081887F8160808380E277
:100330009EE4909389008093880010928B00109225
:100340008A00229881E08093560110926A011092EF
:1003500069010895A0E0B0E0EFEAF1E0FFC5FC011B
:100360005B01C42E809168018823C1F481E08093F1
:10037000680110926F00229883E28093800089E1E7
:10038000809381001092820080E29EE49093890025
:100390008093880010928B0010928A001092560170
:1003A000F7FD03C0DD24D39403C0FF779AE0D92E74
:1003B00080918100082F10E0087F10702D2D30E013
:1003C00080E991E0AC01249FC001259F900D349FEE
:1003D000900D11248E179F0790F4EF0157E2E13141
:1003E000F50710F0C0E1D7E29E0140E050E060E088
:1003F0007DE281E391E06DD5790101601CC088E266
:10040000D89E802D1124C82FD0E0CE17DF0708F426
:10041000EF019E0140E050E08AE0D81629F460E444
:1004200078E78DE791E004C060EA75E286E290E04B
:1004300050D5790102604AE0D41631F4CE01059618
:100440006AE070E032D5EB0153E0C83ED50711F405
:10045000B5010DC0BE0180E090E0950140E050E0A4
:10046000F9D428EE33E040E050E055D5B901CC2076
:1004700011F4229806C0229A8FE08C1510F48FE0B8
:10048000C82E10926F0000938100F0928900E092D4
:100490008800209188003091890080E190E08C19DB
:1004A000910902C0369527958A95E2F730938B0023
:1004B00020938A007093700160936F0186B38FEF71
:1004C00086BB81E080936F007894CDB7DEB7EAE019
:1004D00061C5CF93DF93EB018F3F11F0442329F4E3
:1004E00088EE93E0BE0140E064C0813110F420E06A
:1004F00005C0282F2051203608F02FE5822F6CE010
:10050000C8D4382F682F70E084EF9FEF689FF00108
:10051000699FF00D789FF00D1124E20FF11DEC3072
:10052000F10530F4EC5CFF4F48C58CE991E023C045
:1005300080E090E020C085EB91E01DC08FEC91E061
:100540001AC08AEE91E017C087E092E014C086E2FC
:1005500092E011C087E492E00EC089E692E00BC001
:100560008EE892E008C085EB92E005C08EED92E047
:1005700002C08AE093E0373071F002C0880F991F03
:100580006A95E2F7323020F005966AE070E00BC021
:10059000805090480AC026E0880F991F2A95E1F7FD
:1005A000029665E070E081D4CB01403108F04FE065
:1005B000BE01D0DEDF91CF9108958BCF08953091A9
:1005C0006E01E0916901F0916A01332311F02491E9
:1005D00001C02081822F81548A3108F4205E2032AC
:1005E00021F43196CF01019781F7F0936A01E093EE
:1005F0006901822F0895CF93DF93E1DF282FC0E0B8
:10060000D0E01CC0CE0143E0880F991F4A95E1F766
:10061000CC0FDD1FC80FD91F822F992787FD90951A
:10062000C80FD91FE0978091690190916A010196E6
:1006300090936A0180936901C2DF282F822F805333
:100640008A3000F3CE01DF91CF910895A0E0B0E0B1
:10065000EBE2F3E081C480905701B0906C01BB20C5
:1006600021F060916D01662399F4A0906D010091D5
:100670005C0110915D01E0905801F0905901C0912A
:100680005A01D0915B01C0905E01D0905F0103C11F
:100690008FEF70E040E01DDF10926D01BDC114E0EE
:1006A000812EBB2404EF11E0B4E0EB2EF12CC0ED61
:1006B000D7E0A4E09A2EFFE0CF2ED12C80DF282FA8
:1006C0008091690190916A01019690936A018093EB
:1006D0006901263609F498C02736CCF42236A1F1F8
:1006E000233674F42E3361F12F3334F42132B9F20E
:1006F0002C3309F004C126C0213609F000C11AC10B
:10070000243609F451C025360CF066C035C02F36AA
:1007100009F4BFC0203754F42C3609F4A5C02D3697
:1007200009F4A5C0273609F0EAC086C0243709F4C9
:10073000CEC0263709F4E0C0223709F0E0C0ADC0D2
:100740008394BCCF8A94BACFA0926D01B0926C0111
:1007500010935D0100935C01F0925901E092580101
:10076000D0935B01C0935A0190925701D0925F01E0
:10077000C0925E012BE0F5C0A0926D01B0926C01B9
:1007800010935D0100935C01F0925901E0925801D1
:10079000D0935B01C0935A0190925701D0925F01B0
:1007A000C0925E0120E0DDC0A0926D01B0926C01AC
:1007B00010935D0100935C01F0925901E0925801A1
:1007C000D0935B01C0935A0190925701D0925F0180
:1007D000C0925E0122E0C5C0A0926D01B0926C0192
:1007E00010935D0100935C01F0925901E092580171
:1007F000D0935B01C0935A0190925701D0925F0150
:10080000C0925E0124E0ADC0A0926D01B0926C0177
:1008100010935D0100935C01F0925901E092580140
:10082000D0935B01C0935A0190925701D0925F011F
:10083000C0925E0125E095C0A0926D01B0926C015E
:1008400010935D0100935C01F0925901E092580110
:10085000D0935B01C0935A0190925701D0925F01EF
:10086000C0925E0127E07DC0C6DE7C0140C0A7DEED
:100870008C3611F4BB2403C0AA24BB24B39480910A
:10088000690190916A01019690936A0180936901D0
:1008900015CFB1DE882E982C11CFA0926D01B092A9
:1008A0006C0110935D0100935C01F0925901E0929C
:1008B0005801D0935B01C0935A0190925701D09296
:1008C0005F01C0925E0120E0FF24F3944BC093DEF1
:1008D000BC0180EC9DE5E9D2CB01EB01E3E0CC0F5C
:1008E000DD1FEA95E1F7880F991FC80FD91FCE01C8
:1008F000B701DBD28B01E2CE7EDE6C01DFCEA092AF
:100900006D01B0926C0110935D0100935C01F09257
:100910005901E0925801D0935B01C0935A01909223
:100920005701D0925F01C0925E0110926A0110924D
:10093000690172C0A0926D01B0926C0110935D01CB
:1009400000935C01F0925901E0925801D0935B0151
:10095000C0935A0190925701D0925F01C0925E01FC
:1009600029E0FF248CE0889EC0011124E22EE80ECD
:100970000AC08091690190916A01019690936A0181
:1009800080936901E3941BDE8B3299F3833289F300
:100990000BC08091690190916A01019690936A0160
:1009A00080936901EA940BDE8D3299F3C0915C016A
:1009B000D0915D018153883048F400915A01109123
:1009C0005B0119DEBC01C80170D2EB018E010BC0C6
:1009D0008091690190916A01019690936A018093D8
:1009E0006901C00FD11F16950795E9DD8E3281F39D
:1009F00080916C01882339F0CE019695879580937C
:100A00006D01C81BD109FF2011F0EE24EA948E2D50
:100A1000BE0140915E015DDDCDB7DEB7ECE0B8C24E
:100A200010926F0090936A018093690181E0809336
:100A30006E0110926D010ACEF3CF089510926F00EF
:100A400090936A018093690110926E0110926D017A
:100A5000FDCDF4CF08951F920F920FB60F9211247F
:100A60002F933F934F935F936F937F938F939F93B6
:100A7000AF93BF93EF93FF9380916F0190917001BB
:100A800001979093700180936F01019609F5809111
:100A90008100887F81608093810080E29EE4909352
:100AA00089008093880010928B0010928A0022980F
:100AB00081E08093560110926F00809169019091BE
:100AC0006A01892B29F080916B01882309F4BEDD2E
:100AD000FF91EF91BF91AF919F918F917F916F9116
:100AE0005F914F913F912F910F900FBE0F901F90EC
:100AF00018951F93CF93DF93182F8091710188234E
:100B000091F481E08093710184B18D7C84B985B1C9
:100B1000826385B981E090E06F9364E06A95F1F7B4
:100B20006F910197C9F7C12FD0E083B190E08C237A
:100B30009D23892BD1F38AE090E07DD183B190E0B1
:100B40008C239D23892B89F383B18123DF91CF915E
:100B50001F9108951F93CF93DF93182F80917101F8
:100B6000882391F481E08093710184B18D7C84B9F4
:100B700085B1826385B981E090E06F9364E06A9506
:100B8000F1F76F910197C9F7C12FD0E083B190E0E1
:100B9000809590958C239D23892BC1F38AE090E06A
:100BA0004AD183B190E0809590958C239D23892B29
:100BB00069F383B180958123DF91CF911F910895CF
:100BC0001F93C8DF182F95DF812F1F910895F8CF4D
:100BD00008954AB157985A98289A21E030E05C9AD3
:100BE000C9016F9364E06A95F1F76F910197C9F7B6
:100BF00089B15C98F9016F9364E06A95F1F76F91A0
:100C00003197C9F75C9AF9016F9364E06A95F1F73F
:100C10006F913197C9F75C9887FDE1CF4AB9089584
:100C200065B190E0AC0141705070440F551F9C01BC
:100C30002670307053E0220F331F5A95E1F7422B94
:100C40006D7C462B45B92BB18870907034E0880FCD
:100C5000991F3A95E1F72F77282B2BB95C9A81E001
:100C600090E0FC016F9364E06A95F1F76F91319722
:100C7000C9F75C986F9364E06A95F1F76F910197FB
:100C8000C9F708958AB184618AB9209A84E190E015
:100C9000D2D080E350D086E090E0CDD080E34BD03E
:100CA00082E090E0C8D080E346D082E090E0C3D0FC
:100CB00080E241D082E090E0BED088E23CD088E083
:100CC0003AD081E038D086E036D08CE034C08091D4
:100CD0007401882321F481E080937401D3CF0895B7
:100CE000CF92DF92EF92FF920F931F93082F162F50
:100CF000EEDF6FDFC4B0D5B0EAB0FBB05A982898E9
:100D00008BB1110F110F812B8BB984B1826384B920
:100D1000579A802F82958F7083DF802F8F7080DFAE
:100D2000FBB8EAB8D5B8C4B81F910F91FF90EF9007
:100D3000DF90CF90089560E0D3CFA2E0B0E0E2EA88
:100D4000F6E012C190E8998390EC9A83082F8830DE
:100D500008F007E0162F611111E0FE01E10FF11D0F
:100D60008181800FE8DF0093730110937201229656
:100D7000E4E016C1E2CF089581E0DDDFE0E6F1E0D6
:100D800080E2819391E0E836F907D9F71092730178
:100D9000109272010895F0CF0895CF93DF93EC0184
:100DA00003C0219661E09CDF88818823D1F7DF9121
:100DB000CF910895F2CF08951F920F920FB60F9220
:100DC00011242F933F934F938F939F93AF93BF9390
:100DD0002091790130917A01C90180509C4F909304
:100DE0007A018093790180519742C8F08091750112
:100DF00090917601A0917701B09178010196A11DA3
:100E0000B11D8093750190937601A0937701B09303
:100E100078012051334230937A0120937901BF91B8
:100E2000AF919F918F914F913F912F910F900FBE56
:100E30000F901F90189528EE33E009C0F9016F93C9
:100E400064E06A95F1F76F913197C9F701970097C0
:100E5000A9F70895629FD001739FF001829FE00D72
:100E6000F11D649FE00DF11D929FF00D839FF00D29
:100E7000749FF00D659FF00D9927729FB00DE11DD5
:100E8000F91F639FB00DE11DF91FBD01CF011124B2
:100E90000895991B79E004C0991F961708F0961BD6
:100EA000881F7A95C9F780950895AA1BBB1B51E14D
:100EB00007C0AA1FBB1FA617B70710F0A61BB70BCA
:100EC000881F991F5A95A9F780959095BC01CD016F
:100ED0000895A1E21A2EAA1BBB1BFD010DC0AA1F7B
:100EE000BB1FEE1FFF1FA217B307E407F50720F093
:100EF000A21BB30BE40BF50B661F771F881F991F0E
:100F00001A9469F760957095809590959B01AC0156
:100F1000BD01CF01089597FB092E05260ED057FD80
:100F200004D0D7DF0AD0001C38F450954095309596
:100F300021953F4F4F4F5F4F0895F6F7909580955D
:100F4000709561957F4F8F4F9F4F08952F923F92DD
:100F50004F925F926F927F928F929F92AF92BF92C9
:100F6000CF92DF92EF92FF920F931F93CF93DF9375
:100F7000CDB7DEB7CA1BDB0B0FB6F894DEBF0FBED2
:100F8000CDBF09942A88398848885F846E847D841F
:100F90008C849B84AA84B984C884DF80EE80FD8021
:100FA0000C811B81AA81B981CE0FD11D0FB6F89497
:100FB000DEBF0FBECDBFED010895EE0FFF1F059000
:0A0FC000F491E02D0994F894FFCF9E
:100FCA0046756775652100666C617368202D3E0061
:100FDA002120563820636465666761623E636261F8
:100FEA0067666564630043204D616A6F720052410F
:100FFA004D202D3E0073746F70706564006E6F74BF
:10100A006520413500507265737320610062757402
:10101A00746F6E2E2E0001040400D007F4010F0035
:08102A002020202020202020BE
:00000001FF
