:100000003FC0000058C0000056C0000054C00000AF
:1000100052C0000050C000004EC000004CC00000A4
:100020004AC0000020C6000046C0000044C00000D6
:1000300042C0000017C400003EC000003CC00000E9
:100040003AC0000038C0000036C0000034C00000D4
:1000500032C0000030C000002EC000002CC00000E4
:100060002AC0000028C00000B701BD01C001C301C3
:10007000C601C901CC01CF01D201D501D801DB01F4
:1000800011241FBECFEFD4E0DEBFCDBF12E0A0E051
:10009000B1E0E8E7FEE002C005900D92A233B1079F
:1000A000D9F712E0A2E3B2E001C01D92A734B10774
:1000B000E1F702D0DFC6A4CF1F931092460280E082
:1000C00091E0CFD51FE5809146028F3558F53BD0A2
:1000D000882341F5A0914602B0E0FD01EE0FFF1F1D
:1000E000E759FE4F60817181A65FBE4F8C914FE052
:1000F00086D180E090E061E070E021D5E091460299
:10010000F0E0E65FFE4F60816F3F21F070E080E03D
:1001100090E098D587E091E0A4D5809146028F5F6A
:100120008093460280E2ECD3882369F21AD0809152
:1001300046028F3518F41093460202C01092460210
:1001400080E22AD4C0CF80912702882339F020E0B2
:100150008091330290913402892B09F021E0822FA3
:10016000089510926F00E1E8F0E08081887F81605F
:10017000808380E29EE490938900809388001092AF
:100180008B0010928A00229881E0809327021092BF
:100190003402109233020895A0E0B0E0E1EDF0E007
:1001A00034C6FC015B01C42E809132028823C1F465
:1001B00081E08093320210926F00229883E2809354
:1001C000800089E1809381001092820080E29EE4A9
:1001D000909389008093880010928B0010928A007F
:1001E00010922702F7FD03C0DD24D39403C0FF77EC
:1001F0009AE0D92E80918100082F10E0087F1070BE
:100200002D2D30E080E991E0AC01249FC001259FB5
:10021000900D349F900D11248E179F0790F4EF01DD
:1002200057E2E131F50710F0C0E1D7E29E0140E06E
:1002300050E060E07DE281E391E0A2D579010160C8
:100240001CC088E2D89E802D1124C82FD0E0CE1784
:10025000DF0708F4EF019E0140E050E08AE0D81685
:1002600029F460E478E78DE791E004C060EA75E284
:1002700086E290E085D5790102604AE0D41631F437
:10028000CE0105966AE070E067D5EB0153E0C83E09
:10029000D50711F4B5010DC0BE0180E090E09501D5
:1002A00040E050E02ED528EE33E040E050E08AD523
:1002B000B901CC2011F4229806C0229A8FE08C1547
:1002C00010F48FE0C82E10926F0000938100F0921E
:1002D0008900E0928800209188003091890080E1B7
:1002E00090E08C19910902C0369527958A95E2F71E
:1002F00030938B0020938A0070933A026093390206
:1003000086B38FEF86BB81E080936F007894CDB782
:10031000DEB7EAE096C5CF93DF93EB018F3F11F094
:10032000442329F488EE93E0BE0140E064C08131AB
:1003300010F420E005C0282F2051203608F02FE5CA
:10034000822F6CE0FDD4382F682F70E084EF9FEF90
:10035000689FF001699FF00D789FF00D1124E20F66
:10036000F11DEC30F10530F4EC5CFF4F7DC58CE9FC
:1003700091E023C080E090E020C085EB91E01DC0BB
:100380008FEC91E01AC08AEE91E017C087E092E00E
:1003900014C086E292E011C087E492E00EC089E6C4
:1003A00092E00BC08EE892E008C085EB92E005C0B9
:1003B0008EED92E002C08AE093E0373071F002C027
:1003C000880F991F6A95E2F7323020F005966AE0AF
:1003D00070E00BC0805090480AC026E0880F991F3B
:1003E0002A95E1F7029665E070E0B6D4CB01403182
:1003F00008F04FE0BE01D0DEDF91CF9108958BCFA2
:10040000089530913802E0913302F09134023323A1
:1004100011F0249101C02081822F81548A3108F487
:10042000205E203221F43196CF01019781F7F093BD
:100430003402E0933302822F0895CF93DF93E1DFFC
:10044000282FC0E0D0E01CC0CE0143E0880F991FE8
:100450004A95E1F7CC0FDD1FC80FD91F822F9927CE
:1004600087FD9095C80FD91FE09780913302909136
:10047000340201969093340280933302C2DF282F16
:10048000822F80538A3000F3CE01DF91CF910895FF
:10049000A0E0B0E0EDE4F2E0B6C480902802B090B5
:1004A0003602BB2021F060913702662399F4A090B8
:1004B000370200912D0210912E02E0902902F09057
:1004C0002A02C0912B02D0912C02C0902F02D09012
:1004D000300203C18FEF70E040E01DDF1092370261
:1004E000BDC114E0812EBB2404EF11E0B4E0EB2E7B
:1004F000F12CC0EDD7E0A4E09A2EFFE0CF2ED12C56
:1005000080DF282F809133029091340201969093DE
:10051000340280933302263609F498C02736CCF48F
:100520002236A1F1233674F42E3361F12F3334F4E3
:100530002132B9F22C3309F004C126C0213609F06A
:1005400000C11AC1243609F451C025360CF066C02A
:1005500035C02F3609F4BFC0203754F42C3609F4C7
:10056000A5C02D3609F4A5C0273609F0EAC086C01B
:10057000243709F4CEC0263709F4E0C0223709F049
:10058000E0C0ADC08394BCCF8A94BACFA0923702AA
:10059000B092360210932E0200932D02F0922A029E
:1005A000E0922902D0932C02C0932B029092280251
:1005B000D0923002C0922F022BE0F5C0A0923702F9
:1005C000B092360210932E0200932D02F0922A026E
:1005D000E0922902D0932C02C0932B029092280221
:1005E000D0923002C0922F0220E0DDC0A0923702EC
:1005F000B092360210932E0200932D02F0922A023E
:10060000E0922902D0932C02C0932B0290922802F0
:10061000D0923002C0922F0222E0C5C0A0923702D1
:10062000B092360210932E0200932D02F0922A020D
:10063000E0922902D0932C02C0932B0290922802C0
:10064000D0923002C0922F0224E0ADC0A0923702B7
:10065000B092360210932E0200932D02F0922A02DD
:10066000E0922902D0932C02C0932B029092280290
:10067000D0923002C0922F0225E095C0A09237029E
:10068000B092360210932E0200932D02F0922A02AD
:10069000E0922902D0932C02C0932B029092280260
:1006A000D0923002C0922F0227E07DC0C6DE7C01CE
:1006B00040C0A7DE8C3611F4BB2403C0AA24BB249F
:1006C000B394809133029091340201969093340256
:1006D0008093330215CFB1DE882E982C11CFA092D3
:1006E0003702B092360210932E0200932D02F09240
:1006F0002A02E0922902D0932C02C0932B029092FE
:100700002802D0923002C0922F0220E0FF24F394FE
:100710004BC093DEBC0180EC9DE51ED3CB01EB0109
:10072000E3E0CC0FDD1FEA95E1F7880F991FC80FB2
:10073000D91FCE01B70110D38B01E2CE7EDE6C0152
:10074000DFCEA0923702B092360210932E020093B1
:100750002D02F0922A02E0922902D0932C02C0933B
:100760002B0290922802D0923002C0922F02109257
:1007700034021092330272C0A0923702B092360255
:1007800010932E0200932D02F0922A02E092290289
:10079000D0932C02C0932B0290922802D092300268
:1007A000C0922F0229E0FF248CE0889EC001112412
:1007B000E22EE80E0AC08091330290913402019635
:1007C0009093340280933302E3941BDE8B3299F3CF
:1007D000833289F30BC080913302909134020196E9
:1007E0009093340280933302EA940BDE8D3299F3B6
:1007F000C0912D02D0912E028153883048F400918F
:100800002B0210912C0219DEBC01C801A5D2EB010C
:100810008E010BC080913302909134020196909327
:10082000340280933302C00FD11F16950795E9DD7E
:100830008E3281F380913602882339F0CE0196956D
:10084000879580933702C81BD109FF2011F0EE2451
:10085000EA948E2DBE0140912F025DDDCDB7DEB74B
:10086000ECE0EDC21F920F920FB60F9211242F935E
:100870003F934F935F936F937F938F939F93AF9328
:10088000BF93EF93FF938091390290913A020197C1
:1008900090933A0280933902019609F58091810084
:1008A000887F81608093810080E29EE4909389003C
:1008B0008093880010928B0010928A00229881E029
:1008C0008093270210926F0080913302909134023E
:1008D000892B29F080913502882309F4D9DDFF9115
:1008E000EF91BF91AF919F918F917F916F915F91A8
:1008F0004F913F912F910F900FBE0F901F90189521
:10090000282F80913B02882391F481E080933B0261
:1009100084B18D7C84B985B1826385B981E090E032
:100920006F9364E06A95F1F76F910197C9F783B10E
:100930008095822308951F93CF93DF93182F809182
:100940003B02882391F481E080933B0284B18D7C4B
:1009500084B985B1826385B981E090E06F9364E0EA
:100960006A95F1F76F910197C9F7C12FD0E083B174
:1009700090E08C239D23892BD1F38AE090E0B2D1C3
:1009800083B190E08C239D23892B89F383B181234C
:10099000DF91CF911F910895CECF08954AB1579816
:1009A0005A98289A21E030E05C9AC9016F9364E07C
:1009B0006A95F1F76F910197C9F789B15C98F901D0
:1009C0006F9364E06A95F1F76F913197C9F75C9A7C
:1009D000F9016F9364E06A95F1F76F913197C9F768
:1009E0005C9887FDE1CF4AB9089565B190E0AC010C
:1009F00041705070440F551F9C012670307053E0B9
:100A0000220F331F5A95E1F7422B6D7C462B45B9D7
:100A10002BB18870907034E0880F991F3A95E1F7F8
:100A20002F77282B2BB95C9A81E090E0FC016F9323
:100A300064E06A95F1F76F913197C9F75C986F930D
:100A400064E06A95F1F76F910197C9F708958AB14B
:100A500084618AB9209A84E190E044D180E350D047
:100A600086E090E03FD180E34BD082E090E03AD145
:100A700080E346D082E090E035D180E241D082E050
:100A800090E030D188E23CD088E03AD081E038D0A4
:100A900086E036D08CE034C080913E02882321F479
:100AA00081E080933E02D3CF0895CF92DF92EF9200
:100AB000FF920F931F93082F162FEEDF6FDFC4B046
:100AC000D5B0EAB0FBB05A9828988BB1110F110F2E
:100AD000812B8BB984B1826384B9579A802F829518
:100AE0008F7083DF802F8F7080DFFBB8EAB8D5B8B6
:100AF000C4B81F910F91FF90EF90DF90CF900895B1
:100B000060E0D3CFA2E0B0E0E7E8F5E084C190E890
:100B1000998390EC9A83082F883008F007E0162F0D
:100B2000611111E0FE01E10FF11D8181800FE8DF0D
:100B300000933D0210933C022296E4E088C1E2CF8C
:100B400008954F925F926F927F928F929F92AF9291
:100B5000BF92CF92DF92EF92FF920F93DF93CF93EA
:100B6000CDB7DEB72A970FB6F894DEBF0FBECDBF64
:100B70004B015C010AE02E010894411C511CC50187
:100B8000B4012AE030E040E050E0FAD069017A0197
:100B900001503201600E711CC701B6012AE030E03D
:100BA00040E050E0AED0861A970AA80AB90A882D0C
:100BB000805DF3018083C114D104E104F10459F094
:100BC00046015701DCCFF701E00FF11D808161E0A4
:100BD0006CDF0F5F04C07E010894E11CF11C0A3039
:100BE00090F32A960FB6F894DEBF0FBECDBFCF911B
:100BF000DF910F91FF90EF90DF90CF90BF90AF907B
:100C00009F908F907F906F905F904F900895EF929C
:100C1000FF920F931F937B018C0197FF0BC01095E0
:100C20000095F094E094E11CF11C011D111D8DE272
:100C300061E03BDFC801B70184DF1F910F91FF9096
:100C4000EF900895E4CF0895CF93DF93EC0103C0B4
:100C5000219661E02ADF88818823D1F7DF91CF9147
:100C60000895F2CF08951F920F920FB60F9211249C
:100C70002F933F934F938F939F93AF93BF93209165
:100C8000430230914402C90180509C4F909344022A
:100C90008093430280519742C8F080913F02909127
:100CA0004002A0914102B09142020196A11DB11DE6
:100CB00080933F0290934002A0934102B09342027E
:100CC000205133423093440220934302BF91AF91AD
:100CD0009F918F914F913F912F910F900FBE0F9049
:100CE0001F90189528EE33E009C0F9016F9364E076
:100CF0006A95F1F76F913197C9F701970097A9F7B6
:100D00000895629FD001739FF001829FE00DF11D55
:100D1000649FE00DF11D929FF00D839FF00D749F75
:100D2000F00D659FF00D9927729FB00DE11DF91F21
:100D3000639FB00DE11DF91FBD01CF01112408957E
:100D4000991B79E004C0991F961708F0961B881F1D
:100D50007A95C9F780950895AA1BBB1B51E107C07E
:100D6000AA1FBB1FA617B70710F0A61BB70B881F3B
:100D7000991F5A95A9F780959095BC01CD010895CA
:100D8000A1E21A2EAA1BBB1BFD010DC0AA1FBB1F8F
:100D9000EE1FFF1FA217B307E407F50720F0A21B01
:100DA000B30BE40BF50B661F771F881F991F1A946E
:100DB00069F760957095809590959B01AC01BD0198
:100DC000CF01089597FB092E05260ED057FD04D0BC
:100DD000D7DF0AD0001C38F4509540953095219506
:100DE0003F4F4F4F5F4F0895F6F790958095709560
:100DF00061957F4F8F4F9F4F08952F923F924F9253
:100E00005F926F927F928F929F92AF92BF92CF929A
:100E1000DF92EF92FF920F931F93CF93DF93CDB7A3
:100E2000DEB7CA1BDB0B0FB6F894DEBF0FBECDBF1B
:100E300009942A88398848885F846E847D848C84EC
:100E40009B84AA84B984C884DF80EE80FD800C81F5
:100E50001B81AA81B981CE0FD11D0FB6F894DEBFD8
:100E60000FBECDBFED010895EE0FFF1F0590F49169
:080E7000E02D0994F894FFCF76
:100E78004D75736963210020200040FF40FF40FF4B
:100E88003C4043FF37FF3C37FF34393B3A39374062
:100E980043454143FF403C3E3B3C37FF34393B3AF6
:100EA80039374043454143FF403C3E3BFF434241C5
:100EB8003F40FF38393CFF393C3EFF4342413F4009
:100EC800FF48FF48FF48FF4342413F40FF38393C55
:100ED800FF393C3EFF3FFF3E3C640019007D007D2A
:100EE800007D007D007D00FA00FA00FA00FA00FAA1
:100EF8000077017D00FA007701FA00FA007D00FA18
:100F080000A700A700A700FA007D007D007D00FA79
:100F1800007D007D00770177017D00FA007701FAF6
:100F280000FA007D00FA00A700A700A700FA007DDC
:100F3800007D007D00FA007D007D007701FA007DCC
:100F4800007D007D00FA007D007D007D007D007D34
:100F5800007D007D007D007D00FA007D007D007D24
:100F680000FA007D007D00C800320064001900F41A
:100F780001FA007D007D007D00FA007D007D007D86
:100F8800007D007D007D007D007D007D00FA00FA77
:100F9800007D007701F40101040400D007F4010F7B
:020FA800000047
:00000001FF
