:1000000033C000004CC000004AC0000048C00000DF
:1000100046C0000044C0000042C0000040C00000D4
:100020003EC00000DBC200003AC0000038C0000043
:1000300036C0000034C0000032C0000030C00000F4
:100040002EC000002CC000002AC0000028C0000004
:1000500026C0000024C0000022C0000020C0000014
:100060001EC000001CC0000011241FBECFEFD4E052
:10007000DEBFCDBF11E0A0E0B1E0E8EDF7E002C0E7
:1000800005900D92A231B107D9F711E0A2E1B1E0DC
:1000900001C01D92AD31B107E1F702D09BC3B0CFD3
:1000A000EF92FF920F931F93CF93DF93E12C82E0A7
:1000B000F82E92D28C0180E090E060E070E075D183
:1000C00080E091E004D2B801882777FD8095982FD1
:1000D000EFD185E091E0FBD1C701801B910B62E07D
:1000E00070E00CD3EB0180E090E061E070E05DD166
:1000F00088E091E0ECD1BE01882777FD8095982FAC
:10010000D7D18DE091E0E3D1CE01BE017BD080E07C
:10011000E0D180E0E5D11C161D0614F481E0E0D1A9
:10012000D7FF02C081E0D5D184E690E096D2C1CF5E
:10013000809112018823F1F481E08093120183EF12
:100140008093B0008091B00084BD82E08093B100C4
:100150008091B10085BD1092B4008091B40080936D
:10016000B3008091B30088BD88B587BD8AB1886629
:100170008AB9239A0895CF93DF93EC01D9DFD7FD95
:1001800002C020E004C0D095C195DF4F21E0CE0130
:10019000CF3FD10519F014F08FEF90E0222319F032
:1001A00018BC87BD02C088BD17BCDF91CF910895F0
:1001B000CF93DF93EC01BCDFD7FD02C020E004C089
:1001C000D095C195DF4F21E0CE01CF3FD10519F089
:1001D00014F08FEF90E0222329F01092B400809366
:1001E000B30004C08093B4001092B300DF91CF91AC
:1001F00008950F931F938B01BEDFC801D9DF1F91B4
:100200000F910895F6CF08954AB157985A98289AB1
:1002100021E030E05C9AC9016F9364E06A95F1F7E0
:100220006F910197C9F789B15C98F9016F9364E008
:100230006A95F1F76F913197C9F75C9AF9016F935D
:1002400064E06A95F1F76F913197C9F75C9887FD83
:10025000E1CF4AB9089565B190E0AC0141705070AA
:10026000440F551F9C012670307053E0220F331F3E
:100270005A95E1F7422B6D7C462B45B92BB188701E
:10028000907034E0880F991F3A95E1F72F77282B6B
:100290002BB95C9A81E090E0FC016F9364E06A9571
:1002A000F1F76F913197C9F75C986F9364E06A95A5
:1002B000F1F76F910197C9F708958AB184618AB9FE
:1002C000209A84E190E0D8D180E350D086E090E09D
:1002D000D3D180E34BD082E090E0CED180E346D012
:1002E00082E090E0C9D180E241D082E090E0C4D1C8
:1002F00088E23CD088E03AD081E038D086E036D041
:100300008CE034C080911501882321F481E0809332
:100310001501D3CF0895CF92DF92EF92FF920F9302
:100320001F93082F162FEEDF6FDFC4B0D5B0EAB0F1
:10033000FBB05A9828988BB1110F110F812B8BB9F4
:1003400084B1826384B9579A802F82958F7083DF3E
:10035000802F8F7080DFFBB8EAB8D5B8C4B81F9182
:100360000F91FF90EF90DF90CF90089560E0D3CF92
:10037000A2E0B0E0EDEBF1E004C290E8998390ECEC
:100380009A83082F883008F007E0162F611111E0DA
:10039000FE01E10FF11D8181800FE8DF0093140160
:1003A000109313012296E4E008C2E2CF08954F9221
:1003B0005F926F927F928F929F92AF92BF92CF92F5
:1003C000DF92EF92FF920F93DF93CF93CDB7DEB71B
:1003D0002A970FB6F894DEBF0FBECDBF4B015C016C
:1003E0000AE02E010894411C511CC501B4012AE009
:1003F00030E040E050E095D169017A0101503201CE
:10040000600E711CC701B6012AE030E040E050E008
:1004100042D1861A970AA80AB90A882D805DF3018D
:100420008083C114D104E104F10459F0460157015D
:10043000DCCFF701E00FF11D808161E06CDF0F5F21
:1004400004C07E010894E11CF11C0A3090F32A9646
:100450000FB6F894DEBF0FBECDBFCF91DF910F91E5
:10046000FF90EF90DF90CF90BF90AF909F908F90D4
:100470007F906F905F904F900895EF92FF920F934F
:100480001F937B018C0197FF0BC010950095F09492
:10049000E094E11CF11C011D111D8DE261E03BDFC8
:1004A000C801B70184DF1F910F91FF90EF9008956D
:1004B000E4CF0895CF93DF93EC0103C0219661E070
:1004C0002ADF88818823D1F7DF91CF910895F2CF79
:1004D0000895519A882311F0599A089559980895CA
:1004E000579A882311F05F9A08955F980895382FDE
:1004F000883010F528B181E090E0032E02C0880F0B
:10050000991F0A94E2F78095282328B927B18223FE
:1005100087B987E880937A0080917C00807F809300
:100520007C0080917C003F70832B80937C008091C5
:100530007A00806480937A000895A0E0B0E0E2EA57
:10054000F2E01BC1EB01C7B0D8B0D1DF9E01EE24B1
:10055000FF24870180917A00806480937A008091E3
:100560007A0086FDFCCF80917C0085FF2CC08091B5
:10057000790090E0A0E0B0E0E80EF91E0A1F1B1F12
:100580002150304039F7D8B8C7B8CE019695879535
:10059000C034D10538F48E0D9F1D6C2F70E09AD0B9
:1005A0009B010CC0A0E0B0E0E80EF91E0A1F1B1F63
:1005B0009E0140E050E0C801B701B3D0C901CDB7FA
:1005C000DEB7E8E0F6C08091780090917900D2CF54
:1005D00087E064E170E0B1CFFBCF08951F920F92E6
:1005E0000FB60F9211242F933F934F938F939F93A6
:1005F000AF93BF9320911A0130911B01C901805024
:100600009C4F90931B0180931A0180519742C8F030
:100610008091160190911701A0911801B0911901D4
:100620000196A11DB11D8093160190931701A0930F
:100630001801B09319012051334230931B012093CC
:100640001A01BF91AF919F918F914F913F912F913F
:100650000F900FBE0F901F90189528EE33E009C041
:10066000F9016F9364E06A95F1F76F913197C9F7DB
:1006700001970097A9F7089528EE33E009C0F90122
:100680006F9364E06A95F1F76F913197C9F701971D
:100690000097A9F70895629FD001739FF001829F90
:1006A000E00DF11D649FE00DF11D929FF00D839F01
:1006B000F00D749FF00D659FF00D9927729FB00D9E
:1006C000E11DF91F639FB00DE11DF91FBD01CF01B1
:1006D00011240895AA1BBB1B51E107C0AA1FBB1F11
:1006E000A617B70710F0A61BB70B881F991F5A95BE
:1006F000A9F780959095BC01CD01089597FB092E2F
:1007000007260AD077FD04D0E5DF06D000201AF4D2
:10071000709561957F4F0895F6F7909581959F4F5D
:100720000895A1E21A2EAA1BBB1BFD010DC0AA1F32
:10073000BB1FEE1FFF1FA217B307E407F50720F04A
:10074000A21BB30BE40BF50B661F771F881F991FC5
:100750001A9469F760957095809590959B01AC010E
:10076000BD01CF0108952F923F924F925F926F92F9
:100770007F928F929F92AF92BF92CF92DF92EF9231
:10078000FF920F931F93CF93DF93CDB7DEB7CA1BB2
:10079000DB0B0FB6F894DEBF0FBECDBF09942A88DD
:1007A000398848885F846E847D848C849B84AA8485
:1007B000B984C884DF80EE80FD800C811B81AA8112
:1007C000B981CE0FD11D0FB6F894DEBF0FBECDBFDD
:0807D000ED010895F894FFCF3C
:1007D800706F743D002020007370643D002020205D
:0207E80000000F
:00000001FF
