:1000000033C000004CC000004AC0000064C20000C1
:1000100062C2000060C2000042C0000040C0000098
:100020003EC00000E1C100003AC0000038C000003E
:1000300036C0000034C0000032C0000030C00000F4
:100040002EC000002CC000002AC0000028C0000004
:1000500026C0000024C0000022C0000020C0000014
:100060001EC000001CC0000011241FBECFEFD4E052
:10007000DEBFCDBF11E0A0E0B1E0ECEDF9E002C0E1
:1000800005900D92A231B107D9F711E0A2E1B1E0DC
:1000900001C01D92AA32B107E1F702D09DC4B0CFD2
:1000A00080E161E142E123E11DD480E090E060E085
:1000B00070E006D1F6D1AA2797FDA095BA2FBC0112
:1000C000CD0181D180E091E08DD184E090E060E0CD
:1000D00070E0F6D0EDD1AA2797FDA095BA2FBC010C
:1000E000CD0171D180E091E07DD1E9D1892B41F042
:1000F00080E090E061E070E0E3D082E091E072D1D6
:10010000E4D1892B41F080E090E061E070E0D8D04C
:100110008AE091E067D182E390E0A5D1C6CF4AB1F1
:1001200057985A98289A21E030E05C9AC9016F9359
:1001300064E06A95F1F76F910197C9F789B15C980E
:10014000F9016F9364E06A95F1F76F913197C9F700
:100150005C9AF9016F9364E06A95F1F76F913197BA
:10016000C9F75C9887FDE1CF4AB9089565B190E081
:10017000AC0141705070440F551F9C0126703070C7
:1001800053E0220F331F5A95E1F7422B6D7C462B2B
:1001900045B92BB18870907034E0880F991F3A955B
:1001A000E1F72F77282B2BB95C9A81E090E0FC01D6
:1001B0006F9364E06A95F1F76F913197C9F75C9896
:1001C0006F9364E06A95F1F76F910197C9F708950D
:1001D0008AB184618AB9209A84E190E053D180E3A6
:1001E00050D086E090E04ED180E34BD082E090E0AA
:1001F00049D180E346D082E090E044D180E241D012
:1002000082E090E03FD188E23CD088E03AD081E0C3
:1002100038D086E036D08CE034C080911401882339
:1002200021F481E080931401D3CF0895CF92DF921F
:10023000EF92FF920F931F93082F162FEEDF6FDFC1
:10024000C4B0D5B0EAB0FBB05A9828988BB1110F62
:10025000110F812B8BB984B1826384B9579A802F97
:1002600082958F7083DF802F8F7080DFFBB8EAB8B4
:10027000D5B8C4B81F910F91FF90EF90DF90CF9049
:10028000089560E0D3CFA2E0B0E0E8E4F1E07BC302
:1002900090E8998390EC9A83082F883008F007E063
:1002A000162F611111E0FE01E10FF11D8181800F18
:1002B000E8DF00931301109312012296E4E07FC35C
:1002C000E2CF08954F925F926F927F928F929F92AA
:1002D000AF92BF92CF92DF92EF92FF920F93DF9394
:1002E000CF93CDB7DEB72A970FB6F894DEBF0FBE17
:1002F000CDBF4B015C010AE02E010894411C511C4A
:10030000C501B4012AE030E040E050E00CD36901BF
:100310007A0101503201600E711CC701B6012AE05A
:1003200030E040E050E0E0D2861A970AA80AB90A05
:10033000882D805DF3018083C114D104E104F104B0
:1003400059F046015701DCCFF701E00FF11D808124
:1003500061E06CDF0F5F04C07E010894E11CF11CBA
:100360000A3090F32A960FB6F894DEBF0FBECDBFC9
:10037000CF91DF910F91FF90EF90DF90CF90BF90E2
:10038000AF909F908F907F906F905F904F90089567
:10039000EF92FF920F931F937B018C0197FF0BC08D
:1003A00010950095F094E094E11CF11C011D111DC5
:1003B0008DE261E03BDFC801B70184DF1F910F913F
:1003C000FF90EF900895E4CF0895CF93DF93EC0171
:1003D00003C0219661E02ADF88818823D1F7DF916D
:1003E000CF910895F2CF08951F920F920FB60F92FA
:1003F00011242F933F934F938F939F93AF93BF936A
:100400002091190130911A01C90180509C4F90939D
:100410001A018093190180519742C8F0809115010B
:1004200090911601A0911701B09118010196A11D9C
:10043000B11D8093150190931601A0931701B093FD
:1004400018012051334230931A0120931901BF91B2
:10045000AF919F918F914F913F912F910F900FBE30
:100460000F901F90189528EE33E009C0F9016F93A3
:1004700064E06A95F1F76F913197C9F7019700979A
:10048000A9F7089528EE33E009C0F9016F9364E0FD
:100490006A95F1F76F913197C9F701970097A9F71E
:1004A0000895F89478948091200190912101089505
:1004B000F894789480911E0190911F010895809185
:1004C0001D0110921D0190E0089580911C01109271
:1004D0001C0190E008951F920F920FB60F92112405
:1004E0002F933F934F935F936F937F938F939F933C
:1004F000AF93BF93EF93FF9340912201483040F4B4
:1005000089B190E002C0959587954A95E2F712C0AF
:10051000242F30E04E3028F483B190E02850304052
:1005200004C086B190E02E50304002C0959587956A
:100530002A95E2F7E82FE17040912401483040F419
:1005400089B190E002C0959587954A95E2F712C06F
:10055000242F30E04E3028F483B190E02850304012
:1005600004C086B190E02E50304002C0959587952A
:100570002A95E2F7682F617040912301483040F4DA
:1005800089B190E002C0959587954A95E2F712C02F
:10059000242F30E04E3028F483B190E028503040D2
:1005A00004C086B190E02E50304002C095958795EA
:1005B0002A95E2F7582F517040912501483040F4B8
:1005C00089B190E002C0959587954A95E2F712C0EF
:1005D000242F30E04E3028F483B190E02850304092
:1005E00004C086B190E02E50304002C095958795AA
:1005F0002A95E2F7482F4170F0912701709126016A
:10060000B0912901A0912801EF1749F080912001B4
:100610009091210101969093210180932001571719
:1006200049F080912001909121010197909321013F
:10063000809320016B1749F080911E0190911F015A
:10064000019690931F0180931E014A1749F08091F3
:100650001E0190911F01019790931F0180931E012D
:100660002E2F30E0872F992787FD9095281739077F
:1006700061F0252F30E08F2F992787FD909528175F
:10068000390719F081E080931D01262F30E08A2F71
:10069000992787FD90952817390761F0242F30E0BE
:1006A0008B2F992787FD90952817390719F081E03E
:1006B00080931C01E0932601509327016093280149
:1006C00040932901FF91EF91BF91AF919F918F913D
:1006D0007F916F915F914F913F912F910F900FBE3E
:1006E0000F901F901895282F8830B8F480916800DB
:1006F0008460809368003AB181E090E002C0880F86
:10070000991F2A95E2F7282F209523232AB92091B3
:100710006D00822B80936D0008958E30D0F480910F
:10072000680081608093680044B130E02850304018
:1007300081E090E002C0880F991F2A95E2F7282FE8
:100740002095242324B920916B00822B80936B0089
:1007500008958431C8F480916800826080936800B5
:1007600047B130E02E50304081E090E002C0880F69
:10077000991F2A95E2F7282F2095242327B9209145
:100780006C00822B80936C000895EF92FF920F9380
:100790001F93182F062FF42EE22E809322016093D0
:1007A00023014093240120932501F8949CDF802F9E
:1007B0009ADF8F2D98DF8E2D96DF109221011092F7
:1007C000200110921F0110921E0110921D01109223
:1007D0001C01183040F489B190E002C095958795CE
:1007E0001A95E2F712C0212F30E01E3028F483B1B1
:1007F00090E02850304004C086B190E02E50304048
:1008000002C0959587952A95E2F78170809326011D
:10081000083040F489B190E002C0959587950A951B
:10082000E2F712C0202F30E00E3028F483B190E0C0
:100830002850304004C086B190E02E50304002C0B5
:10084000959587952A95E2F781708093270187E037
:100850008F1540F089B190E002C095958795FA9484
:10086000E2F713C02F2D30E08DE08F1528F083B113
:1008700090E02850304004C086B190E02E503040C7
:1008800002C0959587952A95E2F78170809328019B
:1008900087E08E1540F089B190E002C0959587956C
:1008A000EA94E2F713C02E2D30E08DE08E1528F08B
:1008B00083B190E02850304004C086B190E02E50C3
:1008C000304002C0959587952A95E2F78170809314
:1008D00029018BB387608BBB78941F910F91FF9098
:1008E000EF90089552CF0895629FD001739FF00159
:1008F000829FE00DF11D649FE00DF11D929FF00DB0
:10090000839FF00D749FF00D659FF00D9927729FE6
:10091000B00DE11DF91F639FB00DE11DF91FBD0171
:10092000CF0111240895A1E21A2EAA1BBB1BFD01C1
:100930000DC0AA1FBB1FEE1FFF1FA217B307E407BE
:10094000F50720F0A21BB30BE40BF50B661F771F16
:10095000881F991F1A9469F76095709580959095F6
:100960009B01AC01BD01CF0108952F923F924F92A0
:100970005F926F927F928F929F92AF92BF92CF922F
:10098000DF92EF92FF920F931F93CF93DF93CDB738
:10099000DEB7CA1BDB0B0FB6F894DEBF0FBECDBFB0
:1009A00009942A88398848885F846E847D848C8481
:1009B0009B84AA84B984C884DF80EE80FD800C818A
:1009C0001B81AA81B981CE0FD11D0FB6F894DEBF6D
:0C09D0000FBECDBFED010895F894FFCFDD
:1009DC0020004572726F722031004572726F722066
:0209EC003200D7
:00000001FF
