:100000000C945B000C9481000C9481000C94810092
:100010000C9481000C9481000C9481000C9481005C
:100020000C9481000C9481000C9481000C9481004C
:100030000C9481000C9481000C9481000C9481003C
:100040000C94C7010C9481000C9416040C9481004C
:100050000C9481000C9481000C9481000C9481001C
:100060000C9481000C948100C6010000000700027E
:10007000010000030406000000000000000001026F
:100080000408102040800102040810200102040826
:100090001020040404040404040402020202020204
:1000A0000303030303030000232629000025282B54
:1000B000000024272A0011241FBECFEFD4E0DEBFAA
:1000C000CDBF11E0A0E0B1E0E4E2FBE002C00590AA
:1000D0000D92A036B107D9F711E0A0E6B1E001C05A
:1000E0001D92AB3EB107E1F710E0CAE6D0E004C0D4
:1000F0002297FE010E948E05C836D107C9F70C94DD
:10010000EB000C9400000F931F9361E080910201BB
:100110000E94EA0261E0809100010E94EA0202E688
:1001200011E040E052EC61E070E0C8010E94F8008C
:1001300061E0809100010E9451036AE070E080E07C
:1001400090E00E94040260E0809100010E9451034F
:1001500068EE73E080E090E00E94040264E071E0E9
:10016000C8010E942B016DE171E0C8010E942B01C2
:1001700062E371E0C8010E942B0165E471E0C801EF
:100180000E942B011F910F91089580E00E94780238
:10019000909361018093600161E0809102010E946F
:1001A000510364E670E080E090E00E94040260E0A9
:1001B000809102010E945103609160017091610180
:1001C00082E691E00E94BA0168EC70E080E090E085
:1001D0000E9404020895CFEFD4E0DEBFCDBF0E949D
:1001E00033020E9483000E94C500FDCF0895089548
:1001F000CB01BA010E949C0308950E94DD03992758
:1002000008950E94EE0308950E940D040895862F1C
:100210000E9454040895CB010E945B040895862F28
:100220000E94540408950F931F938C016DE00E9467
:1002300007016AE0C8010E9407011F910F9108950C
:100240000F931F938C010E940701C8010E941301A4
:100250001F910F9108950F931F938C010E940B0122
:10026000C8010E9413011F910F9108950F931F93CE
:100270008C010E940F01C8010E9413011F910F9170
:100280000895CB01BA013327442755270E946804FB
:1002900008952AE00E94410108950F931F938C0155
:1002A0000E944901C8010E9413011F910F910895F6
:1002B000AB01662777270E94490108950F931F938A
:1002C0008C010E945801C8010E9413011F910F91D7
:1002D0000895EF92FF920F931F93CF93DF93EC015A
:1002E0007A018B0177FF0BC06DE20E940701109528
:1002F0000095F094E094E11CF11C011D111D2AE011
:10030000B801A701CE010E944101DF91CF911F9159
:100310000F91FF90EF9008950F931F938C010E940F
:100320006901C8010E9413011F910F9108952115C1
:10033000310521F4642F0E94070108952A30310508
:1003400019F40E94690108950E94410108950F93D4
:100350001F938C010E949701C8010E9413011F91F5
:100360000F910895AB01662757FD6095762F0E9487
:10037000690108950F931F938C010E94B201C80177
:100380000E9413011F910F910895089508951F92DF
:100390000F920FB60F9211248F939F93AF93BF9339
:1003A0008091670190916801A0916901B0916A0103
:1003B0000196A11DB11D8093670190936801A093E0
:1003C0006901B0936A01BF91AF919F918F910F9096
:1003D0000FBE0F901F901895609167017091680192
:1003E0008091690190916A0127E0660F771F881F4D
:1003F000991F2A95D1F72DE730E040E050E00E94A8
:100400003B05CA01B9010895AF92BF92CF92DF9226
:10041000EF92FF920F931F935B016C010E94EC011E
:100420007B018C010E94EC016E197F09800B910BFE
:100430006A157B058C059D05A8F31F910F91FF9010
:10044000EF90DF90CF90BF90AF900895019751F05B
:10045000880F991F880F991F02972FB7F89401975B
:10046000F1F72FBF089578941092670110926801F8
:100470001092690110926A0184B5826084BD84B5CE
:10048000816084BD85B5826085BD85B5816085BD8F
:10049000EEE6F0E0808181608083E1E8F0E0808139
:1004A00082608083808181608083E0E8F0E08081E9
:1004B00081608083E1EBF0E0808184608083E0EB09
:1004C000F0E0808181608083EAE7F0E080818460F1
:1004D000808380818260808380818160808380814D
:1004E000806880831092C100089580935F01089511
:1004F00090915F019295990F990F907C8F70982B36
:1005000090937C0080917A00806480937A0080913F
:100510007A0086FDFCCF20917800809179009927A0
:10052000982F88273327822B932B08951F93CF93DF
:10053000DF93182FEB0161E00E94EA02E12FFF2711
:10054000E659FF4F8491833051F480918000806898
:1005500080938000D0938900C093880037C0843096
:1005600051F480918000806280938000D0938B0052
:10057000C0938A002BC0813029F484B5806884BD83
:10058000C7BD24C0823029F484B5806284BDC8BD53
:100590001DC0863041F48091B00080688093B00027
:1005A000C093B30013C0873041F48091B0008062E3
:1005B0008093B000C093B40009C0C038D10514F4D2
:1005C00060E001C061E0812F0E945103DF91CF9173
:1005D0001F910895282F3327C90182589F4FFC018E
:1005E00094912E563F4FF9018491882381F0E82F92
:1005F000FF27E055FF4FE491FF27662329F4808110
:1006000090958923808308958081892B8083089524
:10061000482F5527CA0186599F4FFC012491CA01D2
:1006200082589F4FFC0194914E565F4FFA013491CE
:100630003323A1F1222331F1233021F48091800072
:100640008F7705C0243031F4809180008F7D8093B6
:10065000800018C0213019F484B58F7704C022308F
:1006600021F484B58F7D84BD0DC0263021F48091A6
:10067000B0008F7705C0273029F48091B0008F7DBE
:100680008093B000E32FFF27EA55FF4FE491FF2747
:100690008081892319F081E090E0089580E090E066
:1006A0000895482F5527CA0186599F4FFC01249170
:1006B000CA0182589F4FFC0194914E565F4FFA0138
:1006C00034913323C1F1222331F1233021F480917D
:1006D00080008F7705C0243031F4809180008F7DB9
:1006E0008093800018C0213019F484B58F7704C03E
:1006F000223021F484B58F7D84BD0DC0263021F4D5
:100700008091B0008F7705C0273029F48091B00028
:100710008F7D8093B000E32FFF27E555FF4FE491D5
:10072000FF27662329F4808190958923808308958B
:100730008081892B80830895EF92FF920F931F93FE
:100740007B018C0122E030E040E050E00E945D053A
:10075000205C3D4B404F5F4FCA01B901A801970192
:100760000E945D052150304040405040BB2757FD5E
:10077000BA95A52F942F832F2F5F3F4F4F4F5F4F79
:100780008093C50021502093C400E1ECF0E080810B
:10079000806180838081886080838081806880839D
:1007A0001F910F91FF90EF900895982F8091C000B6
:1007B00085FFFCCF9093C6000895809165019091CC
:1007C00066012091630130916401821B930B805874
:1007D0009F4F60E870E00E942805089540916301F2
:1007E000509164018091650190916601841795078D
:1007F00019F48FEF9FEF0895FA01E559FE4F20811C
:10080000CA01019660E870E00E9428059093640197
:1008100080936301822F99270895809163019091BD
:100820006401909366018093650108951F920F9271
:100830000FB60F9211242F933F934F935F936F93B3
:100840007F938F939F93AF93BF93EF93FF934091C9
:10085000C600E0916501F0916601CF01019660E864
:1008600070E00E9428059C018091630190916401D1
:100870002817390739F0E559FE4F40833093660158
:1008800020936501FF91EF91BF91AF919F918F915F
:100890007F916F915F914F913F912F910F900FBE7C
:1008A0000F901F90189508950E94D50308958AE02F
:1008B0000E9454040895CF93DF93EC0103C0219666
:1008C0000E94540488818823D1F7DF91CF91089545
:1008D0002F923F924F925F926F927F928F929F9250
:1008E000AF92BF92CF92DF92EF92FF920F931F933E
:1008F000CF93DF93CDB7DEB7A0970FB6F894DEBFE6
:100900000FBECDBF6B017C0119012A016115710574
:100910008105910521F480E30E9454044BC06624B4
:10092000772443015E010894A11CB11C8501060DCA
:10093000171DC701B601A20191010E943B05F801F4
:1009400060830894611C711C811C911CC701B60155
:10095000A20191010E943B0569017A01211531052F
:100960004105510519F773010894E108F108EA0CF3
:10097000FB1CAA24BB24650111C0F70180818A30C9
:1009800010F4805D01C0895C0E9454040894A108A1
:10099000B108C108D1080894E108F108882799270F
:1009A000DC0186199709A809B909A816B906CA066B
:1009B000DB0619F7A0960FB6F894DEBF0FBECDBFC9
:1009C000DF91CF911F910F91FF90EF90DF90CF902B
:1009D000BF90AF909F908F907F906F905F904F905F
:1009E0003F902F900895EF92FF920F931F937B01FA
:1009F0008C0197FF0BC08DE20E9454041095009566
:100A0000F094E094E11CF11C011D111D2AE030E07E
:100A100040E050E0C801B7010E9468041F910F91A7
:100A2000FF90EF90089520E130E040E050E00E9418
:100A30006804089528E030E040E050E00E94680437
:100A4000089522E030E040E050E00E9468040895FC
:100A500097FB092E07260AD077FD04D049D006D08F
:100A600000201AF4709561957F4F0895F6F79095E0
:100A700081959F4F0895A1E21A2EAA1BBB1BFD0171
:100A80000DC0AA1FBB1FEE1FFF1FA217B307E4076D
:100A9000F50720F0A21BB30BE40BF50B661F771FC5
:100AA000881F991F1A9469F76095709580959095A5
:100AB0009B01AC01BD01CF01089597FB092E0526CE
:100AC0000ED057FD04D0D7DF0AD0001C38F4509563
:100AD0004095309521953F4F4F4F5F4F0895F6F762
:100AE00090958095709561957F4F8F4F9F4F08959A
:100AF000AA1BBB1B51E107C0AA1FBB1FA617B70744
:100B000010F0A61BB70B881F991F5A95A9F780955F
:100B10009095BC01CD010895EE0FFF1F0590F49153
:040B2000E02D099427
:100B24000700030053455420425420504147454D8B
:100B34004F44452033203230303020310053455467
:100B440020425420524F4C452030206620376430D8
:100B5400300053455420434F4E54524F4C2045438C
:100B6400484F20300053455420434F4E54524F4C6D
:100B740020455343415045202D2030302031000181
:00000001FF
