:1000000063C0000088C0000086C0000084C00000FB
:1000100082C0000080C000007EC000007CC00000E4
:100020007AC000000C94B40E76C0000074C00000CA
:1000300072C0000085C600006EC000006CC00000E9
:100040006AC0000068C0000066C0000064C0000014
:1000500062C0000060C000005EC000005CC0000024
:100060005AC0000058C00000130419041C041F04E7
:100070002204250428042B042E04310434043704FC
:1000800020506F6C6F6C750033F720526F626F7485
:10009000004C696E6500666F6C6C6F776572003E30
:1000A0006733323E3E633332004C31362063646541
:1000B000677265673400000000000000001F1F1F0A
:1000C0001F1F1F1F8109820911241FBECFEFD8E017
:1000D000DEBFCDBF11E0A0E0B1E0ECE1F0E202C094
:1000E00005900D92A633B107D9F711E0A6E3B1E070
:1000F00001C01D92AF37B107E1F710E0C6ECD0E0C8
:1001000004C02297FE010E94FE0FC43CD107C9F72C
:10011000EBD00C94021074CF0F931F93CF93DF9307
:100120008C01C0E0D0E0F801EC0FFD1F80819181CF
:1001300065E670E00E94740FFB01E15FFE4F808175
:100140000E94C4082296CA30D10569F7DF91CF9189
:100150001F910F9108950F931F9306EB10E0C801B4
:1001600060E00E94EA08C801019661E00E94EA0886
:10017000C801029662E00E94EA08C801039663E0A3
:100180000E94EA08C801049664E00E94EA08C801D7
:10019000059665E00E94EA08C801069666E00E949E
:1001A000EA084CD71F910F910895AAE0B0E0EBED5B
:1001B000F0E00C94CF0F80ED97E00E94B709CBDF01
:1001C00080E890E0CED780E090E061E070E025D755
:1001D00088E890E0C6D78FE990E0B0D588EE93E04C
:1001E0000E94F30E2BD781E990E0BBD780E090E02E
:1001F00061E070E012D786E990E0B3D788EE93E033
:1002000018C00E947F097C0119D70027F7FC0095D0
:10021000102FC801B70195D780E091E0B1D780E0F9
:1002200090E061E070E0F9D683E091E0A9D784E640
:1002300090E00E94F30E80E1D1D5882311F380E194
:1002400019D688EE93E00E94F30E0CEE1FEF0832F1
:10025000110528F088E290E068ED7FEF04C088ED9A
:100260009FEF68E270E0DBD181E00E948C0984E1BD
:1002700090E00E94F30E0F5F1F4F0C33110539F70A
:1002800080E090E060E070E0CAD16E010894C11C8B
:10029000D11C16C0C60161E00E9485097C01CED642
:1002A00000E010E0C801B7014CD780E090E061E0C9
:1002B00070E0B3D6C60130DF84E690E00E94F30E12
:1002C00080E18CD5882331F380E1D4D5B7D68BE09B
:1002D00091E056D789EA90E031D5A3D18823E9F798
:1002E0002A96E8E00C94EB0FAAE0B0E0EAE7F1E030
:1002F0000C94D30F5ADF8E010F5F1F4FC80161E0CE
:100300000E94850923E0883E920748F480E090E04F
:1003100064E670E084D181E05FD780E012C0885B42
:100320009B4038F484E690E064E670E078D181E0A8
:1003300006C084E690E060E070E071D180E04CD7C8
:1003400081E051D7DBCFCF93DF93BC0182309105A1
:1003500010F462E070E0A0917D01B0917E01ED01AA
:10036000E0E0F0E040E050E021C08881998186170C
:10037000970769F48A819B81309719F09383828370
:1003800004C090937E0180937D01FE0133C0681705
:10039000790738F44115510519F08417950708F4C9
:1003A000AC01FE018A819B819C01E9012097E9F65D
:1003B00041155105A1F1CA01861B970B049708F45A
:1003C000BA01E0E0F0E029C08D919C91119784176B
:1003D0009507F1F46417750779F4ED018A819B8123
:1003E000309719F09383828304C090937E018093A9
:1003F0007D01FD0132964FC0CA01861B970BFD019E
:10040000E80FF91F6193719302978D939C9343C0FA
:10041000FD01828193819C01D9011097A9F68091F9
:100420007B0190917C01892B41F480913201909164
:10043000330190937C0180937B0140913401509172
:1004400035014115510541F44DB75EB7809130013A
:1004500090913101481B590B20917B0130917C0117
:1004600024173507B0F4CA01821B930B8617970730
:1004700080F0AB014E5F5F4F8417950750F0420F3D
:10048000531F50937C0140937B01F9016193719359
:1004900002C0E0E0F0E0CF01DF91CF910895CF936B
:1004A000DF93009709F44EC0EC0122971B821A8259
:1004B000A0917D01B0917E01109701F140E050E0E4
:1004C000AC17BD0700F1BB83AA83FE0121913191D6
:1004D000E20FF31FAE17BF0771F48D919C91119736
:1004E000280F391F2E5F3F4F39832883FD018281FA
:1004F00093819B838A834115510569F4D0937E01D2
:10050000C0937D011FC0FD0182819381AD010097E1
:1005100011F0DC01D5CFFA01D383C283219131914F
:10052000E20FF31FCE17DF0769F488819981280F46
:10053000391F2E5F3F4FFA01318320838A819B81CF
:1005400093838283DF91CF91089580913601882330
:10055000F1F481E08093360183EF8093B0008091C5
:10056000B00084BD82E08093B1008091B10085BD70
:100570001092B4008091B4008093B3008091B300D6
:1005800088BD88B587BD8AB188668AB9239A0895DF
:10059000CF93DF93EC01D9DFD7FD02C020E004C088
:1005A000D095C195DF4F21E0CE01CF3FD10519F0A5
:1005B00014F08FEF90E0222319F018BC87BD02C021
:1005C00088BD17BCDF91CF910895CF93DF93EC01E5
:1005D000BCDFD7FD02C020E004C0D095C195DF4F3D
:1005E00021E0CE01CF3FD10519F014F08FEF90E05C
:1005F000222329F01092B4008093B30004C08093AA
:10060000B4001092B300DF91CF9108950F931F9320
:100610008B01BEDFC801D9DF1F910F910895F6CF7E
:10062000089580911901882339F020E080913801E4
:1006300090913901892B09F021E0822F0895A0E0E3
:10064000B0E0E5E2F3E00C94CD0FFC015B01C42EB9
:10065000809137018823C1F481E0809337011092A3
:100660006F00229883E28093800089E1809381006B
:100670001092820080E29EE490938900809388002B
:1006800010928B0010928A0010921901F7FD03C09E
:10069000DD24D39403C0FF779AE0D92E80918100A6
:1006A000082F10E0087F10702D2D30E080E991E0D8
:1006B000AC01249FC001259F900D349F900D112403
:1006C0008E179F0798F4EF0157E2E131F50710F01C
:1006D000C0E1D7E29E0140E050E060E07DE281E3CE
:1006E00091E00E94880F790101601DC088E2D89EC8
:1006F000802D1124C82FD0E0CE17DF0708F4EF01BA
:100700009E0140E050E08AE0D81629F460E478E7E2
:100710008DE791E004C060EA75E286E290E00E9415
:10072000880F790102604AE0D41639F4CE010596AB
:100730006AE070E00E94740FEB0153E0C83ED507F9
:1007400011F4B5010FC0BE0180E090E0950140E0DA
:1007500050E00E94490F28EE33E040E050E00E9454
:10076000AA0FB901CC2011F4229806C0229A8FE07A
:100770008C1510F48FE0C82E10926F00009381004A
:10078000F0928900E09288002091880030918900E1
:1007900080E190E08C19910902C0369527958A95E1
:1007A000E2F730938B0020938A0070933F016093AF
:1007B0003E0186B38FEF86BB81E080936F00789413
:1007C000CDB7DEB7EAE00C94E90FCF93DF93EB01EE
:1007D0008F3F11F0442329F488EE93E0BE0140E0FE
:1007E00067C0813110F420E005C0282F2051203649
:1007F00008F02FE5822F6CE00E94680F382F682FD9
:1008000070E084EF9FEF689FF001699FF00D789F83
:10081000F00D1124E20FF11DEC30F10538F4EC5C21
:10082000FF4F0C94FC0F8CE991E023C080E090E036
:1008300020C085EB91E01DC08FEC91E01AC08AEEDC
:1008400091E017C087E092E014C086E292E011C008
:1008500087E492E00EC089E692E00BC08EE892E059
:1008600008C085EB92E005C08EED92E002C08AE000
:1008700093E0373071F002C0880F991F6A95E2F754
:10088000323020F005966AE070E00BC0805090484E
:100890000BC026E0880F991F2A95E1F7029665E0C4
:1008A00070E00E94740FCB01403108F04FE0BE01B0
:1008B000C6DEDF91CF91089530913D01E09138017E
:1008C000F0913901332311F0249101C02081822F4E
:1008D00081548A3108F4205E203221F43196CF0110
:1008E000019781F7F0933901E0933801822F089541
:1008F000CF93DF93E1DF282FC0E0D0E01CC0CE0112
:1009000043E0880F991F4A95E1F7CC0FDD1FC80F10
:10091000D91F822F992787FD9095C80FD91FE0977F
:10092000809138019091390101969093390180931B
:100930003801C2DF282F822F80538A3000F3CE0186
:10094000DF91CF910895A0E0B0E0E9EAF4E00C94E3
:10095000CB0F80901A01B0903B01BB2021F0609139
:100960003C01662399F4A0903C0100911F01109175
:100970002001E0901B01F0901C01C0911D01D0915D
:100980001E01C0902101D090220103C18FEF70E0C1
:1009900040E01BDF10923C01C0C114E0812EBB245B
:1009A00004EF11E0B4E0EB2EF12CC0EDD7E0A4E0B1
:1009B0009A2EFFE0CF2ED12C7FDF282F8091380197
:1009C0009091390101969093390180933801263630
:1009D00009F498C02736CCF42236A1F1233674F4FA
:1009E0002E3361F12F3334F42132B9F22C3309F074
:1009F00006C126C0213609F002C11CC1243609F403
:100A000051C025360CF066C035C02F3609F4BFC082
:100A1000203754F42C3609F4A5C02D3609F4A5C0AE
:100A2000273609F0ECC086C0243709F4CEC026373B
:100A300009F4E2C0223709F0E2C0ADC08394BCCF14
:100A40008A94BACFA0923C01B0923B01109320014E
:100A500000931F01F0921C01E0921B01D0931E0134
:100A6000C0931D0190921A01D0922201C0922101DF
:100A70002BE0F7C0A0923C01B0923B011093200103
:100A800000931F01F0921C01E0921B01D0931E0104
:100A9000C0931D0190921A01D0922201C0922101AF
:100AA00020E0DFC0A0923C01B0923B0110932001F6
:100AB00000931F01F0921C01E0921B01D0931E01D4
:100AC000C0931D0190921A01D0922201C09221017F
:100AD00022E0C7C0A0923C01B0923B0110932001DC
:100AE00000931F01F0921C01E0921B01D0931E01A4
:100AF000C0931D0190921A01D0922201C09221014F
:100B000024E0AFC0A0923C01B0923B0110932001C1
:100B100000931F01F0921C01E0921B01D0931E0173
:100B2000C0931D0190921A01D0922201C09221011E
:100B300025E097C0A0923C01B0923B0110932001A8
:100B400000931F01F0921C01E0921B01D0931E0143
:100B5000C0931D0190921A01D0922201C0922101EE
:100B600027E07FC0C5DE7C0141C0A6DE8C3611F4D3
:100B7000BB2403C0AA24BB24B39480913801909174
:100B800039010196909339018093380115CFB0DE79
:100B9000882E982C11CFA0923C01B0923B0110936B
:100BA000200100931F01F0921C01E0921B01D093E1
:100BB0001E01C0931D0190921A01D0922201C09291
:100BC000210120E0FF24F3944DC092DEBC0180ECB3
:100BD0009DE50E94740FCB01EB01E3E0CC0FDD1F1C
:100BE000EA95E1F7880F991FC80FD91FCE01B70109
:100BF0000E94740F8B01E0CE7BDE6C01DDCEA092F3
:100C00003C01B0923B011093200100931F01F09230
:100C10001C01E0921B01D0931E01C0931D01909214
:100C20001A01D0922201C092210110923901109232
:100C3000380173C0A0923C01B0923B011093200197
:100C400000931F01F0921C01E0921B01D0931E0142
:100C5000C0931D0190921A01D0922201C0922101ED
:100C600029E0FF248CE0889EC0011124E22EE80ECA
:100C70000AC0809138019091390101969093390111
:100C800080933801E39418DE8B3299F3833289F331
:100C90000BC08091380190913901019690933901F0
:100CA00080933801EA9408DE8D3299F3C0911F01D8
:100CB000D09120018153883050F400911D01109192
:100CC0001E0116DEBC01C8010E94740FEB018E01EB
:100CD0000BC08091380190913901019690933901B0
:100CE00080933801C00FD11F16950795E5DD8E3230
:100CF00081F380913B01882339F0CE019695879549
:100D000080933C01C81BD109FF2011F0EE24EA9426
:100D10008E2DBE014091210158DDCDB7DEB7ECE04C
:100D20000C94E70F10926F00909339018093380173
:100D300081E080933D0110923C0105CEF3CF0895F0
:100D40001F920F920FB60F9211242F933F934F9340
:100D50005F936F937F938F939F93AF93BF93EF9323
:100D6000FF9380913E0190913F01019790933F0145
:100D700080933E01019609F580918100887F816012
:100D80008093810080E29EE49093890080938800A4
:100D900010928B0010928A00229881E080931901B2
:100DA00010926F008091380190913901892B29F0C0
:100DB00080913A01882309F4C6DDFF91EF91BF913C
:100DC000AF919F918F917F916F915F914F913F91E3
:100DD0002F910F900FBE0F901F901895282F809184
:100DE0004001882391F481E08093400184B18D7C9F
:100DF00084B985B1826385B981E090E06F9364E046
:100E00006A95F1F76F910197C9F783B180958223B5
:100E100008951F93CF93DF93182F8091400188236B
:100E200091F481E08093400184B18D7C84B985B1D7
:100E3000826385B981E090E06F9364E06A95F1F791
:100E40006F910197C9F7C12FD0E083B190E08C2357
:100E50009D23892BD1F38AE090E0D4D783B190E031
:100E60008C239D23892B89F383B18123DF91CF913B
:100E70001F910895CECF08954AB157985A98289A4D
:100E800021E030E05C9AC9016F9364E06A95F1F764
:100E90006F910197C9F789B15C98F9016F9364E08C
:100EA0006A95F1F76F913197C9F75C9AF9016F93E1
:100EB00064E06A95F1F76F913197C9F75C9887FD07
:100EC000E1CF4AB9089565B190E0AC01417050702E
:100ED000440F551F9C012670307053E0220F331FC2
:100EE0005A95E1F7422B6D7C462B45B92BB18870A2
:100EF000907034E0880F991F3A95E1F72F77282BEF
:100F00002BB95C9A81E090E0FC016F9364E06A95F4
:100F1000F1F76F913197C9F75C986F9364E06A9528
:100F2000F1F76F910197C9F708958AB184618AB981
:100F3000209A84E190E066D780E350D086E090E08C
:100F400061D780E34BD082E090E05CD780E346D06D
:100F500082E090E057D780E241D082E090E052D723
:100F600088E23CD088E03AD081E038D086E036D0C4
:100F70008CE034C080914301882321F481E0809388
:100F80004301D3CF0895CF92DF92EF92FF920F9358
:100F90001F93082F162FEEDF6FDFC4B0D5B0EAB075
:100FA000FBB05A9828988BB1110F110F812B8BB978
:100FB00084B1826384B9579A802F82958F7083DFC2
:100FC000802F8F7080DFFBB8EAB8D5B8C4B81F9106
:100FD0000F91FF90EF90DF90CF90089560E0D3CF16
:100FE000A2E0B0E0E5EFF7E0DEC790E8998390EC8F
:100FF0009A83082F883008F007E0162F611111E05E
:10100000FE01E10FF11D8181800FE8DF00934201B5
:10101000109341012296E4E0E2C7E2CF089581E017
:10102000DDDFE3E2F1E080E2819391E0EB32F9076A
:10103000D9F710924201109241010895F0CF08951E
:101040004F925F926F927F928F929F92AF92BF92D8
:10105000CF92DF92EF92FF920F93DF93CF93CDB7B2
:10106000DEB72A970FB6F894DEBF0FBECDBF4B0197
:101070005C010AE02E010894411C511CC501B40119
:101080002AE030E040E050E043D769017A010150A6
:101090003201600E711CC701B6012AE030E040E069
:1010A00050E0F7D6861A970AA80AB90A882D805DFB
:1010B000F3018083C114D104E104F10459F0460125
:1010C0005701DCCFF701E00FF11D808161E05BDFAC
:1010D0000F5F04C07E010894E11CF11C0A3090F3FC
:1010E0002A960FB6F894DEBF0FBECDBFCF91DF9129
:1010F0000F91FF90EF90DF90CF90BF90AF909F90B7
:101100008F907F906F905F904F900895EF92FF9235
:101110000F931F937B018C0197FF0BC010950095D7
:10112000F094E094E11CF11C011D111D8DE261E0C1
:101130002ADFC801B70184DF1F910F91FF90EF9064
:101140000895E4CF0895CF93DF93EC0103C061E0ED
:101150001ADF2196FE0184918823C9F7DF91CF9190
:101160000895F1CF0895CF93DF93EC0103C021964A
:1011700061E009DF88818823D1F7DF91CF9108955D
:10118000F2CF089561E0FFCEFDCF0895EF92FF9278
:101190000F931F93CF93DF937C01062F10E0E3E0C2
:1011A000000F111FEA95E1F7C0E0D0E09E01200F8B
:1011B000822F806413DFF701EC0FFD1FE4918E2F67
:1011C00061E0E1DE2196C830D10581F7CDB7DEB709
:1011D000E6E003C7DBCF0895519A882311F0599AAE
:1011E000089559980895579A882311F05F9A0895A1
:1011F0005F980895382F883010F528B181E090E08D
:10120000032E02C0880F991F0A94E2F780952823C5
:1012100028B927B1822387B987E880937A00809123
:101220007C00807F80937C0080917C003F70832BCA
:1012300080937C0080917A00806480937A00089586
:10124000A0E0B0E0E5E2F9E0AAC6EB01C7B0D8B093
:10125000D1DF9E01EE24FF24870180917A00806413
:1012600080937A0080917A0086FDFCCF80917C008B
:1012700085FF2CC08091790090E0A0E0B0E0E80EFE
:10128000F91E0A1F1B1F2150304039F7D8B8C7B8C4
:10129000CE0196958795C034D10538F48E0D9F1DEB
:1012A0006C2F70E021D69B010CC0A0E0B0E0E80EEE
:1012B000F91E0A1F1B1F9E0140E050E0C801B70144
:1012C00027D6C901CDB7DEB7E8E085C680917800A2
:1012D00090917900D2CF86E06AE070E0B1DFA0E0C3
:1012E000B0E0BC01CD012CE43DE140E050E0D1D5BF
:1012F0002FEF33E040E050E02DD6C9010895EBCF49
:101300000895089584E491E004C49C01462F84E488
:1013100091E0B90120E072C3682F84E491E004C534
:101320000F93DF93CF9300D000D00F92CDB7DEB7ED
:101330009C01DE011196EBE2F1E085E001900D9257
:101340008150E1F784E491E0BE016F5F7F4F45E09B
:1013500003E176D084E491E05ED084D50F900F90C5
:101360000F900F900F90CF91DF910F910895D8CFEC
:101370000895FC0111821082138212821582148258
:1013800017821682693018F088E0808701C0608774
:10139000208B483078F481E090E002C0880F991FDC
:1013A0004A95E2F781878BE290E0938782878AE211
:1013B00090E029C04E3098F4242F30E0285030407F
:1013C00081E090E002C0880F991F2A95E2F781879B
:1013D00085E290E09387828784E290E014C04431F4
:1013E000A8F4242F30E02E50304081E090E002C07D
:1013F000880F991F2A95E2F7818788E290E093870A
:10140000828787E290E09587848708951586148601
:10141000138612860895CF93DF93EC01EC85FD854A
:10142000309759F080819985892B8083EA85FB85E7
:1014300090818985809589238083DF91CF9108955C
:10144000A0E0B0E0E5E2FAE0AAC5EC016B017901A9
:10145000642F402F20E08DDF19A61AA61BA6FF8659
:10146000EE8630E041E050E096E2E92EF12C03E216
:1014700010E069E270E052C0A32FB0E0F601EA0F7D
:10148000FB1F80818830B0F4FA0102C0EE0FFF1F0D
:101490008A95E2F7CF01FE01EA0FFB1F818B2BA596
:1014A000282B2BA7AA0FBB1FAC0FBD1FFD01728FEE
:1014B000618F33C08E30C0F490E00897FA0102C00B
:1014C000EE0FFF1F8A95E2F7CF01FE01EA0FFB1F27
:1014D000818B29A5282B29A7AA0FBB1FAC0FBD1FE5
:1014E000FD01128F018F19C08431B8F490E00E977E
:1014F000FA0102C0EE0FFF1F8A95E2F7CF01FE014D
:10150000EA0FFB1F818B2AA5282B2AA7AA0FBB1F36
:10151000AC0FBD1FFD01F28EE18E3F5F888538174D
:1015200008F4AACFCDB7DEB7E8E055C5A0E0B0E03B
:10153000EBE9FAE030C5EC015B0149A5AAA58BA453
:1015400090E009C0E92FF0E0EE0FFF1FEA0DFB1D50
:10155000118210829F5F88859817A0F384B139A506
:10156000832B84B987B12AA5822B87B98AB19BA521
:10157000892B8AB985B1832B85B988B1822B88B92B
:101580008BB1892B8BB9EAE0F0E06F9364E06A9548
:10159000F1F76F913197C9F784B13095832384B9FE
:1015A00087B12095822387B98AB1909589238AB91A
:1015B00085B1382335B988B1282328B98BB1982350
:1015C0009BB99090B000C090B1008091B000836052
:1015D0008093B00082E08093B100D090B20060E0D0
:1015E00070E03AC05091B2005D19650F711DE3B013
:1015F000E41609F04FC0F6B0FA1609F04BC089B1F5
:10160000881509F047C025C0A42FB0E09D01220F26
:10161000331F8501020F131FF80180819181892BEF
:10162000A1F42C0F3D1FF901818D928DFC012081C9
:1016300030E0AC0FBD1FFD01818990E028233923E4
:10164000232B19F4F801718360834F5F8885481755
:10165000D8F2D50E4E2DAF2D8E859F856817790750
:1016600008F29092B000C092B10020E00FC0E22FCB
:10167000F0E0EE0FFF1FEA0DFB1D80819181892BA9
:1016800021F48E859F85918380832F5F888528171D
:1016900070F305C0E3B0F6B089B040E0D7CFCDB766
:1016A000DEB7ECE094C4A0E0B0E0E8E5FBE077C48E
:1016B000EC018B01D0907C00E0907A00C7B0F8B0CC
:1016C00080917A0086FDFCCF90E009C0E92FF0E020
:1016D000EE0FFF1FE00FF11F118210829F5F8885C0
:1016E0009817A0F397B18A8D8095982397B998B1F0
:1016F000892388B987E880937A0050E024C0FE01EE
:10170000E40FF11D818980937C0080917A008064D0
:1017100080937A0080917A0086FDFCCFE42FF0E080
:10172000EE0FFF1FE00FF11F20917800309179003C
:1017300080819181820F931F918380834F5F888581
:101740004817E8F25F5F898D581710F040E016C027
:1017500040E0F5CFE42FF0E0EE0FFF1FE00FF11FA8
:10176000698D862F90E09595879520813181820F34
:10177000931F70E0B9D3718360834F5F88854817EA
:1017800048F3D0927C00E0927A00F8B8C7B8CDB7A1
:10179000DEB7E8E020C4A0E1B0E0E0EDFBE0FEC38E
:1017A0008C017B01D42E842F8150823078F4F80193
:1017B000A485B585109751F08C919185892B8C93D8
:1017C000A285B3858C919185892B8C93F8018089B2
:1017D0008823E1F4C02EB12EC801B701A7DEF801BD
:1017E000A485B585109759F08C919185892B8C93A0
:1017F000A285B3859C918185809589238C93F2E0A5
:10180000DF1609F040C08C2D9B2D17C0C801B70111
:101810004ADFF801A485B585109759F08C91918520
:10182000892B8C93A285B3859C9181858095892392
:101830008C93F2E0DF1639F5C801BE016F5F7F4F70
:1018400075DE40E0BE016F5F7F4F19C0842F90E0CE
:10185000880F991FD701A80FB91F860F971FF8018E
:1018600026853785FC0180819181281B390B8D915C
:101870009C911197820F931F8D939C934F5FF8015A
:101880008085481718F36096E9E0A4C3A0E0B0E0B3
:10189000EBE4FCE081C3EC01162F072F942E22E02D
:1018A000421711F0442351F48C819D81892B09F456
:1018B000A1C08E819F81892B09F49CC0892D815004
:1018C000823050F488819981892B09F493C08A81F0
:1018D0009B81892B09F48EC0CE01612F702F492D79
:1018E0005ADF812F902F9C015901CC24DD2400E088
:1018F00010E07AC081E0981669F4EA81FB81E00F7C
:10190000F11F20813181E881F981E00FF11F4081D1
:1019100051813DC0AC81BD81992059F4EE81FF8198
:10192000E00FF11F20813181A00FB11F4D915C911B
:101930002EC0A00FB11F8D919C91E881F981E00F1D
:10194000F11F20813181EE85FF858217930710F406
:10195000AF0105C0A9014E0F5F1F481B590BEE8157
:10196000FF81E00FF11F60817181EA81FB81E00F4F
:10197000F11F80819181EE85FF856817790710F44A
:101980009F0105C09C012E0F3F1F261B370B7901BD
:10199000E41AF50AF1F0F5016081718180E090E0D0
:1019A0009A0140E050E0621B730B840B950B28EE0C
:1019B00033E040E050E06DD2970140E050E0CAD201
:1019C000C901F3E0293E3F0714F088EE93E097FF4A
:1019D00002C080E090E0F501819391935F0108944B
:1019E000C11CD11C0E5F1F4F888590E0C816D90618
:1019F0000CF480CFCDB7DEB7EBE0EAC2A4E0B0E0F4
:101A0000E3E0FDE0C2C28C01F62EE72E2A833EDF22
:101A1000F801F085F9832F2D3E2DC9018C01552445
:101A200044246624772443011C821B82AA24BB24FD
:101A30006501F8EE2F2EF3E03F2E31C0D801ED9076
:101A4000FC90BA81BB2321F0F101EE19FF097F015F
:101A5000F9ECEF16F10414F04424439423E3E21666
:101A6000F10494F0B701882777FD8095982FA6019F
:101A700095010FD2660E771E881E991E8B819C8160
:101A80008E0D9F1D9C838B83539488EE93E0A0E082
:101A9000B0E0A80EB91ECA1EDB1E0E5F1F4F998153
:101AA000591660F2442021F5692F70E084EF91E02F
:101AB000DC016A9FC0016B9F900D7A9F900D1124ED
:101AC000845F91402091700130917101281739078E
:101AD0001CF440E050E019C088EE93E0689FA0013C
:101AE000699F500D789F500D1124485E53400DC0E2
:101AF000EB81FC819F0140E050E0C401B30108D2BA
:101B0000A9013093710120937001CA012496E2E18A
:101B100058C2CF93DF93EC018A819B81009711F02B
:101B20000E944F028E819F81009711F00E944F0208
:101B300088819981009711F00E944F028C819D81CC
:101B4000009711F00E944F02DF91CF910895A3E317
:101B5000B0E0ECEAFDE019C27C015B016A0129AB4F
:101B6000DA018D919C91892B11F5F701808590E028
:101B7000880F991F0E94A301D6018D939C93009713
:101B800009F4CFC020E030E00CC0C901880F991FD4
:101B9000D601ED91FC91E80FF91F118210822F5FA1
:101BA0003F4FF701808590E02817390774F3D5017E
:101BB0008D919C91892B89F000E010E03E01089402
:101BC000611C711C91E2292E312C2C0E3D1E81E1ED
:101BD000482E512C4C0E5D1E27C0F701808590E0E9
:101BE000880F991F0E94A301D5018D939C930097A4
:101BF00009F497C020E030E010C0C901880F991F98
:101C0000F50140815181480F591FF701868597855D
:101C1000DA018D939C932F5F3F4FF701808590E011
:101C20002817390754F3C8CFC701B30149A9B3DD59
:101C3000F7018085882E9924A101F3015BAA4AAAA5
:101C400060E070E02CC00115110549F0AAA9BBA9FC
:101C50002D913C91808191812817390748F480812A
:101C60009181AAA9BBA98D939C930115110541F0FF
:101C7000DA012D913C91808191818217930728F49C
:101C800080819181DA018D939C936F5F7F4F4E5FCE
:101C90005F4F32968AA99BA902969BAB8AAB6815C7
:101CA00079058CF20F5F1F4F0A30110509F0BCCF88
:101CB00040E050E020E030E08E010F5D1F4FBE019C
:101CC0006F5E7F4F28C0F801E20FF31F8080918084
:101CD000F601A081B181A20FB31F8D919C91119744
:101CE0008815990510F48D929C92FB01E20FF31F69
:101CF00080809180F501A081B181A20FB31F8D91E9
:101D00009C9111978816990610F48D929C924F5FC2
:101D10005F4F2E5F3F4FF701808590E048175907CE
:101D200094F2E396E2E14DC11F93CF93DF93EC0170
:101D3000162F862F8150823038F4AE014E5F5F4FF0
:101D4000CE01BE0121E003DF123011F0112341F476
:101D5000AE014A5F5F4FCE012496BE0120E0F7DE60
:101D6000DF91CF911F9108951F920F920FB60F929E
:101D700011242F933F934F938F939F93AF93BF93D0
:101D80002091780130917901C90180509C4F909346
:101D900079018093780180519742C8F08091740155
:101DA00090917501A0917601B09177010196A11DE6
:101DB000B11D8093740190937501A0937601B09347
:101DC0007701205133423093790120937801BF91FC
:101DD000AF919F918F914F913F912F910F900FBE97
:101DE0000F901F90189528EE33E009C0F9016F930A
:101DF00064E06A95F1F76F913197C9F70197009701
:101E0000A9F7089528EE33E009C0F9016F9364E063
:101E10006A95F1F76F913197C9F701970097A9F784
:101E20000895A0E7B0E08C918E7F8C93E0EBF0E01A
:101E3000808183608083E1EBF0E08081807F80831C
:101E4000808182608083B89A8C9181608C93789431
:101E5000089580917A01882321F481E080937A01AA
:101E6000E0CF0895F6DFE0E7F0E080818E7F8083A9
:101E70001092740110927501109276011092770100
:101E80001092790110927801B89A808181608083E4
:101E90000895629FD001739FF001829FE00DF11DB4
:101EA000649FE00DF11D929FF00D839FF00D749FD4
:101EB000F00D659FF00D9927729FB00DE11DF91F80
:101EC000639FB00DE11DF91FBD01CF0111240895DD
:101ED000991B79E004C0991F961708F0961B881F7C
:101EE0007A95C9F780950895AA1BBB1B51E107C0DD
:101EF000AA1FBB1FA617B70710F0A61BB70B881F9A
:101F0000991F5A95A9F780959095BC01CD01089528
:101F1000A1E21A2EAA1BBB1BFD010DC0AA1FBB1FED
:101F2000EE1FFF1FA217B307E407F50720F0A21B5F
:101F3000B30BE40BF50B661F771F881F991F1A94CC
:101F400069F760957095809590959B01AC01BD01F6
:101F5000CF01089597FB092E05260ED057FD04D01A
:101F6000D7DF0AD0001C38F4509540953095219564
:101F70003F4F4F4F5F4F0895F6F7909580957095BE
:101F800061957F4F8F4F9F4F08952F923F924F92B1
:101F90005F926F927F928F929F92AF92BF92CF92F9
:101FA000DF92EF92FF920F931F93CF93DF93CDB702
:101FB000DEB7CA1BDB0B0FB6F894DEBF0FBECDBF7A
:101FC00009942A88398848885F846E847D848C844B
:101FD0009B84AA84B984C884DF80EE80FD800C8154
:101FE0001B81AA81B981CE0FD11D0FB6F894DEBF37
:101FF0000FBECDBFED010895EE0FFF1F0590F491C8
:10200000E02D099410E0C6ECD0E003C0FE01F6DF3D
:0C2010002296C83CD107D1F7F894FFCF0E
:10201C006D56005072657373204200476F2100208B
:10202C000000010203040506FF01040400D007F4BC
:10203C00010F0020202020202020200E0F10111234
:06204C0020007F010000EE
:00000001FF
