:1000000033C000004CC000004AC0000048C00000DF
:1000100046C0000044C0000042C0000040C00000D4
:100020003EC0000068C100003AC0000038C00000B7
:1000300036C0000034C0000032C0000030C00000F4
:100040002EC000002CC000002AC0000028C0000004
:1000500026C0000024C0000022C0000020C0000014
:100060001EC000001CC0000011241FBECFEFD8E04E
:10007000DEBFCDBF11E0A0E0B1E0E2E2F4E002C0FB
:1000800005900D92AE30B107D9F711E0AEE0B1E0C6
:1000900001C01D92A831B107E1F702D0C0C1B0CFB5
:1000A00080E091E00CD188EC90E064D181E063E0E5
:1000B00048EC50E01ED1F4D083E090E061E070E0C5
:1000C000DED080E091E0FBD088EC90E053D180E07E
:1000D00063E048EC50E00DD1E3D0E2CF4AB157984D
:1000E0005A98289A21E030E05C9AC9016F9364E045
:1000F0006A95F1F76F910197C9F789B15C98F90199
:100100006F9364E06A95F1F76F913197C9F75C9A44
:10011000F9016F9364E06A95F1F76F913197C9F730
:100120005C9887FDE1CF4AB9089565B190E0AC01D4
:1001300041705070440F551F9C012670307053E081
:10014000220F331F5A95E1F7422B6D7C462B45B9A0
:100150002BB18870907034E0880F991F3A95E1F7C1
:100160002F77282B2BB95C9A81E090E0FC016F93EC
:1001700064E06A95F1F76F913197C9F75C986F93D6
:1001800064E06A95F1F76F910197C9F708958AB114
:1001900084618AB9209A84E190E0FBD080E350D05A
:1001A00086E090E0F6D080E34BD082E090E0F1D0A2
:1001B00080E346D082E090E0ECD080E241D082E063
:1001C00090E0E7D088E23CD088E03AD081E038D0B7
:1001D00086E036D08CE034C080911001882321F471
:1001E00081E080931001D3CF0895CF92DF92EF92F8
:1001F000FF920F931F93082F162FEEDF6FDFC4B00F
:10020000D5B0EAB0FBB05A9828988BB1110F110FF6
:10021000812B8BB984B1826384B9579A802F8295E0
:100220008F7083DF802F8F7080DFFBB8EAB8D5B87E
:10023000C4B81F910F91FF90EF90DF90CF90089579
:1002400060E0D3CFA2E0B0E0E7E2F1E0BFC090E829
:10025000998390EC9A83082F883008F007E0162FD6
:10026000611111E0FE01E10FF11D8181800FE8DFD6
:1002700000930F0110930E012296E4E0C3C0E2CF79
:10028000089581E0DDDFE6E0F1E080E2819391E036
:10029000EE30F907D9F710920F0110920E01089570
:1002A000F0CF0895CF93DF93EC0103C0219661E076
:1002B0009CDF88818823D1F7DF91CF910895F2CF19
:1002C00008950F931F93CF93DF93082F162FEA0102
:1002D00009C0002311F488E101C08CE1B1DFCE0137
:1002E00058D011501123A9F7DF91CF911F910F9191
:1002F0000895E7CF08951F920F920FB60F92112421
:100300002F933F934F938F939F93AF93BF932091DE
:10031000150130911601C90180509C4F9093160130
:100320008093150180519742C8F0809111019091FE
:100330001201A0911301B09114010196A11DB11DEC
:100340008093110190931201A0931301B0931401B3
:10035000205133423093160120931501BF91AF9184
:100360009F918F914F913F912F910F900FBE0F90C2
:100370001F90189528EE33E009C0F9016F9364E0EF
:100380006A95F1F76F913197C9F701970097A9F72F
:10039000089528EE33E009C0F9016F9364E06A958F
:1003A000F1F76F913197C9F701970097A9F7089571
:1003B0002F923F924F925F926F927F928F929F9275
:1003C000AF92BF92CF92DF92EF92FF920F931F9363
:1003D000CF93DF93CDB7DEB7CA1BDB0B0FB6F89414
:1003E000DEBF0FBECDBF09942A88398848885F8454
:1003F0006E847D848C849B84AA84B984C884DF80C5
:10040000EE80FD800C811B81AA81B981CE0FD11DA8
:100410000FB6F894DEBF0FBECDBFED010895F8947E
:02042000FFCF0C
:0E04220048656C6C6F002020202020202020D8
:00000001FF
