:1000000047C0000060C000005EC000005CC000008F
:100010005AC0000058C0000056C0000054C0000084
:1000200052C0000096C200004EC000004CC000004C
:100030004AC0000048C0000046C0000044C00000A4
:1000400042C0000040C000003EC000003CC00000B4
:100050003AC0000038C0000036C0000034C00000C4
:1000600032C0000030C00000000A0A0A00110E0071
:10007000000A0A0A000E1100000A0A0A00000E0017
:10008000000A0A000E11110E000A0A0A001F0502DA
:1000900011241FBECFEFD8E0DEBFCDBF11E0A0E03E
:1000A000B1E0E8E1F7E002C005900D92A631B1079A
:1000B000D9F711E0A6E1B1E001C01D92A132B1076C
:1000C000E1F702D027C39CCFEF92FF920F931F93CB
:1000D00088E690E060E03BD280E790E061E037D2D4
:1000E00088E790E062E033D280E890E063E02FD2CE
:1000F00088E890E064E02BD2F1D180E091E0FDD17E
:1001000082E308D1EE24FF24870105C00894E11C96
:10011000F11C011D111D82E372D08823B9F7C801BB
:10012000B70164D086E090E060E070E0C6D15BD0BB
:1001300025E030E040E050E09BD280910801681754
:10014000B1F360930801862FDCD182E3E1D0EACFDE
:10015000A0E0B0E0EDEAF0E0AEC2EC01A880B9802A
:10016000CA80DB80A114B104C104D10441F484E24B
:10017000A82E89EDB82E8BE5C82E87E0D82EC601B3
:10018000B5012DE133EF41E050E072D227EA31E4CE
:1001900040E050E02CD27B018C01C601B5012DE17D
:1001A00033EF41E050E064D2CA01B9012CEE34EFE4
:1001B0004FEF5FEF1CD26E0D7F1D801F911F97FFC9
:1001C00004C06150704080409048688379838A837E
:1001D0009B839B01AC015F77B901CA01CDB7DEB744
:1001E000EAE085C2B5CF81E191E0B2CF6093110121
:1001F0007093120180931301909314010895282F96
:1002000080911601882391F481E08093160184B1D6
:100210008D7C84B985B1826385B981E090E06F936C
:1002200064E06A95F1F76F910197C9F783B1809502
:10023000822308951F93CF93DF93182F8091160187
:10024000882391F481E08093160184B18D7C84B978
:1002500085B1826385B981E090E06F9364E06A952F
:10026000F1F76F910197C9F7C12FD0E083B190E00A
:100270008C239D23892BD1F38AE090E0A9D183B10F
:1002800090E08C239D23892B89F383B18123DF9117
:10029000CF911F9108951F93CF93DF93182F8091D3
:1002A0001601882391F481E08093160184B18D7C3E
:1002B00084B985B1826385B981E090E06F9364E091
:1002C0006A95F1F76F910197C9F7C12FD0E083B11B
:1002D00090E0809590958C239D23892BC1F38AE033
:1002E00090E076D183B190E0809590958C239D230A
:1002F000892B69F383B180958123DF91CF911F9181
:1003000008951F93C8DF182F95DF812F1F9108953F
:10031000F8CF0895C0CF08954AB157985A98289AAF
:1003200021E030E05C9AC9016F9364E06A95F1F7CF
:100330006F910197C9F789B15C98F9016F9364E0F7
:100340006A95F1F76F913197C9F75C9AF9016F934C
:1003500064E06A95F1F76F913197C9F75C9887FD72
:10036000E1CF4AB9089565B190E0AC014170507099
:10037000440F551F9C012670307053E0220F331F2D
:100380005A95E1F7422B6D7C462B45B92BB188700D
:10039000907034E0880F991F3A95E1F72F77282B5A
:1003A0002BB95C9A81E090E0FC016F9364E06A9560
:1003B000F1F76F913197C9F75C986F9364E06A9594
:1003C000F1F76F910197C9F708958AB184618AB9ED
:1003D000209A84E190E0FCD080E350D086E090E069
:1003E000F7D080E34BD082E090E0F2D080E346D0BB
:1003F00082E090E0EDD080E241D082E090E0E8D071
:1004000088E23CD088E03AD081E038D086E036D02F
:100410008CE034C080911901882321F481E080931D
:100420001901D3CF0895CF92DF92EF92FF920F93ED
:100430001F93082F162FEEDF6FDFC4B0D5B0EAB0E0
:10044000FBB05A9828988BB1110F110F812B8BB9E3
:1004500084B1826384B9579A802F82958F7083DF2D
:10046000802F8F7080DFFBB8EAB8D5B8C4B81F9171
:100470000F91FF90EF90DF90CF90089560E0D3CF81
:10048000A2E0B0E0E5E4F2E01CC190E8998390ECD2
:100490009A83082F883008F007E0162F611111E0C9
:1004A000FE01E10FF11D8181800FE8DF009318014B
:1004B000109317012296E4E020C1E2CF089581E075
:1004C000DDDFE9E0F1E080E2819391E0E131F907DD
:1004D000D9F710921801109217010895F0CF0895DE
:1004E000CF93DF93EC0103C0219661E09CDF88810C
:1004F0008823D1F7DF91CF910895F2CF089561E07D
:1005000092CFFDCF0895EF92FF920F931F93CF9359
:10051000DF937C01062F10E0E3E0000F111FEA9546
:10052000E1F7C0E0D0E09E01200F822F8064A6DFBB
:10053000F701EC0FFD1FE4918E2F61E074DF21962F
:10054000C830D10581F7CDB7DEB7E6E0D4C0DBCF48
:1005500008951F920F920FB60F9211242F933F937D
:100560004F938F939F93AF93BF9320911E01309130
:100570001F01C90180509C4F90931F0180931E0161
:1005800080519742C8F080911A0190911B01A0916F
:100590001C01B0911D010196A11DB11D80931A018E
:1005A00090931B01A0931C01B0931D012051334275
:1005B00030931F0120931E01BF91AF919F918F91A6
:1005C0004F913F912F910F900FBE0F901F90189554
:1005D00028EE33E009C0F9016F9364E06A95F1F702
:1005E0006F913197C9F701970097A9F70895629F16
:1005F000D001739FF001829FE00DF11D649FE00D1B
:10060000F11D929FF00D839FF00D749FF00D659F7B
:10061000F00D9927729FB00DE11DF91F639FB00D7A
:10062000E11DF91FBD01CF0111240895A1E21A2E89
:10063000AA1BBB1BFD010DC0AA1FBB1FEE1FFF1F86
:10064000A217B307E407F50720F0A21BB30BE40BD6
:10065000F50B661F771F881F991F1A9469F760951D
:100660007095809590959B01AC01BD01CF010895D7
:1006700097FB092E05260ED057FD04D0D7DF0AD0F0
:10068000001C38F450954095309521953F4F4F4FC1
:100690005F4F0895F6F790958095709561957F4F1F
:1006A0008F4F9F4F08952F923F924F925F926F927C
:1006B0007F928F929F92AF92BF92CF92DF92EF92F2
:1006C000FF920F931F93CF93DF93CDB7DEB7CA1B73
:1006D000DB0B0FB6F894DEBF0FBECDBF09942A889E
:1006E000398848885F846E847D848C849B84AA8446
:1006F000B984C884DF80EE80FD800C811B81AA81D3
:10070000B981CE0FD11D0FB6F894DEBF0FBECDBF9D
:08071000ED010895F894FFCFFC
:100718006D6F6F643A203F000520202020202020A4
:06072800200100000000AA
:00000001FF
