:1000000033C000004CC000004AC0000048C00000DF
:1000100046C0000044C0000042C0000040C00000D4
:100020003EC0000060C000003AC0000038C00000C0
:1000300036C0000034C0000032C0000030C00000F4
:100040002EC000002CC000002AC0000028C0000004
:1000500026C0000024C0000022C0000020C0000014
:100060001EC000001CC0000011241FBECFEFD8E04E
:10007000DEBFCDBF11E0A0E0B1E0E6E8F1E002C0F4
:1000800005900D92A030B107D9F711E0A0E0B1E0E2
:1000900001C01D92A730B107E1F702D072C0B0CF06
:1000A00081E013D088EE93E05DD080E00ED088EE42
:1000B00093E058D081E010D084EF91E053D080E0FD
:1000C0000BD084EF91E04ED0EBCF519A882311F002
:1000D000599A089559980895579A882311F05F9A6C
:1000E00008955F9808951F920F920FB60F921124F2
:1000F0002F933F934F938F939F93AF93BF932091F1
:10010000040130910501C90180509C4F9093050175
:100110008093040180519742C8F080910001909132
:100120000101A0910201B09103010196A11DB11D31
:100130008093000190930101A0930201B093030109
:10014000205133423093050120930401BF91AF91B8
:100150009F918F914F913F912F910F900FBE0F90D4
:100160001F90189528EE33E009C0F9016F9364E001
:100170006A95F1F76F913197C9F701970097A9F741
:060180000895F894FFCF82
:00000001FF
