:100000003BC2000055C2000053C2000051C20000B4
:100010004FC200004DC200004BC2000049C20000A8
:1000200047C200000C94D81043C2000041C2000037
:100030003FC200000C94640D3BC2000039C20000B6
:1000400037C2000035C2000033C2000031C20000D8
:100050002FC200002DC200002BC2000029C20000E8
:1000600027C2000025C20000D00AD60AD90ADC0A3D
:10007000DF0AE20AE50AE80AEB0AEE0AF10AF40AE4
:1000800020506F6C6F6C7500204C562D3332380049
:1000900044656D6F0050726F6772616D00557365D6
:1000A000204220746F0073656C6563742E0050727B
:1000B0006573732042002D747279206974210020C9
:1000C0005468616E6B20002020796F75210020201C
:1000D0004D61696E0020204D656E750054656D7030
:1000E000004C454473004C4344004D6F746F727371
:1000F000004D75736963005472696D706F740054BC
:10010000696D6572007F4120A54220437E00064252
:10011000003E6733323E3E633332003E3E6333324D
:100120003E673332002163333200216533320021D0
:10013000673332002176383E3E63333200000000E0
:10014000000000001F1F1F1F1F1F1F0406050504BE
:100150001C1C0000020105091E08044F36205434FF
:1001600030204C31362064233C623C66233C6423BF
:100170003C66233C62642366235438302063233C6E
:10018000622D3C66233C63233C66233C622D632343
:100190003854313830206423623C6623642366235C
:1001A0003E62642366236323622D3C6623632366D9
:1001B000233E622D63233820633E63233C63233E4A
:1001C00063233C623E63233C63233E6323633E63BD
:1001D000233C63233E63233C623E63233C63233E14
:1001E0006323633E63233C63233E63233C622D3ED3
:1001F00063233C63233E6323633E63233C63233ECC
:1002000063233C622D3E63233C63233E6323633EB2
:1002100063233C63233E6323663E63233C63233EA8
:100220006323633E63233C63233E6323663E632371
:100230003C63233E6323633E63233C63233E63238B
:1002400066233E63233C63233E6323633E63233C78
:1002500063233E632366233E63233C63233E632381
:10026000642362622D6264236266236423632362D3
:100270002D61622D6323622D6623642300202020DC
:1002800020202020072048756E67617269616E200A
:1002900052686170736F6479204E6F2E2032202D6A
:1002A000206279204672616E7A204C69737A7420DC
:1002B00007202020202020200021204F35204C31F5
:1002C000362061676166616561206461632B6164EA
:1002D0006165612066613C61613C6261632361200C
:1002E00064616323616461656120664F36206463E5
:1002F000643C622D643C61643C6720643C662B6412
:100300003C67643C61643C622D20643C64643C65F1
:10031000643C662B643C6720643C662B643C6764E9
:100320003C61644C38204D53203C622D643C622D6E
:1003300064204D4C652D3C67652D3C67204D536313
:100340003C61633C61204D4C20643C66643C66200B
:100350004F35204D5320622D67622D674D4C203E56
:100360006323653E632365204D53206166616620EB
:100370004D4C20676323676323204D5320666466DA
:1003800064204D4C20653C622D653C622D4F36202B
:100390004C31367261676166616561206461632317
:1003A00061646165612066613C61613C62616323F7
:1003B00061206461632361646165612066616561D8
:1003C000646163613C622D61636164673C622D67B7
:1003D000206567646763673C622D67203C61673C0A
:1003E000622D6763663C616620646663663C622DCD
:1003F000663C61663C67663C61663C622D653C67B5
:1004000065206323653C622D653C61653C67652022
:100410003C66653C67653C61643C66644F352065BD
:100420003E65653E65663E64663E6420622D3E63C1
:1004300023622D3E6323613E64663E6420653E6513
:10044000653E65663E64663E64653E643E63233E8B
:1004500064623E643E632362203E6323616761659C
:100460006766652066204F36206463236466646394
:10047000233C62206323340011241FBECFEFD8E059
:10048000DEBFCDBF11E0A0E0B1E0E6EAF4E202C0D9
:1004900005900D92A839B107D9F711E0A8E9B1E0AC
:1004A00001C01D92AB3CB107E1F7EBD60C945112A1
:1004B000A7CDCF93DF93C0E0D0E08AE090E00E9428
:1004C000171180E10E94B20D882311F081E005C070
:1004D0002196C931D10589F780E0DF91CF91089548
:1004E0001F93882319F4CB0114D702C0CB0134D752
:1004F00082E090E00E94171180E30E94B20D182F55
:10050000882359F080E00E94131080E00E941A10A6
:1005100080E090E060E070E02AD7812F1F9108957D
:10052000EF92FF920F931F93CF93DF930E94260FBA
:1005300080E091E00E94E70F80E090E061E070E0F1
:100540000E94150F87E091E00E94E70F10E000E0A5
:10055000112309F401E0802F0E941310EE24FF24E0
:10056000112319F481E0E82EF12C87E090E0B70127
:100570000E94150F8EE091E00E94E70F87E090E067
:10058000612F70E00E94150F80E191E00E94E70F5B
:1005900081E00E941A10C0E0D0E0812FBE01A0DFF0
:1005A000882361F52196CF3FD105B9F710C08FEFB1
:1005B000CF3FD80761F480E00E941A1087E090E0F6
:1005C000B7010E94150F82E191E00E94E70F812F91
:1005D000BE0186DF882391F421978FEFC230D807C0
:1005E00034F7C1E0DFEF812FBE017ADF882331F4D9
:1005F0002196C130D105B9F7102FA9CFCDB7DEB7FD
:10060000E6E00C943C120F931F9382E00E94B20D1F
:1006100020919801309199018823E9F0232B89F4E6
:1006200088EC90E00E94171182E00E94B20D8823AE
:1006300041F490E08091B301882309F491E0909314
:10064000B30180919801909199010A969093990134
:100650008093980106C02451304030939901209333
:10066000980180E20E94B20D20919A0130919B0185
:100670008823E9F0232B89F488EC90E00E9417117D
:1006800080E20E94B20D882341F490E08091B20193
:10069000882309F491E09093B20180919A0190919E
:1006A0009B010A9690939B0180939A0106C0245166
:1006B000304030939B0120939A0180919801909152
:1006C000990197FF04C010929901109298018091AE
:1006D0009801909199018F3F910539F034F08FEF97
:1006E00090E0909399018093980180919A01909164
:1006F0009B0197FF04C010929B0110929A01809178
:100700009A0190919B018F3F910539F034F08FEF62
:1007100090E090939B0180939A0180919801909131
:1007200099016AE170E00E94C411FB01E458FE4F98
:10073000108180919A0190919B016AE170E00E9482
:10074000C411FB01E458FE4F0081812F0E94EB0F82
:100750008091B301882311F481E401C081E60E94F5
:10076000EB0F812F0E94EB0F85E090E060E070E0DE
:100770000E94150F802F0E94EB0F8091B2018823F9
:1007800011F483E401C083E60E94EB0F802F0E94E6
:10079000EB0FE0919801F09199018091B3018823CA
:1007A00019F441E050E002C04FEF5FEF20919A0151
:1007B00030919B018091B201882319F481E090E08F
:1007C00002C08FEF9FEF829FB001839F700D929FB9
:1007D000700D11244E9FC0014F9F900D5E9F900D94
:1007E0001124C5D582E390E00E9417111F910F914B
:1007F0000895DF920F931F93DF93CF9300D000D023
:10080000CDB7DEB780E00E94131080E00E941A107E
:100810000E94260F84E191E00E94E70F81E00E9490
:10082000211000E875C0DD24D3940E94831117B80D
:1008300018B88AB18C7F8AB98BB18C7F8BB928B1FB
:10084000802F90E0809590959595879595958795C3
:10085000282B28B997B1802F86958695892B87B943
:100860009BB1802F80958370892B8BB99AB1802F93
:100870008370892B8AB989B116B1110F110F83705A
:10088000182B80E090E061E070E00E94150F812F4E
:100890000E94450F84E190E00E94171182E20E94BD
:1008A000B20D982F882399F017B818B88AB18C7FA9
:1008B0008AB98BB18C7F8BB9892F0F900F900F90D5
:1008C0000F90CF91DF911F910F91DF9008950E94BB
:1008D0006A1169837A838B839C830E94A210880F9C
:1008E000991FA0E0B0E029813A814B815C812817F3
:1008F00039074A075B0708F4BECFDD2011F0000F6F
:1009000001C00695013009F48ECF003809F08DCF73
:10091000DD248BCF8F929F92AF92BF92CF92DF92C6
:10092000EF92FF921F93CF93DF9389EB92E00E94A7
:10093000550D80E00E94131080E00E941A100E9462
:10094000260F8DE191E00E94E70F80E090E061E0EA
:1009500070E00E94150F85E291E00E94E70F0E946F
:100960008311C0E0D0E078EE872E73E0972E6EEE14
:10097000A62E62E0B62E54EFC52E51E0D52E4AEFDA
:10098000E42EF12C0E946A116530710581059105F4
:10099000F0F00E94831182E10E94B20D182F88238B
:1009A00071F0F5D4812FDF91CF911F91FF90EF90DF
:1009B000DF90CF90BF90AF909F908F900895259635
:1009C00083E0C83ED8071CF0C0E0D0E003C0CA3FB7
:1009D000D10594F481E00E9413102196CE016F930B
:1009E00064E06A95F1F76F910197C9F7219780E06C
:1009F0000E941310C70138C081E0C43FD807ECF44F
:100A000081E00E941310C6018C1B9D0B6F9364E064
:100A10006A95F1F76F910197C9F780E00E94131072
:100A2000C95FD040CE016F9364E06A95F1F76F9192
:100A30000197C9F7C750DF4FA5CF82E0CE3ED80758
:100A4000ECF481E00E941A10C35FD140CE016F9395
:100A500064E06A95F1F76F910197C9F7CD50DE4FC9
:100A600080E00E941A10C5018C1B9D0B6F9364E0FF
:100A70006A95F1F76F910197C9F784CF81E00E94E1
:100A80001A10C4018C1B9D0B6F9364E06A95F1F7FB
:100A90006F910197C9F780E00E941A10CD5ED24095
:100AA000CE016F9364E06A95F1F76F910197C9F7F2
:100AB000C351DD4F67CF0F931F930E94260F88EC21
:100AC00090E00E9417118BE291E00E94E70F80E90D
:100AD00091E00E94171180E090E061E070E00E94D8
:100AE000150F84E391E00E94E70F88EE93E00E94E7
:100AF00017110E94260F8CE391E00E94E70F0E94DD
:100B0000C4108C0181E090E061E070E00E94150F5C
:100B1000C8016AE070E00E94C411882777FD8095C3
:100B2000982F0E94C80F84E491E00E94E70FC8014B
:100B30006AE070E00E94C411AA2797FDA095BA2F21
:100B4000BC01CD010E94C80F8FED0E94EB0F86E41F
:100B500091E00E94E70F82E390E00E94171182E388
:100B60000E94B20D882359F285FF02C0D3DEFCCF6C
:100B700084FF02C03EDEF8CF81FFF6CFD1DCF4CF98
:100B8000EF92FF920F931F938C017B010E94260F1F
:100B9000C8010E94D80F80E090E061E070E00E9400
:100BA000150FC7010E94D80F88EE93E00E9417111D
:100BB0001F910F91FF90EF9008951F93CF93DF93B4
:100BC0008EEC90E065ED70E0DBDFC5E0D0E00E94E8
:100BD000260F80E090E061E070E00E94150F85E054
:100BE00091E00E94D80F80E090E060E070E00E9409
:100BF000150FE0919C01F0919D01EE0FFF1FE1594F
:100C0000FE4F808191810E94D80F81E00E94F60EF4
:100C100082E3A8D78823E1F782E30E94360E182FDB
:100C2000992787FD909581FF09C085E291E03DD726
:100C300080919C0190919D01019751C084FF45C016
:100C40000E94EE0E0E94260F8AE291E02ED7812F9D
:100C5000D5D71CC080E090E061E070E00E94150FE5
:100C60008EE091E00E94D80F80E090E060E070E0BC
:100C70000E94150FE0919C01F0919D01EE0FFF1F66
:100C8000ED59FE4F0190F081E02D099580E16AD782
:100C9000882301F380E090E060E070E068D377D3D0
:100CA000109299011092980110929B0110929A0152
:100CB00080E00E94131080E00E941A108AE291E006
:100CC000F4D6DF91CF911F91089585FF0CC08FE27C
:100CD00091E0EBD680919C0190919D0101969093BB
:100CE0009D0180939C0180919C0190919D0197FFB3
:100CF00004C0D0939D01C0939C0180919C01909170
:100D00009D0106970CF463CF10929D0110929C01F7
:100D10005ECF1F9382E3AAD7182F992787FD90955E
:100D200081FF03C085E291E007C084FF03C08AE22F
:100D300091E002C08FE291E0B8D6812F5FD7812F7A
:100D40001F910895EF92FF920F931F930E946A11D3
:100D50007B018C018091A1019091A201A091A3013E
:100D6000B091A4010097A105B10501F18091A901FD
:100D70009091AA01A091AB01B091AC012091A50185
:100D80003091A6014091A7015091A801821B930BBD
:100D9000A40BB50B8E0D9F1DA01FB11F8093A90141
:100DA0009093AA01A093AB01B093AC01E092A5018E
:100DB000F092A6010093A7011093A80182E0D2D679
:100DC0008823E9F08091A0018823C9F481E0809311
:100DD000A0011092A1011092A2011092A301109201
:100DE000A4011092A9011092AA011092AB011092D5
:100DF000AC01BFD2882319F485E291E056D682E097
:100E0000B1D6882311F41092A00180E2ABD68823DA
:100E100031F180919F01882311F581E080939F013A
:100E200020E030E040E050E08091A1019091A201EB
:100E3000A091A301B091A4010097A105B10521F4EF
:100E400021E030E040E050E02093A1013093A20186
:100E50004093A3015093A4018FE291E026D680E253
:100E600081D6882311F410929F016091A90170919D
:100E7000AA018091AB019091AC0120EC37E249E0EE
:100E800050E00E94F911CA01B9012AE030E040E0C7
:100E900050E00E94F9110E94C80F6091A901709161
:100EA000AA018091AB019091AC0120E63AEE40E0BE
:100EB00050E00E94F911CA01B9012AE030E040E097
:100EC00050E00E94F9110E94C80F8AE30E94EB0FC4
:100ED0006091A9017091AA018091AB019091AC0140
:100EE00028EE33E040E050E00E94F911CA01B90158
:100EF0002CE330E040E050E00E94F9112AE030E0BD
:100F000040E050E00E94F911CA01B9010E94C80FE7
:100F10006091A9017091AA018091AB019091AC01FF
:100F200028EE33E040E050E00E94F911CA01B90117
:100F30002CE330E040E050E00E94F9112AE030E07C
:100F400040E050E00E94F911162F772767FD709559
:100F5000872F972F0E94C80F8EE20E94EB0F60919F
:100F6000A9017091AA018091AB019091AC0124E696
:100F700030E040E050E00E94F911CA01B9012AE0D6
:100F800030E040E050E00E94F9110E94C80F6091EB
:100F9000A9017091AA018091AB019091AC012AE066
:100FA00030E040E050E00E94F911CA01B9012AE0A6
:100FB00030E040E050E00E94F911EAD780919E01B4
:100FC000181791F08091A9019091AA01A091AB010D
:100FD000B091AC010097A105B10531F0CAD18823C9
:100FE00019F484E391E061D510939E011F910F9154
:100FF000FF90EF900895CF93DF930E946A112091A4
:10100000AD013091AE014091AF015091B001621B32
:10101000730B840B950B6B3F71058105910548F1AE
:10102000C0E0D0E0E091B101FF27E7FDF095EC0FC3
:10103000FD1FE358FD4FE4918E2FCDD72196C83088
:10104000D10581F70E946A116093AD017093AE01E2
:101050008093AF019093B0018091B1018F5F809335
:10106000B101992787FD90950896CC9710F01092C2
:10107000B1017FD1882319F48BE591E016D584E680
:1010800090E00E941711DF91CF910895FF920F9386
:10109000DF93CF9300D0CDB7DEB70E946A11F62E52
:1010A00080E0CFD70E94A210A0E0B0E0BC01CD014B
:1010B0006FD78AE491E08BD719C00E94A2109A835F
:1010C000898368EC70E04FE03DD22AE00202C00163
:1010D0001124E981FA81E817F90724F480E0A3D705
:1010E00081E003C081E09FD780E0A4D70E946A110D
:1010F000062F0F1904360CF30F900F90CF91DF914C
:101100000F91FF9008958EE491E0DCD482E591E0A8
:101110005ED781E088D7CDD98823B1F484D7C9D9E7
:10112000882391F488E591E0CDD480E090E060E000
:1011300070E07BD68DE591E04AD781E07BD7B9D9C5
:10114000882311F477D7B5C90895CF93DF938091A1
:10115000B4019091B501892B19F00E94D61002C0FC
:101160000E94C410EC016AE070E00E94C41188275C
:1011700077FD8095982F0CD784E491E028D7CE0195
:101180006AE070E00E94C411AA2797FDA095BA2FCB
:10119000BC01CD01FDD68FED1ED78091B401909199
:1011A000B501892B11F083E401C086E414D782E0F5
:1011B000D9D4882331F081E090E09093B5018093F9
:1011C000B40180E2CFD4882321F01092B5011092AF
:1011D000B40184E690E00E941711DF91CF91089549
:1011E0000F931F930DE311E0C80160E01AD7C80107
:1011F000019661E016D7C801029662E012D7C801D5
:10120000049663E00ED7C801059664E00AD7C801CA
:10121000069665E006D783E591E066E002D78BE4A9
:1012200091E067E0FED612D61F910F910895D8DFA6
:1012300081E191E03AD480E890E068E870E0A0DCD9
:1012400080E990E065E970E09BDC8DE990E066EA7A
:1012500070E096DCFBD58EEA90E0AAD680E090E0C4
:1012600061E070E0E2D586EB90E0A2D652DD84FF2B
:10127000FDCF8BE191E019D48FEB90E067EC70E04B
:101280007FCC82E36FD4882309F015DCD0DF95DCB6
:10129000FECF8091B6018823F1F481E08093B601FE
:1012A00083EF8093B0008091B00084BD82E0809392
:1012B000B1008091B10085BD1092B4008091B4005E
:1012C0008093B3008091B30088BD88B587BD8AB193
:1012D00088668AB9239A0895CF93DF93EC01D9DF0A
:1012E000D7FD02C020E004C0D095C195DF4F21E0BA
:1012F000CE01CF3FD10519F014F08FEF90E02223FB
:1013000019F018BC87BD02C088BD17BCDF91CF9112
:101310000895E2CF0895CF93DF93EC01BADFD7FDB4
:1013200002C020E004C0D095C195DF4F21E0CE017E
:10133000CF3FD10519F014F08FEF90E0222329F070
:101340001092B4008093B30004C08093B400109254
:10135000B300DF91CF910895DECF08950F931F93CF
:101360008B01BADFC801D7DF1F910F910895F6CF27
:10137000089580918601882339F020E08091B8019A
:101380009091B901892B09F021E0822F08951092E4
:101390006F00E1E8F0E08081887F8160808380E2F7
:1013A0009EE4909389008093880010928B001092A5
:1013B0008A00229881E0809386011092B9011092F0
:1013C000B8010895A0E0B0E0E8EEF9E00C941C123A
:1013D000FC015B01C42E8091B7018823C1F481E038
:1013E0008093B70110926F00229883E2809380006F
:1013F00089E1809381001092820080E29EE49093C4
:1014000089008093880010928B0010928A001092BD
:101410008601F7FD03C0DD24D39403C0FF779AE073
:10142000D92E80918100082F10E0087F10702D2D9B
:1014300030E080E991E0AC01249FC001259F900D30
:10144000349F900D11248E179F0790F4EF0157E2FF
:10145000E131F50710F0C0E1D7E29E0140E050E035
:1014600060E07DE281E391E0A2D7790101601CC0D8
:1014700088E2D89E802D1124C82FD0E0CE17DF0738
:1014800008F4EF019E0140E050E08AE0D81629F40C
:1014900060E478E78DE791E004C060EA75E286E2F7
:1014A00090E085D7790102604AE0D41631F4CE018C
:1014B00005966AE070E054D7EB0153E0C83ED507CB
:1014C00011F4B5010DC0BE0180E090E0950140E04F
:1014D00050E01BD728EE33E040E050E08AD7B90156
:1014E000CC2011F4229806C0229A8FE08C1510F4BB
:1014F0008FE0C82E10926F0000938100F092890057
:10150000E0928800209188003091890080E190E08D
:101510008C19910902C0369527958A95E2F7309388
:101520008B0020938A007093BF016093BE0186B345
:101530008FEF86BB81E080936F007894CDB7DEB7E4
:10154000EAE096C73FCF0895CF93DF93EB018F3F3B
:1015500011F0442329F488EE93E0BE0140E064C01A
:10156000813110F420E005C0282F2051203608F0EA
:101570002FE5822F6CE0E8D6382F682F70E084EFDB
:101580009FEF689FF001699FF00D789FF00D112487
:10159000E20FF11DEC30F10530F4EC5CFF4F7BC73E
:1015A0008CE991E023C080E090E020C085EB91E0E1
:1015B0001DC08FEC91E01AC08AEE91E017C087E061
:1015C00092E014C086E292E011C087E492E00EC07F
:1015D00089E692E00BC08EE892E008C085EB92E0CD
:1015E00005C08EED92E002C08AE093E0373071F0E2
:1015F00002C0880F991F6A95E2F7323020F00596F5
:101600006AE070E00BC0805090480AC026E0880F66
:10161000991F2A95E1F7029665E070E0A1D6CB010B
:10162000403108F04FE0BE01CDDEDF91CF9108954B
:101630003091BD01E091B801F091B901332311F06F
:10164000249101C02081822F81548A3108F4205EC8
:10165000203221F43196CF01019781F7F093B9013F
:10166000E093B801822F0895CF93DF93E1DF282F15
:10167000C0E0D0E01CC0CE0143E0880F991F4A951E
:10168000E1F7CC0FDD1FC80FD91F822F992787FDE7
:101690009095C80FD91FE0978091B8019091B9013A
:1016A00001969093B9018093B801C2DF282F822F51
:1016B00080538A3000F3CE01DF91CF910895A0E0EE
:1016C000B0E0E4E6FBE0B6C680908701B090BB01D5
:1016D000BB2021F06091BC01662399F4A090BC016D
:1016E00000918C0110918D01E0908801F0908901AA
:1016F000C0918A01D0918B01C0908E01D0908F0152
:1017000003C18FEF70E040E01FDF1092BC01BDC14C
:1017100014E0812EBB2404EF11E0B4E0EB2EF12C99
:10172000C0EDD7E0A4E09A2EFFE0CF2ED12C80DFD1
:10173000282F8091B8019091B90101969093B90139
:101740008093B801263609F498C02736CCF42236A7
:10175000A1F1233674F42E3361F12F3334F42132A6
:10176000B9F22C3309F004C126C0213609F000C1BA
:101770001AC1243609F451C025360CF066C035C0B4
:101780002F3609F4BFC0203754F42C3609F4A5C015
:101790002D3609F4A5C0273609F0EAC086C02437E3
:1017A00009F4CEC0263709F4E0C0223709F0E0C0C2
:1017B000ADC08394BCCF8A94BACFA092BC01B09242
:1017C000BB0110938D0100938C01F0928901E0928E
:1017D0008801D0938B01C0938A0190928701D092A7
:1017E0008F01C0928E012BE0F5C0A092BC01B09297
:1017F000BB0110938D0100938C01F0928901E0925E
:101800008801D0938B01C0938A0190928701D09276
:101810008F01C0928E0120E0DDC0A092BC01B09289
:10182000BB0110938D0100938C01F0928901E0922D
:101830008801D0938B01C0938A0190928701D09246
:101840008F01C0928E0122E0C5C0A092BC01B0926F
:10185000BB0110938D0100938C01F0928901E092FD
:101860008801D0938B01C0938A0190928701D09216
:101870008F01C0928E0124E0ADC0A092BC01B09255
:10188000BB0110938D0100938C01F0928901E092CD
:101890008801D0938B01C0938A0190928701D092E6
:1018A0008F01C0928E0125E095C0A092BC01B0923C
:1018B000BB0110938D0100938C01F0928901E0929D
:1018C0008801D0938B01C0938A0190928701D092B6
:1018D0008F01C0928E0127E07DC0C6DE7C0140C032
:1018E000A7DE8C3611F4BB2403C0AA24BB24B39416
:1018F0008091B8019091B90101969093B9018093BC
:10190000B80115CFB1DE882E982C11CFA092BC0162
:10191000B092BB0110938D0100938C01F09289016C
:10192000E0928801D0938B01C0938A019092870145
:10193000D0928F01C0928E0120E0FF24F3944BC01F
:1019400093DEBC0180EC9DE50BD5CB01EB01E3E020
:10195000CC0FDD1FEA95E1F7880F991FC80FD91F3B
:10196000CE01B701FDD48B01E2CE7EDE6C01DFCE6D
:10197000A092BC01B092BB0110938D0100938C0129
:10198000F0928901E0928801D0938B01C0938A0183
:1019900090928701D0928F01C0928E011092B9016E
:1019A0001092B80172C0A092BC01B092BB0110931A
:1019B0008D0100938C01F0928901E0928801D0930F
:1019C0008B01C0938A0190928701D0928F01C092BF
:1019D0008E0129E0FF248CE0889EC0011124E22EB4
:1019E000E80E0AC08091B8019091B90101969093D8
:1019F000B9018093B801E3941BDE8B3299F38332F3
:101A000089F30BC08091B8019091B9010196909330
:101A1000B9018093B801EA940BDE8D3299F3C0913D
:101A20008C01D0918D018153883048F400918A0156
:101A300010918B0119DEBC01C80192D4EB018E011B
:101A40000BC08091B8019091B90101969093B901B2
:101A50008093B801C00FD11F16950795E9DD8E322E
:101A600081F38091BB01882339F0CE01969587954B
:101A70008093BC01C81BD109FF2011F0EE24EA9429
:101A80008E2DBE0140918E015FDDCDB7DEB7ECE05B
:101A9000EDC410926F009093B9018093B80181E07A
:101AA0008093BD011092BC010ACEF3CF089510922D
:101AB0006F009093B9018093B8011092BD0110920C
:101AC000BC01FDCDF4CF08951F920F920FB60F9277
:101AD00011242F933F934F935F936F937F938F9333
:101AE0009F93AF93BF93EF93FF938091BE0190912B
:101AF000BF0101979093BF018093BE01019609F544
:101B000080918100887F81608093810080E29EE4E3
:101B1000909389008093880010928B0010928A0025
:101B2000229881E08093860110926F008091B80125
:101B30009091B901892B29F08091BA01882309F489
:101B4000BEDDFF91EF91BF91AF919F918F917F91FA
:101B50006F915F914F913F912F910F900FBE0F901A
:101B60001F901895282F8091C001882391F481E05F
:101B70008093C00184B18D7C84B985B1826385B9BD
:101B800081E090E06F9364E06A95F1F76F910197BF
:101B9000C9F783B18095822308951F93CF93DF9374
:101BA000182F8091C001882391F481E08093C001B7
:101BB00084B18D7C84B985B1826385B981E090E080
:101BC0006F9364E06A95F1F76F910197C9F7C12FA0
:101BD000D0E083B190E08C239D23892BD1F38AE060
:101BE00090E034D383B190E08C239D23892B89F33B
:101BF00083B18123DF91CF911F910895CECF0895B6
:101C00001F93CF93DF93182F8091C001882391F405
:101C100081E08093C00184B18D7C84B985B18263F9
:101C200085B981E090E06F9364E06A95F1F76F9178
:101C30000197C9F7C12FD0E083B190E080959095CE
:101C40008C239D23892BC1F38AE090E0FFD283B1DE
:101C500090E0809590958C239D23892B69F383B127
:101C600080958123DF91CF911F910895C9CF089569
:101C70004AB157985A98289A21E030E05C9AC901F5
:101C80006F9364E06A95F1F76F910197C9F789B195
:101C90005C98F9016F9364E06A95F1F76F91319761
:101CA000C9F75C9AF9016F9364E06A95F1F76F9157
:101CB0003197C9F75C9887FDE1CF4AB9089565B1BE
:101CC00090E0AC0141705070440F551F9C0126708C
:101CD000307053E0220F331F5A95E1F7422B6D7C91
:101CE000462B45B92BB18870907034E0880F991F4E
:101CF0003A95E1F72F77282B2BB95C9A81E090E099
:101D0000FC016F9364E06A95F1F76F913197C9F721
:101D10005C986F9364E06A95F1F76F910197C9F74A
:101D200008958AB184618AB9209A84E190E08ED2C4
:101D300080E350D086E090E089D280E34BD082E00F
:101D400090E084D280E346D082E090E07FD280E2CF
:101D500041D082E090E07AD288E23CD088E03AD06C
:101D600081E038D086E036D08CE034C08091C30169
:101D7000882321F481E08093C301D3CF0895CF92CB
:101D8000DF92EF92FF920F931F93082F162FEEDF33
:101D90006FDFC4B0D5B0EAB0FBB05A9828988BB1C9
:101DA000110F110F812B8BB984B1826384B9579ABB
:101DB000802F82958F7083DF802F8F7080DFFBB83C
:101DC000EAB8D5B8C4B81F910F91FF90EF90DF909B
:101DD000CF90089560E0D3CF8CE0FCCFFDCF089585
:101DE000813011F48FE001C08EE0F4CFF9CF089577
:101DF000A2E0B0E0EDEFFEE025C390E8998390EC1F
:101E00009A83082F883008F007E0162F611111E03F
:101E1000FE01E10FF11D8181800FDCDF0093C20123
:101E20001093C1012296E4E029C3E2CF089581E036
:101E3000D1DFE0E9F1E080E2819391E0E839F90750
:101E4000D9F71092C2011092C1010895F0CF089500
:101E50000F931F93CF93DF9300E010E8C82FD0E0DB
:101E6000812F90E08C239D23892B11F081E301C009
:101E700080E361E084DF0F5F083011F01695F0CF4A
:101E8000DF91CF911F910F910895E2CF08954F9266
:101E90005F926F927F928F929F92AF92BF92CF92FA
:101EA000DF92EF92FF920F93DF93CF93CDB7DEB720
:101EB0002A970FB6F894DEBF0FBECDBF4B015C0171
:101EC0000AE02E010894411C511CC501B4012AE00E
:101ED00030E040E050E06BD269017A0101503201FC
:101EE000600E711CC701B6012AE030E040E050E00E
:101EF0000CD2861A970AA80AB90A882D805DF301C8
:101F00008083C114D104E104F10459F04601570162
:101F1000DCCFF701E00FF11D808161E030DF0F5F62
:101F200004C07E010894E11CF11C0A3090F32A964B
:101F30000FB6F894DEBF0FBECDBFCF91DF910F91EA
:101F4000FF90EF90DF90CF90BF90AF909F908F90D9
:101F50007F906F905F904F900895EF92FF920F9354
:101F60001F937B018C0197FF0BC010950095F09497
:101F7000E094E11CF11C011D111D8DE261E0FFDE0A
:101F8000C801B70184DF1F910F91FF90EF90089572
:101F9000E4CF0895CF93DF93EC0103C061E0EFDE5F
:101FA0002196FE0184918823C9F7DF91CF9108958E
:101FB000F1CF0895CF93DF93EC0103C0219661E048
:101FC000DEDE88818823D1F7DF91CF910895F2CFAB
:101FD000089561E0D4CEFDCF0895EF92FF920F9364
:101FE0001F93CF93DF937C01062F10E0E3E0000FF7
:101FF000111FEA95E1F7C0E0D0E09E01200F822F8B
:102000008064E8DEF701EC0FFD1FE4918E2F61E0A4
:10201000B6DE2196C830D10581F7CDB7DEB7E6E050
:102020002BC2DBCF0895519A882311F0599A089555
:1020300059980895579A882311F05F9A08955F98E8
:102040000895882321F480917C008F7D03C08091C6
:102050007C00806280937C000895382F883010F5D2
:1020600028B181E090E0032E02C0880F991F0A94E6
:10207000E2F78095282328B927B1822387B987E81A
:1020800080937A0080917C00807F80937C00809197
:102090007C003F70832B80937C0080917A00806469
:1020A00080937A000895A0E0B0E0E8E5F0E1C6C1D1
:1020B000EB01C7B0D8B0D1DF9E01EE24FF24870129
:1020C00080917A00806480937A0080917A0086FD06
:1020D000FCCF80917C0085FF2CC08091790090E03E
:1020E000A0E0B0E0E80EF91E0A1F1B1F215030408F
:1020F00039F7D8B8C7B8CE0196958795C034D105C1
:1021000038F48E0D9F1D6C2F70E02AD19B010CC0FE
:10211000A0E0B0E0E80EF91E0A1F1B1F9E0140E080
:1021200050E0C801B70143D1C901CDB7DEB7E8E03F
:10213000A1C18091780090917900D2CF87E064E1CD
:1021400070E0B1CFFBCF089586E064E170E0ABDFD3
:102150009C01220F331FA90163E0440F551F6A95AC
:10216000E1F7420F531F80917C0085FF05C09A0163
:1021700028523040C90108959A012E5F3F4F36958D
:10218000279536952795F4CFDFCF0895DDDF9C01A5
:10219000220F331F220F331F280F391FC9018C5301
:1021A000964069E070E0F0D0CB010895EFCF08953C
:1021B0001F920F920FB60F9211242F933F934F93BC
:1021C0008F939F93AF93BF932091C8013091C90122
:1021D000C90180509C4F9093C9018093C8018051E0
:1021E0009742C8F08091C4019091C501A091C601A9
:1021F000B091C7010196A11DB11D8093C4019093B8
:10220000C501A093C601B093C7012051334230935A
:10221000C9012093C801BF91AF919F918F914F91B8
:102220003F912F910F900FBE0F901F90189528EEA1
:1022300033E009C0F9016F9364E06A95F1F76F919B
:102240003197C9F701970097A9F7089528EE33E071
:1022500009C0F9016F9364E06A95F1F76F913197C6
:10226000C9F701970097A9F70895A0E7B0E08C910E
:102270008E7F8C93E0EBF0E0808183608083E1EBE4
:10228000F0E08081807F8083808182608083B89A43
:102290008C9181608C93789408958091CA018823F1
:1022A00021F481E08093CA01E0CF0895F6DFE0E7F2
:1022B000F0E080818E7F80832091C4013091C50140
:1022C0004091C6015091C701808181608083B9012E
:1022D000CA010895EBCF0895E0DFE0E7F0E08081E8
:1022E0008E7F80831092C4011092C5011092C601A6
:1022F0001092C7011092C9011092C801B89A80814A
:10230000816080830895E8CF0895629FD001739F14
:10231000F001829FE00DF11D649FE00DF11D929F81
:10232000F00D839FF00D749FF00D659FF00D9927C0
:10233000729FB00DE11DF91F639FB00DE11DF91FE4
:10234000BD01CF0111240895991B79E004C0991FA4
:10235000961708F0961B881F7A95C9F780950895FF
:10236000AA1BBB1B51E107C0AA1FBB1FA617B707BB
:1023700010F0A61BB70B881F991F5A95A9F78095D7
:102380009095BC01CD01089597FB092E07260AD030
:1023900077FD04D0E5DF06D000201AF47095619532
:1023A0007F4F0895F6F7909581959F4F0895A1E28C
:1023B0001A2EAA1BBB1BFD010DC0AA1FBB1FEE1FBF
:1023C000FF1FA217B307E407F50720F0A21BB30B0A
:1023D000E40BF50B661F771F881F991F1A9469F786
:1023E00060957095809590959B01AC01BD01CF01E2
:1023F000089597FB092E05260ED057FD04D0D7DF90
:102400000AD0001C38F450954095309521953F4FE7
:102410004F4F5F4F0895F6F79095809570956195B1
:102420007F4F8F4F9F4F08952F923F924F925F9211
:102430006F927F928F929F92AF92BF92CF92DF92D4
:10244000EF92FF920F931F93CF93DF93CDB7DEB739
:10245000CA1BDB0B0FB6F894DEBF0FBECDBF0994CD
:102460002A88398848885F846E847D848C849B8424
:10247000AA84B984C884DF80EE80FD800C811B8132
:10248000AA81B981CE0FD11D0FB6F894DEBF0FBE61
:10249000CDBFED010895EE0FFF1F0590F491E02DE3
:0624A0000994F894FFCF3F
:1024A6006D6F746F7232006D6F746F72310046001B
:1024B6002D0052005573657220492F4F006D656CD3
:1024C6006F64793A006675677565004F72616E676D
:1024D60075746E00204C562D33323800202054651A
:1024E6006D702E002E004620200020202000633331
:1024F60032005265642020003E6333320047726525
:10250600656E00A508830846080303FB07A206DCE0
:1025160000E100F700EA00F100FF000620000001DC
:102526000203030405FF01040400D007F4010F00B1
:0825360020202020202020209D
:00000001FF
