:100000003FC0000058C0000056C0000054C00000AF
:1000100052C0000050C000004EC000004CC00000A4
:100020004AC00000EEC4000046C0000044C000000A
:1000300042C00000C7C300003EC000003CC000003A
:100040003AC0000038C0000036C0000034C00000D4
:1000500032C0000030C000002EC000002CC00000E4
:100060002AC0000028C000005C016201650168012F
:100070006B016E017101740177017A017D018001CC
:1000800011241FBECFEFD8E0DEBFCDBF11E0A0E04E
:10009000B1E0E2E3FCE002C005900D92AC31B107A3
:1000A000D9F711E0ACE1B1E001C01D92AF32B10768
:1000B000E1F702D0BCC5A4CF80E091E092D487E004
:1000C00091E07ED380E08FD481E094D484E690E008
:1000D000D7D481E088D480E08DD484E690E0D0D479
:1000E000F1CFA0E0B0E0E6E7F0E06CC5FC015B0119
:1000F000C42E80911C018823C1F481E080931C01EF
:1001000010926F00229883E28093800089E18093AF
:1001100081001092820080E29EE490938900809397
:10012000880010928B0010928A0010921101F7FD46
:1001300003C0DD24D39403C0FF779AE0D92E8091C9
:100140008100082F10E0087F10702D2D30E080E92D
:1001500091E0AC01249FC001259F900D349F900D2C
:1001600011248E179F0790F4EF0157E2E131F50754
:1001700010F0C0E1D7E29E0140E050E060E07DE297
:1001800081E391E0DAD4790101601CC088E2D89E55
:10019000802D1124C82FD0E0CE17DF0708F4EF011F
:1001A0009E0140E050E08AE0D81629F460E478E748
:1001B0008DE791E004C060EA75E286E290E0BDD48C
:1001C000790102604AE0D41631F4CE0105966AE066
:1001D00070E09FD4EB0153E0C83ED50711F4B501A0
:1001E0000DC0BE0180E090E0950140E050E066D493
:1001F00028EE33E040E050E0C2D4B901CC2011F445
:10020000229806C0229A8FE08C1510F48FE0C82E39
:1002100010926F0000938100F0928900E0928800B4
:10022000209188003091890080E190E08C1991093B
:1002300002C0369527958A95E2F730938B0020937C
:100240008A00709324016093230186B38FEF86BBED
:1002500081E080936F007894CDB7DEB7EAE0CEC43A
:10026000CF93DF93EB018F3F11F0442329F488EE05
:1002700093E0BE0140E064C0813110F420E005C08D
:10028000282F2051203608F02FE5822F6CE035D43E
:10029000382F682F70E084EF9FEF689FF001699F0F
:1002A000F00D789FF00D1124E20FF11DEC30F105F7
:1002B00030F4EC5CFF4FB5C48CE991E023C080E0E2
:1002C00090E020C085EB91E01DC08FEC91E01AC05A
:1002D0008AEE91E017C087E092E014C086E292E0D7
:1002E00011C087E492E00EC089E692E00BC08EE870
:1002F00092E008C085EB92E005C08EED92E002C06E
:100300008AE093E0373071F002C0880F991F6A9538
:10031000E2F7323020F005966AE070E00BC08050C2
:1003200090480AC026E0880F991F2A95E1F70296A7
:1003300065E070E0EED3CB01403108F04FE0BE0144
:10034000D0DEDF91CF91089530912201E0911D011F
:10035000F0911E01332311F0249101C02081822FDE
:1003600081548A3108F4205E203221F43196CF0185
:10037000019781F7F0931E01E0931D01822F0895EC
:10038000CF93DF93E1DF282FC0E0D0E01CC0CE0187
:1003900043E0880F991F4A95E1F7CC0FDD1FC80F86
:1003A000D91F822F992787FD9095C80FD91FE097F5
:1003B00080911D0190911E01019690931E018093E2
:1003C0001D01C2DF282F822F80538A3000F3CE0117
:1003D000DF91CF910895A0E0B0E0E0EFF1E0F0C34D
:1003E00080901201B0902001BB2021F0609121018A
:1003F000662399F4A0902101009117011091180132
:10040000E0901301F0901401C0911501D0911601F4
:10041000C0901901D0901A0103C18FEF70E040E045
:100420001FDF10922101BDC114E0812EBB2404EF17
:1004300011E0B4E0EB2EF12CC0EDD7E0A4E09A2E51
:10044000FFE0CF2ED12C80DF282F80911D019091CD
:100450001E01019690931E0180931D01263609F41A
:1004600098C02736CCF42236A1F1233674F42E330B
:1004700061F12F3334F42132B9F22C3309F004C185
:1004800026C0213609F000C11AC1243609F451C032
:1004900025360CF066C035C02F3609F4BFC02037B2
:1004A00054F42C3609F4A5C02D3609F4A5C027361E
:1004B00009F0EAC086C0243709F4CEC0263709F413
:1004C000E0C0223709F0E0C0ADC08394BCCF8A946D
:1004D000BACFA0922101B09220011093180100938D
:1004E0001701F0921401E0921301D0931601C0930A
:1004F000150190921201D0921A01C09219012BE0BD
:10050000F5C0A0922101B092200110931801009330
:100510001701F0921401E0921301D0931601C093D9
:10052000150190921201D0921A01C092190120E097
:10053000DDC0A0922101B092200110931801009318
:100540001701F0921401E0921301D0931601C093A9
:10055000150190921201D0921A01C092190122E065
:10056000C5C0A0922101B092200110931801009300
:100570001701F0921401E0921301D0931601C09379
:10058000150190921201D0921A01C092190124E033
:10059000ADC0A0922101B0922001109318010093E8
:1005A0001701F0921401E0921301D0931601C09349
:1005B000150190921201D0921A01C092190125E002
:1005C00095C0A0922101B0922001109318010093D0
:1005D0001701F0921401E0921301D0931601C09319
:1005E000150190921201D0921A01C092190127E0D0
:1005F0007DC0C6DE7C0140C0A7DE8C3611F4BB2472
:1006000003C0AA24BB24B39480911D0190911E01C4
:10061000019690931E0180931D0115CFB1DE882EA7
:10062000982C11CFA0922101B092200110931801B3
:1006300000931701F0921401E0921301D093160178
:10064000C093150190921201D0921A01C092190123
:1006500020E0FF24F3944BC093DEBC0180EC9DE5C9
:1006600058D2CB01EB01E3E0CC0FDD1FEA95E1F7B7
:10067000880F991FC80FD91FCE01B7014AD28B012D
:10068000E2CE7EDE6C01DFCEA0922101B09220018D
:100690001093180100931701F0921401E0921301D6
:1006A000D0931601C093150190921201D0921A01B5
:1006B000C092190110921E0110921D0172C0A092E9
:1006C0002101B09220011093180100931701F092BC
:1006D0001401E0921301D0931601C093150190927A
:1006E0001201D0921A01C092190129E0FF248CE076
:1006F000889EC0011124E22EE80E0AC080911D01DF
:1007000090911E01019690931E0180931D01E39428
:100710001BDE8B3299F3833289F30BC080911D016C
:1007200090911E01019690931E0180931D01EA9401
:100730000BDE8D3299F3C0911701D09118018153CE
:10074000883048F4009115011091160119DEBC01A2
:10075000C801DFD1EB018E010BC080911D0190918A
:100760001E01019690931E0180931D01C00FD11FA1
:1007700016950795E9DD8E3281F38091200188235B
:1007800039F0CE019695879580932101C81BD10938
:10079000FF2011F0EE24EA948E2DBE014091190144
:1007A0005FDDCDB7DEB7ECE027C210926F0090930B
:1007B0001E0180931D0110922201109221010BCE87
:1007C000F4CF08951F920F920FB60F9211242F931A
:1007D0003F934F935F936F937F938F939F93AF93C9
:1007E000BF93EF93FF938091230190912401019790
:1007F0009093240180932301019609F58091810053
:10080000887F81608093810080E29EE490938900DC
:100810008093880010928B0010928A00229881E0C9
:100820008093110110926F0080911D0190911E0123
:10083000892B29F080911F01882309F4CCDDFF91D9
:10084000EF91BF91AF919F918F917F916F915F9148
:100850004F913F912F910F900FBE0F901F901895C1
:100860004AB157985A98289A21E030E05C9AC90119
:100870006F9364E06A95F1F76F910197C9F789B1B9
:100880005C98F9016F9364E06A95F1F76F91319785
:10089000C9F75C9AF9016F9364E06A95F1F76F917B
:1008A0003197C9F75C9887FDE1CF4AB9089565B1E2
:1008B00090E0AC0141705070440F551F9C012670B0
:1008C000307053E0220F331F5A95E1F7422B6D7CB5
:1008D000462B45B92BB18870907034E0880F991F72
:1008E0003A95E1F72F77282B2BB95C9A81E090E0BD
:1008F000FC016F9364E06A95F1F76F913197C9F746
:100900005C986F9364E06A95F1F76F910197C9F76E
:1009100008958AB184618AB9209A84E190E0BFD0B9
:1009200080E350D086E090E0BAD080E34BD082E004
:1009300090E0B5D080E346D082E090E0B0D080E295
:1009400041D082E090E0ABD088E23CD088E03AD061
:1009500081E038D086E036D08CE034C08091270129
:10096000882321F481E080932701D3CF0895CF928B
:10097000DF92EF92FF920F931F93082F162FEEDF57
:100980006FDFC4B0D5B0EAB0FBB05A9828988BB1ED
:10099000110F110F812B8BB984B1826384B9579ADF
:1009A000802F82958F7083DF802F8F7080DFFBB860
:1009B000EAB8D5B8C4B81F910F91FF90EF90DF90BF
:1009C000CF90089560E0D3CFCF93DF93EC0103C0C5
:1009D000219661E0CCDF88818823D1F7DF91CF9128
:1009E0000895F2CF0895519A882311F0599A0895E5
:1009F00059980895579A882311F05F9A08955F983F
:100A000008951F920F920FB60F9211242F933F93C8
:100A10004F938F939F93AF93BF9320912C0130916D
:100A20002D01C90180509C4F90932D0180932C0182
:100A300080519742C8F08091280190912901A0919E
:100A40002A01B0912B010196A11DB11D80932801AF
:100A500090932901A0932A01B0932B012051334296
:100A600030932D0120932C01BF91AF919F918F91D5
:100A70004F913F912F910F900FBE0F901F9018959F
:100A800028EE33E009C0F9016F9364E06A95F1F74D
:100A90006F913197C9F701970097A9F7089528EE4C
:100AA00033E009C0F9016F9364E06A95F1F76F9143
:100AB0003197C9F701970097A9F70895629FD00170
:100AC000739FF001829FE00DF11D649FE00DF11D09
:100AD000929FF00D839FF00D749FF00D659FF00DB8
:100AE0009927729FB00DE11DF91F639FB00DE11DA5
:100AF000F91FBD01CF0111240895991B79E004C0AD
:100B0000991F961708F0961B881F7A95C9F780954C
:100B10000895AA1BBB1B51E107C0AA1FBB1FA61744
:100B2000B70710F0A61BB70B881F991F5A95A9F796
:100B300080959095BC01CD010895A1E21A2EAA1BC3
:100B4000BB1BFD010DC0AA1FBB1FEE1FFF1FA2177D
:100B5000B307E407F50720F0A21BB30BE40BF50B7A
:100B6000661F771F881F991F1A9469F76095709503
:100B7000809590959B01AC01BD01CF01089597FB35
:100B8000092E05260ED057FD04D0D7DF0AD0001C51
:100B900038F450954095309521953F4F4F4F5F4F1A
:100BA0000895F6F790958095709561957F4F8F4FDA
:100BB0009F4F08952F923F924F925F926F927F9234
:100BC0008F929F92AF92BF92CF92DF92EF92FF925D
:100BD0000F931F93CF93DF93CDB7DEB7CA1BDB0B09
:100BE0000FB6F894DEBF0FBECDBF09942A883988AE
:100BF00048885F846E847D848C849B84AA84B984B5
:100C0000C884DF80EE80FD800C811B81AA81B981C0
:100C1000CE0FD11D0FB6F894DEBF0FBECDBFED01D4
:100C20000895EE0FFF1F0590F491E02D0994F894BC
:020C3000FFCFF4
:100C320048656C6C6F21004C3136206365673E63FA
:0C0C42000001040400D007F4010F0000C2
:00000001FF
