:1000000019C033C032C031C030C02FC02EC02DC087
:100010002CC02BC02AC029C028C027C026C025C09C
:1000200024C023C022C021C020C01FC01EC01DC0CC
:100030001CC01BC011241FBECFEFD2E0DEBFCDBF5E
:1000400011E0A0E0B1E0ECEEF1E002C005900D920D
:10005000A030B107D9F711E0A0E0B1E001C01D92D6
:10006000A530B107E1F702D0BFC0CACF0F931F93ED
:10007000CF93DF9381E05DD01092010110920001D7
:1000800010920201109204011092030187E096D0B1
:10009000C0E0D1E05AD0882329F5009100011091E9
:1000A000010157D0080F191F10930101009300019F
:1000B00087E084D0809102018F5F809302018431B8
:1000C00089F4809100019091010164E170E078D0A1
:1000D00070930401609303011092020110920101D8
:1000E0001092000180E01ED08091030190910401E4
:1000F0009E01281B390BC9016F9364E06A95F1F7E3
:100100006F910197C9F781E00DD080910301909123
:10011000040101966F9364E06A95F1F76F9101977E
:10012000C9F7B8CF519A882311F0599A0895599870
:100130000895882321F480917C008F7D03C08091F5
:100140007C00806280937C00089580917A008074A6
:10015000089580917C0085FF06C080917900282F4A
:1001600030E0C90108952091780030917900F9CFED
:10017000382F883010F528B181E090E0032E02C0BE
:10018000880F991F0A94E2F78095282328B927B190
:10019000822387B987E880937A0080917C00807FF2
:1001A00080937C0080917C003F70832B80937C0047
:1001B00080917A00806480937A000895D9CF089561
:1001C000AA1BBB1B51E107C0AA1FBB1FA617B7077D
:1001D00010F0A61BB70B881F991F5A95A9F7809599
:0C01E0009095BC01CD010895F894FFCF6C
:00000001FF
