:1000000019C033C032C031C030C02FC02EC02DC087
:100010002CC04FC02AC029C028C027C026C025C078
:1000200024C023C022C021C020C01FC01EC01DC0CC
:100030001CC01BC011241FBECFEFD2E0DEBFCDBF5E
:1000400011E0A0E0B1E0E2E5F1E002C005900D9220
:10005000A030B107D9F711E0A0E0B1E001C01D92D6
:10006000A730B107E1F702D072C0CACF81E013D048
:1000700088EE93E05DD080E00ED088EE93E058D01B
:1000800081E010D084EF91E053D080E00BD084EF7A
:1000900091E04ED0EBCF519A882311F0599A0895F0
:1000A00059980895579A882311F05F9A08955F9898
:1000B00008951F920F920FB60F9211242F933F9322
:1000C0004F938F939F93AF93BF93209104013091EF
:1000D0000501C90180509C4F909305018093040154
:1000E00080519742C8F08091000190910101A09148
:1000F0000201B09103010196A11DB11D8093000181
:1001000090930101A0930201B09303012051334267
:100110003093050120930401BF91AF919F918F917E
:100120004F913F912F910F900FBE0F901F901895F8
:1001300028EE33E009C0F9016F9364E06A95F1F7A6
:100140006F913197C9F701970097A9F70895F8942F
:02015000FFCFDF
:00000001FF
