:1000000019C033C032C031C030C02FC02EC02DC087
:100010002CC040C12AC029C028C027C026C025C086
:1000200024C023C022C021C020C01FC01EC01DC0CC
:100030001CC01BC011241FBECFEFD2E0DEBFCDBF5E
:1000400011E0A0E0B1E0E4E3F4E002C005900D921D
:10005000A030B107D9F711E0A0E0B1E001C01D92D6
:10006000A830B107E1F702D0E3C1CACFEF92FF9207
:100070000F931F93CF93DF93E12C81E0F82E08D1EB
:1000800062E070E069D1EB01C050D1408FEFC03029
:10009000D80711F4C1E0DFEFCE01BE017BD0D7FF5E
:1000A00003C0D095C195DF4F81E076D087010C1B4E
:1000B0001D0BC8012ED180E06FD0C8012AD1DFCF3F
:1000C000809100018823F1F481E08093000183EFA7
:1000D0008093B0008091B00084BD82E08093B10035
:1000E0008091B10085BD1092B4008091B4008093DE
:1000F000B3008091B30088BD88B587BD8AB188669A
:100100008AB9239A0895CF93DF93EC01D9DFD7FD05
:1001100002C020E004C0D095C195DF4F21E0CE01A0
:10012000CF3FD10519F014F08FEF90E0222319F0A2
:1001300018BC87BD02C088BD17BCDF91CF91089560
:10014000CF93DF93EC01BCDFD7FD02C020E004C0F9
:10015000D095C195DF4F21E0CE01CF3FD10519F0F9
:1001600014F08FEF90E0222329F01092B4008093D6
:10017000B30004C08093B4001092B300DF91CF911C
:1001800008950F931F938B01BEDFC801D9DF1F9124
:100190000F910895F6CF0895519A882311F0599A36
:1001A000089559980895382F883010F528B181E0C6
:1001B00090E0032E02C0880F991F0A94E2F7809501
:1001C000282328B927B1822387B987E880937A004A
:1001D00080917C00807F80937C0080917C003F70C8
:1001E000832B80937C0080917A00806480937A00D6
:1001F0000895A0E0B0E0EEEFF0E0EDC0EB01C7B095
:10020000D8B0D1DF9E01EE24FF24870180917A00CF
:10021000806480937A0080917A0086FDFCCF809183
:100220007C0085FF2CC08091790090E0A0E0B0E0D8
:10023000E80EF91E0A1F1B1F2150304039F7D8B8AD
:10024000C7B8CE0196958795C034D10538F48E0D88
:100250009F1D6C2F70E06CD09B010CC0A0E0B0E043
:10026000E80EF91E0A1F1B1F9E0140E050E0C80166
:10027000B70185D0C901CDB7DEB7E8E0C8C080912D
:10028000780090917900D2CF87E064E170E0B1CF3F
:10029000FBCF08951F920F920FB60F9211242F9348
:1002A0003F934F938F939F93AF93BF9320910501FB
:1002B00030910601C90180509C4F909306018093B4
:1002C000050180519742C8F080910101909102018F
:1002D000A0910301B09104010196A11DB11D80936D
:1002E000010190930201A0930301B09304012051F6
:1002F00033423093060120930501BF91AF919F9146
:100300008F914F913F912F910F900FBE0F901F90A3
:10031000189528EE33E009C0F9016F9364E06A95FF
:10032000F1F76F913197C9F701970097A9F70895F1
:10033000AA1BBB1B51E107C0AA1FBB1FA617B7070B
:1003400010F0A61BB70B881F991F5A95A9F7809527
:100350009095BC01CD01089597FB092E07260AD080
:1003600077FD04D0E5DF06D000201AF47095619582
:100370007F4F0895F6F7909581959F4F0895A1E2DC
:100380001A2EAA1BBB1BFD010DC0AA1FBB1FEE1F0F
:10039000FF1FA217B307E407F50720F0A21BB30B5A
:1003A000E40BF50B661F771F881F991F1A9469F7D6
:1003B00060957095809590959B01AC01BD01CF0132
:1003C00008952F923F924F925F926F927F928F92F9
:1003D0009F92AF92BF92CF92DF92EF92FF920F93D4
:1003E0001F93CF93DF93CDB7DEB7CA1BDB0B0FB6DE
:1003F000F894DEBF0FBECDBF09942A88398848889B
:100400005F846E847D848C849B84AA84B984C88430
:10041000DF80EE80FD800C811B81AA81B981CE0F27
:10042000D11D0FB6F894DEBF0FBECDBFED0108950C
:04043000F894FFCF6E
:00000001FF
