:1000000019C033C032C031C030C02FC02EC02DC087
:100010002CC0EDC02AC029C028C027C026C025C0DA
:1000200024C023C022C021C020C01FC01EC01DC0CC
:100030001CC01BC011241FBECFEFD2E0DEBFCDBF5E
:1000400011E0A0E0B1E0E6ECF2E002C005900D9214
:10005000A830B107D9F711E0A8E0B1E001C01D92C6
:10006000AF30B107E1F714D02CC1CACFFC0177271C
:1000700067FD709580819181680F791F718360831E
:100080006850774024F080EB94E09183808308955A
:10009000A8E1B0E0EDE4F0E0FEC0509A519A389A41
:1000A000399A3A9A3B9A3C9A3D9ADE011196E0E0E1
:1000B000F1E088E001900D928150E1F7FE01399660
:1000C00020EB34E0CE01499621933193E817F907EC
:1000D000D9F740E050E07E010894E11CF11C60ED8E
:1000E000862E67E0962E39E0A32EB12CAC0EBD1EF5
:1000F00020EBC22E24E0D22E01E010E06EC0423090
:1001000051055CF42BB1C801042E02C0880F991F61
:100110000A94E2F7282B2BB90EC028B14250504068
:10012000C801042E02C0880F991F0A94E2F74E5F9F
:100130005F4F282B28B9FA01EE0FFF1FEE0DFF1DB0
:1001400060857185CB016F9364E06A95F1F76F91DB
:100150000197C9F74230510564F42BB1C801042E50
:1001600002C0880F991F0A94E2F7809582238BB909
:100170000FC028B142505040C801042E02C0880F61
:10018000991F0A94E2F74E5F5F4F8095822388B9EA
:10019000C401861B970B6F9364E06A95F1F76F912A
:1001A0000197C9F7DA01AA0FBB1FAA0DBB1DF70102
:1001B000E40FF51F8081992787FD90952D913C9143
:1001C0001197820F931F11969C938E93885097409E
:1001D00014F0CD92DC924F5F5F4F483051050CF424
:1001E0008ECF84E090E042D040E050E0F6CF1F9206
:1001F0000F920FB60F9211242F933F934F938F932B
:100200009F93AF93BF9320910C0130910D01C901D1
:1002100080509C4F90930D0180930C018051974228
:10022000C8F08091080190910901A0910A01B09154
:100230000B010196A11DB11D809308019093090146
:10024000A0930A01B0930B012051334230930D016A
:1002500020930C01BF91AF919F918F914F913F914E
:100260002F910F900FBE0F901F90189528EE33E03E
:1002700009C0F9016F9364E06A95F1F76F913197C6
:10028000C9F701970097A9F708952F923F924F92CF
:100290005F926F927F928F929F92AF92BF92CF9216
:1002A000DF92EF92FF920F931F93CF93DF93CDB71F
:1002B000DEB7CA1BDB0B0FB6F894DEBF0FBECDBF97
:0602C0000994F894FFCF41
:0802C600090A0B0C0D0E0F10CC
:00000001FF
